{
  "address": "0x5FbDB2315678afecb367f032d93F642f64180aa3",
  "abi": [
    {
      "inputs": [
        {
          "internalType": "string",
          "name": "collectionName",
          "type": "string"
        },
        {
          "internalType": "string",
          "name": "collectionSymbol",
          "type": "string"
        },
        {
          "internalType": "string",
          "name": "tokenURISuffix",
          "type": "string"
        },
        {
          "internalType": "uint256",
          "name": "maxMintableSupply",
          "type": "uint256"
        },
        {
          "internalType": "uint256",
          "name": "globalWalletLimit",
          "type": "uint256"
        },
        {
          "internalType": "address",
          "name": "cosigner",
          "type": "address"
        }
      ],
      "stateMutability": "nonpayable",
      "type": "constructor"
    },
    {
      "inputs": [],
      "name": "ApprovalCallerNotOwnerNorApproved",
      "type": "error"
    },
    {
      "inputs": [],
      "name": "ApprovalQueryForNonexistentToken",
      "type": "error"
    },
    {
      "inputs": [],
      "name": "BalanceQueryForZeroAddress",
      "type": "error"
    },
    {
      "inputs": [],
      "name": "CannotIncreaseMaxMintableSupply",
      "type": "error"
    },
    {
      "inputs": [],
      "name": "CannotUpdatePermanentBaseURI",
      "type": "error"
    },
    {
      "inputs": [],
      "name": "CosignerNotSet",
      "type": "error"
    },
    {
      "inputs": [],
      "name": "CrossmintAddressNotSet",
      "type": "error"
    },
    {
      "inputs": [],
      "name": "CrossmintOnly",
      "type": "error"
    },
    {
      "inputs": [],
      "name": "GlobalWalletLimitOverflow",
      "type": "error"
    },
    {
      "inputs": [],
      "name": "InsufficientStageTimeGap",
      "type": "error"
    },
    {
      "inputs": [],
      "name": "InvalidCosignSignature",
      "type": "error"
    },
    {
      "inputs": [],
      "name": "InvalidProof",
      "type": "error"
    },
    {
      "inputs": [],
      "name": "InvalidQueryRange",
      "type": "error"
    },
    {
      "inputs": [],
      "name": "InvalidStage",
      "type": "error"
    },
    {
      "inputs": [],
      "name": "InvalidStageArgsLength",
      "type": "error"
    },
    {
      "inputs": [],
      "name": "InvalidStartAndEndTimestamp",
      "type": "error"
    },
    {
      "inputs": [],
      "name": "MintERC2309QuantityExceedsLimit",
      "type": "error"
    },
    {
      "inputs": [],
      "name": "MintToZeroAddress",
      "type": "error"
    },
    {
      "inputs": [],
      "name": "MintZeroQuantity",
      "type": "error"
    },
    {
      "inputs": [],
      "name": "Mintable",
      "type": "error"
    },
    {
      "inputs": [],
      "name": "NoSupplyLeft",
      "type": "error"
    },
    {
      "inputs": [],
      "name": "NotEnoughValue",
      "type": "error"
    },
    {
      "inputs": [],
      "name": "NotMintable",
      "type": "error"
    },
    {
      "inputs": [],
      "name": "OwnerQueryForNonexistentToken",
      "type": "error"
    },
    {
      "inputs": [],
      "name": "OwnershipNotInitializedForExtraData",
      "type": "error"
    },
    {
      "inputs": [],
      "name": "StageSupplyExceeded",
      "type": "error"
    },
    {
      "inputs": [],
      "name": "TimestampExpired",
      "type": "error"
    },
    {
      "inputs": [],
      "name": "TransferCallerNotOwnerNorApproved",
      "type": "error"
    },
    {
      "inputs": [],
      "name": "TransferFromIncorrectOwner",
      "type": "error"
    },
    {
      "inputs": [],
      "name": "TransferToNonERC721ReceiverImplementer",
      "type": "error"
    },
    {
      "inputs": [],
      "name": "TransferToZeroAddress",
      "type": "error"
    },
    {
      "inputs": [],
      "name": "URIQueryForNonexistentToken",
      "type": "error"
    },
    {
      "inputs": [],
      "name": "WalletGlobalLimitExceeded",
      "type": "error"
    },
    {
      "inputs": [],
      "name": "WalletStageLimitExceeded",
      "type": "error"
    },
    {
      "inputs": [],
      "name": "WithdrawFailed",
      "type": "error"
    },
    {
      "anonymous": false,
      "inputs": [
        {
          "indexed": true,
          "internalType": "address",
          "name": "owner",
          "type": "address"
        },
        {
          "indexed": true,
          "internalType": "address",
          "name": "approved",
          "type": "address"
        },
        {
          "indexed": true,
          "internalType": "uint256",
          "name": "tokenId",
          "type": "uint256"
        }
      ],
      "name": "Approval",
      "type": "event"
    },
    {
      "anonymous": false,
      "inputs": [
        {
          "indexed": true,
          "internalType": "address",
          "name": "owner",
          "type": "address"
        },
        {
          "indexed": true,
          "internalType": "address",
          "name": "operator",
          "type": "address"
        },
        {
          "indexed": false,
          "internalType": "bool",
          "name": "approved",
          "type": "bool"
        }
      ],
      "name": "ApprovalForAll",
      "type": "event"
    },
    {
      "anonymous": false,
      "inputs": [
        {
          "indexed": true,
          "internalType": "uint256",
          "name": "fromTokenId",
          "type": "uint256"
        },
        {
          "indexed": false,
          "internalType": "uint256",
          "name": "toTokenId",
          "type": "uint256"
        },
        {
          "indexed": true,
          "internalType": "address",
          "name": "from",
          "type": "address"
        },
        {
          "indexed": true,
          "internalType": "address",
          "name": "to",
          "type": "address"
        }
      ],
      "name": "ConsecutiveTransfer",
      "type": "event"
    },
    {
      "anonymous": false,
      "inputs": [
        {
          "indexed": true,
          "internalType": "address",
          "name": "previousOwner",
          "type": "address"
        },
        {
          "indexed": true,
          "internalType": "address",
          "name": "newOwner",
          "type": "address"
        }
      ],
      "name": "OwnershipTransferred",
      "type": "event"
    },
    {
      "anonymous": false,
      "inputs": [
        {
          "indexed": false,
          "internalType": "string",
          "name": "baseURI",
          "type": "string"
        }
      ],
      "name": "PermanentBaseURI",
      "type": "event"
    },
    {
      "anonymous": false,
      "inputs": [
        {
          "indexed": false,
          "internalType": "uint256",
          "name": "activeStage",
          "type": "uint256"
        }
      ],
      "name": "SetActiveStage",
      "type": "event"
    },
    {
      "anonymous": false,
      "inputs": [
        {
          "indexed": false,
          "internalType": "string",
          "name": "baseURI",
          "type": "string"
        }
      ],
      "name": "SetBaseURI",
      "type": "event"
    },
    {
      "anonymous": false,
      "inputs": [
        {
          "indexed": false,
          "internalType": "address",
          "name": "cosigner",
          "type": "address"
        }
      ],
      "name": "SetCosigner",
      "type": "event"
    },
    {
      "anonymous": false,
      "inputs": [
        {
          "indexed": false,
          "internalType": "address",
          "name": "crossmintAddress",
          "type": "address"
        }
      ],
      "name": "SetCrossmintAddress",
      "type": "event"
    },
    {
      "anonymous": false,
      "inputs": [
        {
          "indexed": false,
          "internalType": "uint256",
          "name": "globalWalletLimit",
          "type": "uint256"
        }
      ],
      "name": "SetGlobalWalletLimit",
      "type": "event"
    },
    {
      "anonymous": false,
      "inputs": [
        {
          "indexed": false,
          "internalType": "uint256",
          "name": "maxMintableSupply",
          "type": "uint256"
        }
      ],
      "name": "SetMaxMintableSupply",
      "type": "event"
    },
    {
      "anonymous": false,
      "inputs": [
        {
          "indexed": false,
          "internalType": "bool",
          "name": "mintable",
          "type": "bool"
        }
      ],
      "name": "SetMintable",
      "type": "event"
    },
    {
      "anonymous": false,
      "inputs": [
        {
          "indexed": true,
          "internalType": "address",
          "name": "from",
          "type": "address"
        },
        {
          "indexed": true,
          "internalType": "address",
          "name": "to",
          "type": "address"
        },
        {
          "indexed": true,
          "internalType": "uint256",
          "name": "tokenId",
          "type": "uint256"
        }
      ],
      "name": "Transfer",
      "type": "event"
    },
    {
      "anonymous": false,
      "inputs": [
        {
          "indexed": false,
          "internalType": "uint256",
          "name": "stage",
          "type": "uint256"
        },
        {
          "indexed": false,
          "internalType": "uint80",
          "name": "price",
          "type": "uint80"
        },
        {
          "indexed": false,
          "internalType": "uint32",
          "name": "walletLimit",
          "type": "uint32"
        },
        {
          "indexed": false,
          "internalType": "bytes32",
          "name": "merkleRoot",
          "type": "bytes32"
        },
        {
          "indexed": false,
          "internalType": "uint24",
          "name": "maxStageSupply",
          "type": "uint24"
        },
        {
          "indexed": false,
          "internalType": "uint64",
          "name": "startTimeUnixSeconds",
          "type": "uint64"
        },
        {
          "indexed": false,
          "internalType": "uint64",
          "name": "endTimeUnixSeconds",
          "type": "uint64"
        }
      ],
      "name": "UpdateStage",
      "type": "event"
    },
    {
      "anonymous": false,
      "inputs": [
        {
          "indexed": false,
          "internalType": "uint256",
          "name": "value",
          "type": "uint256"
        }
      ],
      "name": "Withdraw",
      "type": "event"
    },
    {
      "inputs": [],
      "name": "CROSSMINT_TIMESTAMP_EXPIRY_SECONDS",
      "outputs": [
        {
          "internalType": "uint64",
          "name": "",
          "type": "uint64"
        }
      ],
      "stateMutability": "view",
      "type": "function"
    },
    {
      "inputs": [],
      "name": "MIN_STAGE_INTERVAL_SECONDS",
      "outputs": [
        {
          "internalType": "uint64",
          "name": "",
          "type": "uint64"
        }
      ],
      "stateMutability": "view",
      "type": "function"
    },
    {
      "inputs": [
        {
          "internalType": "address",
          "name": "to",
          "type": "address"
        },
        {
          "internalType": "uint256",
          "name": "tokenId",
          "type": "uint256"
        }
      ],
      "name": "approve",
      "outputs": [],
      "stateMutability": "payable",
      "type": "function"
    },
    {
      "inputs": [
        {
          "internalType": "address",
          "name": "minter",
          "type": "address"
        },
        {
          "internalType": "uint32",
          "name": "qty",
          "type": "uint32"
        },
        {
          "internalType": "uint64",
          "name": "timestamp",
          "type": "uint64"
        },
        {
          "internalType": "bytes",
          "name": "signature",
          "type": "bytes"
        }
      ],
      "name": "assertValidCosign",
      "outputs": [],
      "stateMutability": "view",
      "type": "function"
    },
    {
      "inputs": [
        {
          "internalType": "uint256",
          "name": "num",
          "type": "uint256"
        },
        {
          "internalType": "bytes",
          "name": "signature",
          "type": "bytes"
        }
      ],
      "name": "assertValidCosignTest",
      "outputs": [
        {
          "internalType": "bool",
          "name": "",
          "type": "bool"
        }
      ],
      "stateMutability": "view",
      "type": "function"
    },
    {
      "inputs": [
        {
          "internalType": "address",
          "name": "owner",
          "type": "address"
        }
      ],
      "name": "balanceOf",
      "outputs": [
        {
          "internalType": "uint256",
          "name": "",
          "type": "uint256"
        }
      ],
      "stateMutability": "view",
      "type": "function"
    },
    {
      "inputs": [
        {
          "internalType": "bytes32",
          "name": "hashTest",
          "type": "bytes32"
        },
        {
          "internalType": "bytes",
          "name": "signature",
          "type": "bytes"
        }
      ],
      "name": "checkSignature",
      "outputs": [
        {
          "internalType": "bool",
          "name": "",
          "type": "bool"
        }
      ],
      "stateMutability": "view",
      "type": "function"
    },
    {
      "inputs": [
        {
          "internalType": "uint32",
          "name": "qty",
          "type": "uint32"
        },
        {
          "internalType": "address",
          "name": "to",
          "type": "address"
        },
        {
          "internalType": "bytes32[]",
          "name": "proof",
          "type": "bytes32[]"
        },
        {
          "internalType": "uint64",
          "name": "timestamp",
          "type": "uint64"
        },
        {
          "internalType": "bytes",
          "name": "signature",
          "type": "bytes"
        }
      ],
      "name": "crossmint",
      "outputs": [],
      "stateMutability": "payable",
      "type": "function"
    },
    {
      "inputs": [
        {
          "internalType": "uint256",
          "name": "tokenId",
          "type": "uint256"
        }
      ],
      "name": "explicitOwnershipOf",
      "outputs": [
        {
          "components": [
            {
              "internalType": "address",
              "name": "addr",
              "type": "address"
            },
            {
              "internalType": "uint64",
              "name": "startTimestamp",
              "type": "uint64"
            },
            {
              "internalType": "bool",
              "name": "burned",
              "type": "bool"
            },
            {
              "internalType": "uint24",
              "name": "extraData",
              "type": "uint24"
            }
          ],
          "internalType": "struct IERC721A.TokenOwnership",
          "name": "",
          "type": "tuple"
        }
      ],
      "stateMutability": "view",
      "type": "function"
    },
    {
      "inputs": [
        {
          "internalType": "uint256[]",
          "name": "tokenIds",
          "type": "uint256[]"
        }
      ],
      "name": "explicitOwnershipsOf",
      "outputs": [
        {
          "components": [
            {
              "internalType": "address",
              "name": "addr",
              "type": "address"
            },
            {
              "internalType": "uint64",
              "name": "startTimestamp",
              "type": "uint64"
            },
            {
              "internalType": "bool",
              "name": "burned",
              "type": "bool"
            },
            {
              "internalType": "uint24",
              "name": "extraData",
              "type": "uint24"
            }
          ],
          "internalType": "struct IERC721A.TokenOwnership[]",
          "name": "",
          "type": "tuple[]"
        }
      ],
      "stateMutability": "view",
      "type": "function"
    },
    {
      "inputs": [],
      "name": "getActiveStage",
      "outputs": [
        {
          "internalType": "uint256",
          "name": "",
          "type": "uint256"
        }
      ],
      "stateMutability": "view",
      "type": "function"
    },
    {
      "inputs": [
        {
          "internalType": "uint64",
          "name": "timestamp",
          "type": "uint64"
        }
      ],
      "name": "getActiveStageFromTimestamp",
      "outputs": [
        {
          "internalType": "uint256",
          "name": "",
          "type": "uint256"
        }
      ],
      "stateMutability": "view",
      "type": "function"
    },
    {
      "inputs": [
        {
          "internalType": "uint256",
          "name": "tokenId",
          "type": "uint256"
        }
      ],
      "name": "getApproved",
      "outputs": [
        {
          "internalType": "address",
          "name": "",
          "type": "address"
        }
      ],
      "stateMutability": "view",
      "type": "function"
    },
    {
      "inputs": [
        {
          "internalType": "address",
          "name": "minter",
          "type": "address"
        },
        {
          "internalType": "uint32",
          "name": "qty",
          "type": "uint32"
        },
        {
          "internalType": "uint64",
          "name": "timestamp",
          "type": "uint64"
        }
      ],
      "name": "getCosignDigest",
      "outputs": [
        {
          "internalType": "bytes32",
          "name": "",
          "type": "bytes32"
        }
      ],
      "stateMutability": "view",
      "type": "function"
    },
    {
      "inputs": [
        {
          "internalType": "address",
          "name": "addr",
          "type": "address"
        },
        {
          "internalType": "uint256",
          "name": "num",
          "type": "uint256"
        }
      ],
      "name": "getCosignDigestTest",
      "outputs": [
        {
          "internalType": "bytes32",
          "name": "",
          "type": "bytes32"
        }
      ],
      "stateMutability": "pure",
      "type": "function"
    },
    {
      "inputs": [
        {
          "internalType": "address",
          "name": "minter",
          "type": "address"
        }
      ],
      "name": "getCosignNonce",
      "outputs": [
        {
          "internalType": "uint256",
          "name": "",
          "type": "uint256"
        }
      ],
      "stateMutability": "view",
      "type": "function"
    },
    {
      "inputs": [],
      "name": "getCosigner",
      "outputs": [
        {
          "internalType": "address",
          "name": "",
          "type": "address"
        }
      ],
      "stateMutability": "view",
      "type": "function"
    },
    {
      "inputs": [],
      "name": "getCrossmintAddress",
      "outputs": [
        {
          "internalType": "address",
          "name": "",
          "type": "address"
        }
      ],
      "stateMutability": "view",
      "type": "function"
    },
    {
      "inputs": [],
      "name": "getGlobalWalletLimit",
      "outputs": [
        {
          "internalType": "uint256",
          "name": "",
          "type": "uint256"
        }
      ],
      "stateMutability": "view",
      "type": "function"
    },
    {
      "inputs": [],
      "name": "getMaxMintableSupply",
      "outputs": [
        {
          "internalType": "uint256",
          "name": "",
          "type": "uint256"
        }
      ],
      "stateMutability": "view",
      "type": "function"
    },
    {
      "inputs": [],
      "name": "getMintable",
      "outputs": [
        {
          "internalType": "bool",
          "name": "",
          "type": "bool"
        }
      ],
      "stateMutability": "view",
      "type": "function"
    },
    {
      "inputs": [],
      "name": "getNumberStages",
      "outputs": [
        {
          "internalType": "uint256",
          "name": "",
          "type": "uint256"
        }
      ],
      "stateMutability": "view",
      "type": "function"
    },
    {
      "inputs": [
        {
          "internalType": "uint256",
          "name": "index",
          "type": "uint256"
        }
      ],
      "name": "getStageInfo",
      "outputs": [
        {
          "components": [
            {
              "internalType": "uint80",
              "name": "price",
              "type": "uint80"
            },
            {
              "internalType": "uint32",
              "name": "walletLimit",
              "type": "uint32"
            },
            {
              "internalType": "bytes32",
              "name": "merkleRoot",
              "type": "bytes32"
            },
            {
              "internalType": "uint24",
              "name": "maxStageSupply",
              "type": "uint24"
            },
            {
              "internalType": "uint64",
              "name": "startTimeUnixSeconds",
              "type": "uint64"
            },
            {
              "internalType": "uint64",
              "name": "endTimeUnixSeconds",
              "type": "uint64"
            }
          ],
          "internalType": "struct IERC721I.MintStageInfo",
          "name": "",
          "type": "tuple"
        },
        {
          "internalType": "uint32",
          "name": "",
          "type": "uint32"
        },
        {
          "internalType": "uint256",
          "name": "",
          "type": "uint256"
        }
      ],
      "stateMutability": "view",
      "type": "function"
    },
    {
      "inputs": [],
      "name": "getTokenURISuffix",
      "outputs": [
        {
          "internalType": "string",
          "name": "",
          "type": "string"
        }
      ],
      "stateMutability": "view",
      "type": "function"
    },
    {
      "inputs": [
        {
          "internalType": "address",
          "name": "owner",
          "type": "address"
        },
        {
          "internalType": "address",
          "name": "operator",
          "type": "address"
        }
      ],
      "name": "isApprovedForAll",
      "outputs": [
        {
          "internalType": "bool",
          "name": "",
          "type": "bool"
        }
      ],
      "stateMutability": "view",
      "type": "function"
    },
    {
      "inputs": [
        {
          "internalType": "uint32",
          "name": "qty",
          "type": "uint32"
        },
        {
          "internalType": "bytes32[]",
          "name": "proof",
          "type": "bytes32[]"
        },
        {
          "internalType": "uint64",
          "name": "timestamp",
          "type": "uint64"
        },
        {
          "internalType": "bytes",
          "name": "signature",
          "type": "bytes"
        }
      ],
      "name": "mint",
      "outputs": [],
      "stateMutability": "payable",
      "type": "function"
    },
    {
      "inputs": [],
      "name": "name",
      "outputs": [
        {
          "internalType": "string",
          "name": "",
          "type": "string"
        }
      ],
      "stateMutability": "view",
      "type": "function"
    },
    {
      "inputs": [],
      "name": "owner",
      "outputs": [
        {
          "internalType": "address",
          "name": "",
          "type": "address"
        }
      ],
      "stateMutability": "view",
      "type": "function"
    },
    {
      "inputs": [
        {
          "internalType": "uint32",
          "name": "qty",
          "type": "uint32"
        },
        {
          "internalType": "address",
          "name": "to",
          "type": "address"
        }
      ],
      "name": "ownerMint",
      "outputs": [],
      "stateMutability": "nonpayable",
      "type": "function"
    },
    {
      "inputs": [
        {
          "internalType": "uint256",
          "name": "tokenId",
          "type": "uint256"
        }
      ],
      "name": "ownerOf",
      "outputs": [
        {
          "internalType": "address",
          "name": "",
          "type": "address"
        }
      ],
      "stateMutability": "view",
      "type": "function"
    },
    {
      "inputs": [],
      "name": "renounceOwnership",
      "outputs": [],
      "stateMutability": "nonpayable",
      "type": "function"
    },
    {
      "inputs": [
        {
          "internalType": "address",
          "name": "from",
          "type": "address"
        },
        {
          "internalType": "address",
          "name": "to",
          "type": "address"
        },
        {
          "internalType": "uint256",
          "name": "tokenId",
          "type": "uint256"
        }
      ],
      "name": "safeTransferFrom",
      "outputs": [],
      "stateMutability": "payable",
      "type": "function"
    },
    {
      "inputs": [
        {
          "internalType": "address",
          "name": "from",
          "type": "address"
        },
        {
          "internalType": "address",
          "name": "to",
          "type": "address"
        },
        {
          "internalType": "uint256",
          "name": "tokenId",
          "type": "uint256"
        },
        {
          "internalType": "bytes",
          "name": "_data",
          "type": "bytes"
        }
      ],
      "name": "safeTransferFrom",
      "outputs": [],
      "stateMutability": "payable",
      "type": "function"
    },
    {
      "inputs": [
        {
          "internalType": "uint256",
          "name": "activeStage",
          "type": "uint256"
        }
      ],
      "name": "setActiveStage",
      "outputs": [],
      "stateMutability": "nonpayable",
      "type": "function"
    },
    {
      "inputs": [
        {
          "internalType": "address",
          "name": "operator",
          "type": "address"
        },
        {
          "internalType": "bool",
          "name": "approved",
          "type": "bool"
        }
      ],
      "name": "setApprovalForAll",
      "outputs": [],
      "stateMutability": "nonpayable",
      "type": "function"
    },
    {
      "inputs": [
        {
          "internalType": "string",
          "name": "baseURI",
          "type": "string"
        }
      ],
      "name": "setBaseURI",
      "outputs": [],
      "stateMutability": "nonpayable",
      "type": "function"
    },
    {
      "inputs": [],
      "name": "setBaseURIPermanent",
      "outputs": [],
      "stateMutability": "nonpayable",
      "type": "function"
    },
    {
      "inputs": [
        {
          "internalType": "address",
          "name": "cosigner",
          "type": "address"
        }
      ],
      "name": "setCosigner",
      "outputs": [],
      "stateMutability": "nonpayable",
      "type": "function"
    },
    {
      "inputs": [
        {
          "internalType": "address",
          "name": "crossmintAddress",
          "type": "address"
        }
      ],
      "name": "setCrossmintAddress",
      "outputs": [],
      "stateMutability": "nonpayable",
      "type": "function"
    },
    {
      "inputs": [
        {
          "internalType": "uint256",
          "name": "globalWalletLimit",
          "type": "uint256"
        }
      ],
      "name": "setGlobalWalletLimit",
      "outputs": [],
      "stateMutability": "nonpayable",
      "type": "function"
    },
    {
      "inputs": [
        {
          "internalType": "uint256",
          "name": "maxMintableSupply",
          "type": "uint256"
        }
      ],
      "name": "setMaxMintableSupply",
      "outputs": [],
      "stateMutability": "nonpayable",
      "type": "function"
    },
    {
      "inputs": [
        {
          "internalType": "bool",
          "name": "mintable",
          "type": "bool"
        }
      ],
      "name": "setMintable",
      "outputs": [],
      "stateMutability": "nonpayable",
      "type": "function"
    },
    {
      "inputs": [
        {
          "components": [
            {
              "internalType": "uint80",
              "name": "price",
              "type": "uint80"
            },
            {
              "internalType": "uint32",
              "name": "walletLimit",
              "type": "uint32"
            },
            {
              "internalType": "bytes32",
              "name": "merkleRoot",
              "type": "bytes32"
            },
            {
              "internalType": "uint24",
              "name": "maxStageSupply",
              "type": "uint24"
            },
            {
              "internalType": "uint64",
              "name": "startTimeUnixSeconds",
              "type": "uint64"
            },
            {
              "internalType": "uint64",
              "name": "endTimeUnixSeconds",
              "type": "uint64"
            }
          ],
          "internalType": "struct IERC721I.MintStageInfo[]",
          "name": "newStages",
          "type": "tuple[]"
        }
      ],
      "name": "setStages",
      "outputs": [],
      "stateMutability": "nonpayable",
      "type": "function"
    },
    {
      "inputs": [
        {
          "internalType": "string",
          "name": "suffix",
          "type": "string"
        }
      ],
      "name": "setTokenURISuffix",
      "outputs": [],
      "stateMutability": "nonpayable",
      "type": "function"
    },
    {
      "inputs": [
        {
          "internalType": "bytes4",
          "name": "interfaceId",
          "type": "bytes4"
        }
      ],
      "name": "supportsInterface",
      "outputs": [
        {
          "internalType": "bool",
          "name": "",
          "type": "bool"
        }
      ],
      "stateMutability": "view",
      "type": "function"
    },
    {
      "inputs": [],
      "name": "symbol",
      "outputs": [
        {
          "internalType": "string",
          "name": "",
          "type": "string"
        }
      ],
      "stateMutability": "view",
      "type": "function"
    },
    {
      "inputs": [
        {
          "internalType": "uint256",
          "name": "tokenId",
          "type": "uint256"
        }
      ],
      "name": "tokenURI",
      "outputs": [
        {
          "internalType": "string",
          "name": "",
          "type": "string"
        }
      ],
      "stateMutability": "view",
      "type": "function"
    },
    {
      "inputs": [
        {
          "internalType": "address",
          "name": "owner",
          "type": "address"
        }
      ],
      "name": "tokensOfOwner",
      "outputs": [
        {
          "internalType": "uint256[]",
          "name": "",
          "type": "uint256[]"
        }
      ],
      "stateMutability": "view",
      "type": "function"
    },
    {
      "inputs": [
        {
          "internalType": "address",
          "name": "owner",
          "type": "address"
        },
        {
          "internalType": "uint256",
          "name": "start",
          "type": "uint256"
        },
        {
          "internalType": "uint256",
          "name": "stop",
          "type": "uint256"
        }
      ],
      "name": "tokensOfOwnerIn",
      "outputs": [
        {
          "internalType": "uint256[]",
          "name": "",
          "type": "uint256[]"
        }
      ],
      "stateMutability": "view",
      "type": "function"
    },
    {
      "inputs": [
        {
          "internalType": "address",
          "name": "a",
          "type": "address"
        }
      ],
      "name": "totalMintedByAddress",
      "outputs": [
        {
          "internalType": "uint256",
          "name": "",
          "type": "uint256"
        }
      ],
      "stateMutability": "view",
      "type": "function"
    },
    {
      "inputs": [],
      "name": "totalSupply",
      "outputs": [
        {
          "internalType": "uint256",
          "name": "",
          "type": "uint256"
        }
      ],
      "stateMutability": "view",
      "type": "function"
    },
    {
      "inputs": [
        {
          "internalType": "address",
          "name": "from",
          "type": "address"
        },
        {
          "internalType": "address",
          "name": "to",
          "type": "address"
        },
        {
          "internalType": "uint256",
          "name": "tokenId",
          "type": "uint256"
        }
      ],
      "name": "transferFrom",
      "outputs": [],
      "stateMutability": "payable",
      "type": "function"
    },
    {
      "inputs": [
        {
          "internalType": "address",
          "name": "newOwner",
          "type": "address"
        }
      ],
      "name": "transferOwnership",
      "outputs": [],
      "stateMutability": "nonpayable",
      "type": "function"
    },
    {
      "inputs": [
        {
          "internalType": "uint256",
          "name": "index",
          "type": "uint256"
        },
        {
          "internalType": "uint80",
          "name": "price",
          "type": "uint80"
        },
        {
          "internalType": "uint32",
          "name": "walletLimit",
          "type": "uint32"
        },
        {
          "internalType": "bytes32",
          "name": "merkleRoot",
          "type": "bytes32"
        },
        {
          "internalType": "uint24",
          "name": "maxStageSupply",
          "type": "uint24"
        },
        {
          "internalType": "uint64",
          "name": "startTimeUnixSeconds",
          "type": "uint64"
        },
        {
          "internalType": "uint64",
          "name": "endTimeUnixSeconds",
          "type": "uint64"
        }
      ],
      "name": "updateStage",
      "outputs": [],
      "stateMutability": "nonpayable",
      "type": "function"
    },
    {
      "inputs": [],
      "name": "withdraw",
      "outputs": [],
      "stateMutability": "nonpayable",
      "type": "function"
    }
  ],
  "transactionHash": "0x754d8e25b8e2b03010178893b50d2a35d97035994ca13524a8e3eb1931295107",
  "args": [
    "Azuki",
    "AZUKI",
    ".json",
    "10000",
    "5",
    "0x0000000000000000000000000000000000000000"
  ],
  "numDeployments": 1,
  "solcInputHash": "2acb4bdac137d3a583dc49c88a23b845",
  "bytecode": "0x60806040523480156200001157600080fd5b506040516200431e3803806200431e8339810160408190526200003491620001f8565b858560026200004483826200034f565b5060036200005382826200034f565b505060008055506200006533620000e1565b6001600955828211156200008c57604051630590c51360e01b815260040160405180910390fd5b600a805460ff19169055600d839055600e829055600f620000ae85826200034f565b50601080546001600160a01b0390921661010002610100600160a81b0319909216919091179055506200041b9350505050565b600880546001600160a01b038381166001600160a01b0319831681179093556040519116919082907f8be0079c531659141344cd1fd0a4f28419497f9722a3daafe3b4186f6b6457e090600090a35050565b634e487b7160e01b600052604160045260246000fd5b600082601f8301126200015b57600080fd5b81516001600160401b038082111562000178576200017862000133565b604051601f8301601f19908116603f01168101908282118183101715620001a357620001a362000133565b81604052838152602092508683858801011115620001c057600080fd5b600091505b83821015620001e45785820183015181830184015290820190620001c5565b600093810190920192909252949350505050565b60008060008060008060c087890312156200021257600080fd5b86516001600160401b03808211156200022a57600080fd5b620002388a838b0162000149565b975060208901519150808211156200024f57600080fd5b6200025d8a838b0162000149565b965060408901519150808211156200027457600080fd5b506200028389828a0162000149565b606089015160808a015160a08b0151929750909550935090506001600160a01b0381168114620002b257600080fd5b809150509295509295509295565b600181811c90821680620002d557607f821691505b602082108103620002f657634e487b7160e01b600052602260045260246000fd5b50919050565b601f8211156200034a57600081815260208120601f850160051c81016020861015620003255750805b601f850160051c820191505b81811015620003465782815560010162000331565b5050505b505050565b81516001600160401b038111156200036b576200036b62000133565b62000383816200037c8454620002c0565b84620002fc565b602080601f831160018114620003bb5760008415620003a25750858301515b600019600386901b1c1916600185901b17855562000346565b600085815260208120601f198616915b82811015620003ec57888601518255948401946001909101908401620003cb565b50858210156200040b5787850151600019600388901b60f8161c191681555b5050505050600190811b01905550565b613ef3806200042b6000396000f3fe6080604052600436106103505760003560e01c8063831c9e2e116101c6578063a9852bfb116100f7578063e985e9c511610095578063efdaa2ec1161006f578063efdaa2ec146109f1578063f2fde38b14610a06578063f698bceb14610a26578063f8d0969614610a3e57600080fd5b8063e985e9c514610975578063ea7ac873146109be578063efb6b11f146109de57600080fd5b8063b7a9fa60116100d1578063b7a9fa6014610900578063b88d4fde14610915578063c23dc68f14610928578063c87b56dd1461095557600080fd5b8063a9852bfb146108a0578063aac5ab1f146108c0578063b50248e7146108e057600080fd5b806397cf84fc116101645780639a3814ab1161013e5780639a3814ab146107cf578063a06c492f1461076f578063a22cb465146107e4578063a3759f601461080457600080fd5b806397cf84fc1461076f578063997556241461078f57806399a2557a146107af57600080fd5b80638da5cb5b116101a05780638da5cb5b146106fe5780638dcdb09d1461071c5780638f9315111461073c57806395d89b411461075a57600080fd5b8063831c9e2e146106915780638462151c146106b1578063896086de146106de57600080fd5b80633ccfd60b116102a057806367808a341161023e57806370da24ee1161021857806370da24ee14610632578063715018a61461064757806373e1607e1461065c57806374d186621461067c57600080fd5b806367808a34146105d25780636e6277b1146105f257806370a082311461061257600080fd5b806355f804b31161027a57806355f804b3146105525780635bbb21771461057257806362acbd9a1461059f5780636352211e146105b257600080fd5b80633ccfd60b1461051557806342842e0e1461052a5780634b1c53b41461053d57600080fd5b8063174f909c1161030d57806323b872dd116102e757806323b872dd1461049f578063285d70d4146104b257806333bbbf06146104d2578063372992e4146104f557600080fd5b8063174f909c1461042e57806318160ddd1461045c5780631ce03eed1461047f57600080fd5b806301ffc9a714610355578063020451381461038a57806306fdde03146103ac578063081812fc146103ce578063095ea7b3146104065780631053a81514610419575b600080fd5b34801561036157600080fd5b5061037561037036600461318e565b610a5e565b60405190151581526020015b60405180910390f35b34801561039657600080fd5b506103aa6103a53660046131c7565b610ab0565b005b3480156103b857600080fd5b506103c1610b15565b6040516103819190613232565b3480156103da57600080fd5b506103ee6103e9366004613245565b610ba7565b6040516001600160a01b039091168152602001610381565b6103aa61041436600461325e565b610beb565b34801561042557600080fd5b506103aa610c8b565b34801561043a57600080fd5b5061044461012c81565b6040516001600160401b039091168152602001610381565b34801561046857600080fd5b50600154600054035b604051908152602001610381565b34801561048b57600080fd5b5061047161049a3660046132b3565b610cdb565b6103aa6104ad3660046132f6565b610e0e565b3480156104be57600080fd5b506103aa6104cd366004613342565b610fa7565b3480156104de57600080fd5b5060105461010090046001600160a01b03166103ee565b34801561050157600080fd5b506103aa610510366004613245565b610ff0565b34801561052157600080fd5b506103aa611050565b6103aa6105383660046132f6565b6110fb565b34801561054957600080fd5b50600d54610471565b34801561055e57600080fd5b506103aa61056d36600461339e565b61111b565b34801561057e57600080fd5b5061059261058d366004613423565b611186565b6040516103819190613494565b6103aa6105ad3660046134d6565b611251565b3480156105be57600080fd5b506103ee6105cd366004613245565b61131e565b3480156105de57600080fd5b506104716105ed36600461357a565b611329565b3480156105fe57600080fd5b5061047161060d36600461325e565b6113f1565b34801561061e57600080fd5b5061047161062d3660046131c7565b61141e565b34801561063e57600080fd5b50601254610471565b34801561065357600080fd5b506103aa61146c565b34801561066857600080fd5b506103aa6106773660046135bf565b611480565b34801561068857600080fd5b50610444603c81565b34801561069d57600080fd5b506103756106ac3660046136d9565b611710565b3480156106bd57600080fd5b506106d16106cc3660046131c7565b61171d565b604051610381919061371f565b3480156106ea57600080fd5b506103aa6106f9366004613245565b611825565b34801561070a57600080fd5b506008546001600160a01b03166103ee565b34801561072857600080fd5b506103aa610737366004613757565b611884565b34801561074857600080fd5b506011546001600160a01b03166103ee565b34801561076657600080fd5b506103c1611d47565b34801561077b57600080fd5b5061047161078a3660046131c7565b611d56565b34801561079b57600080fd5b506103aa6107aa3660046131c7565b611d80565b3480156107bb57600080fd5b506106d16107ca3660046137cb565b611dd6565b3480156107db57600080fd5b50600c54610471565b3480156107f057600080fd5b506103aa6107ff3660046137fe565b611f4d565b34801561081057600080fd5b5061082461081f366004613245565b611fb9565b6040805184516001600160501b0316815260208086015163ffffffff90811691830191909152858301519282019290925260608086015162ffffff16908201526080808601516001600160401b039081169183019190915260a095860151169481019490945290911660c083015260e082015261010001610381565b3480156108ac57600080fd5b506103aa6108bb36600461339e565b6120fd565b3480156108cc57600080fd5b506103aa6108db366004613831565b612112565b3480156108ec57600080fd5b506103aa6108fb36600461385b565b61216b565b34801561090c57600080fd5b506103c16121ad565b6103aa6109233660046138c9565b6121bc565b34801561093457600080fd5b50610948610943366004613245565b612200565b6040516103819190613918565b34801561096157600080fd5b506103c1610970366004613245565b612278565b34801561098157600080fd5b50610375610990366004613926565b6001600160a01b03918216600090815260076020908152604080832093909416825291909152205460ff1690565b3480156109ca57600080fd5b506103756109d93660046136d9565b612381565b6103aa6109ec366004613942565b612397565b3480156109fd57600080fd5b50600e54610471565b348015610a1257600080fd5b506103aa610a213660046131c7565b61240a565b348015610a3257600080fd5b50600a5460ff16610375565b348015610a4a57600080fd5b506103aa610a59366004613245565b612483565b60006301ffc9a760e01b6001600160e01b031983161480610a8f57506380ac58cd60e01b6001600160e01b03198316145b80610aaa5750635b5e139f60e01b6001600160e01b03198316145b92915050565b610ab86124e3565b60108054610100600160a81b0319166101006001600160a01b038416908102919091179091556040519081527faea1573caf7b4fdd079b947d86c1be6c725642c47582f8f9bd2c7d2a30bf0bd9906020015b60405180910390a150565b606060028054610b24906139d5565b80601f0160208091040260200160405190810160405280929190818152602001828054610b50906139d5565b8015610b9d5780601f10610b7257610100808354040283529160200191610b9d565b820191906000526020600020905b815481529060010190602001808311610b8057829003601f168201915b5050505050905090565b6000610bb28261253d565b610bcf576040516333d1c03960e21b815260040160405180910390fd5b506000908152600660205260409020546001600160a01b031690565b6000610bf68261131e565b9050336001600160a01b03821614610c2f57610c128133610990565b610c2f576040516367d9dca160e11b815260040160405180910390fd5b60008281526006602052604080822080546001600160a01b0319166001600160a01b0387811691821790925591518593918516917f8c5be1e5ebec7d5bd14f71427d1e84f3dd0314c0f7b2291e5b200ac8c7c3b92591a4505050565b610c936124e3565b6010805460ff191660011790556040517fc6a6c2b165e62c9d37fc51a18ed76e5be22304bc1d337877c98f31c23e40b0f590610cd190600b90613a0f565b60405180910390a1565b60105460009061010090046001600160a01b0316610d0c576040516353bd4fb360e11b815260040160405180910390fd5b610e04308585601060019054906101000a90046001600160a01b031686610d304690565b610d398b611d56565b604051606097881b6001600160601b0319908116602083015296881b8716603482015260e09590951b6001600160e01b031916604886015292861b909416604c84015260c01b6001600160c01b031916938201939093526068810191909152608881019190915260a8015b60408051601f1981840301815282825280516020918201207f19457468657265756d205369676e6564204d6573736167653a0a33320000000084830152603c8085019190915282518085039091018152605c909301909152815191012090565b90505b9392505050565b6000610e1982612564565b9050836001600160a01b0316816001600160a01b031614610e4c5760405162a1148160e81b815260040160405180910390fd5b60008281526006602052604090208054338082146001600160a01b03881690911417610e9957610e7c8633610990565b610e9957604051632ce44b5f60e11b815260040160405180910390fd5b6001600160a01b038516610ec057604051633a954ecd60e21b815260040160405180910390fd5b8015610ecb57600082555b6001600160a01b038681166000908152600560205260408082208054600019019055918716808252919020805460010190554260a01b17600160e11b17600085815260046020526040812091909155600160e11b84169003610f5d57600184016000818152600460205260408120549003610f5b576000548114610f5b5760008181526004602052604090208490555b505b83856001600160a01b0316876001600160a01b03167fddf252ad1be2c89b69c2b068fc378daa952ba7f163c4a11628f55a4df523b3ef60405160405180910390a45b505050505050565b610faf6124e3565b600a805460ff19168215159081179091556040519081527fe717a2bfc51e250b028aaac5eb448e76f4df26b9609956782bff49097bb792cf90602001610b0a565b610ff86124e3565b600d5481111561101b57604051630590c51360e01b815260040160405180910390fd5b600e8190556040518181527f5307de8ad7d34d5ddfd5171435c143bdc645493980f453eb5d7cdb3e494a1b3590602001610b0a565b6110586124e3565b6040514790600090339083908381818185875af1925050503d806000811461109c576040519150601f19603f3d011682016040523d82523d6000602084013e6110a1565b606091505b50509050806110c357604051631d42c86760e21b815260040160405180910390fd5b6040518281527f5b6b431d4476a211bb7d41c20d1aab9ae2321deee0d20be3d9fc9b1093fa6e3d906020015b60405180910390a15050565b611116838383604051806020016040528060008152506121bc565b505050565b6111236124e3565b60105460ff1615611147576040516306ccad4160e41b815260040160405180910390fd5b600b611154828483613ae0565b507f23c8c9488efebfd474e85a7956de6f39b17c7ab88502d42a623db2d8e382bbaa82826040516110ef929190613b9f565b6060816000816001600160401b038111156111a3576111a3613637565b6040519080825280602002602001820160405280156111f557816020015b6040805160808101825260008082526020808301829052928201819052606082015282526000199092019101816111c15790505b50905060005b8281146112485761122386868381811061121757611217613bce565b90506020020135612200565b82828151811061123557611235613bce565b60209081029190910101526001016111fb565b50949350505050565b6002600954036112a85760405162461bcd60e51b815260206004820152601f60248201527f5265656e7472616e637947756172643a207265656e7472616e742063616c6c0060448201526064015b60405180910390fd5b60026009556011546001600160a01b03166112d657604051637e9f68eb60e11b815260040160405180910390fd5b6011546001600160a01b031633146113015760405163f46fd68360e01b815260040160405180910390fd5b611310878787878787876125cb565b505060016009555050505050565b6000610aaa82612564565b6000805b6012548110156113d7576012818154811061134a5761134a613bce565b60009182526020909120600260039092020101546001600160401b0363010000009091048116908416108015906113ba57506012818154811061138f5761138f613bce565b60009182526020909120600260039092020101546001600160401b03600160581b9091048116908416105b156113c55792915050565b806113cf81613bfa565b91505061132d565b5060405163e82a532960e01b815260040160405180910390fd5b6040516001600160601b0319606084901b16602082015260348101829052600090610e0790605401610da4565b60006001600160a01b038216611447576040516323d3ad8160e21b815260040160405180910390fd5b506001600160a01b03166000908152600560205260409020546001600160401b031690565b6114746124e3565b61147e6000612a36565b565b6114886124e3565b60125487106114aa5760405163e82a532960e01b815260040160405180910390fd5b6001871061153257603c60126114c160018a613c13565b815481106114d1576114d1613bce565b9060005260206000209060030201600201600b9054906101000a90046001600160401b03166115009190613c26565b6001600160401b0316826001600160401b0316101561153257604051636bc1af9360e01b815260040160405180910390fd5b61153c8282612a88565b856012888154811061155057611550613bce565b906000526020600020906003020160000160006101000a8154816001600160501b0302191690836001600160501b03160217905550846012888154811061159957611599613bce565b9060005260206000209060030201600001600a6101000a81548163ffffffff021916908363ffffffff16021790555083601288815481106115dc576115dc613bce565b906000526020600020906003020160010181905550826012888154811061160557611605613bce565b906000526020600020906003020160020160006101000a81548162ffffff021916908362ffffff160217905550816012888154811061164657611646613bce565b906000526020600020906003020160020160036101000a8154816001600160401b0302191690836001600160401b03160217905550806012888154811061168f5761168f613bce565b9060005260206000209060030201600201600b6101000a8154816001600160401b0302191690836001600160401b031602179055507fb3268648542a1bb1b2dd12e3b14aeb5a3ab22c592de96bdd3e842154a5b394fa878787878787876040516116ff9796959493929190613c4d565b60405180910390a150505050505050565b6000610e07338484612abe565b6060600080600061172d8561141e565b90506000816001600160401b0381111561174957611749613637565b604051908082528060200260200182016040528015611772578160200160208202803683370190505b50905061179f60408051608081018252600080825260208201819052918101829052606081019190915290565b60005b838614611819576117b281612c00565b915081604001516118115781516001600160a01b0316156117d257815194505b876001600160a01b0316856001600160a01b031603611811578083878060010198508151811061180457611804613bce565b6020026020010181815250505b6001016117a2565b50909695505050505050565b61182d6124e3565b601254811061184f5760405163e82a532960e01b815260040160405180910390fd5b600c8190556040518181527f160d6de2c069c3adf7f4c1252236d0b325c0e3eb963ddb10c67a81aadf9a305890602001610b0a565b61188c6124e3565b60125460005b818110156119075760128054806118ab576118ab613c9d565b60008281526020812060036000199093019283020180546001600160701b03191681556001810191909155600201805472ffffffffffffffffffffffffffffffffffffff191690559055806118ff81613bfa565b915050611892565b5060005b82811015611d4157600181106119b657603c848461192a600185613c13565b81811061193957611939613bce565b905060c0020160a0016020810190611951919061357a565b61195b9190613c26565b6001600160401b031684848381811061197657611976613bce565b905060c00201608001602081019061198e919061357a565b6001600160401b031610156119b657604051636bc1af9360e01b815260040160405180910390fd5b611a128484838181106119cb576119cb613bce565b905060c0020160800160208101906119e3919061357a565b8585848181106119f5576119f5613bce565b905060c0020160a0016020810190611a0d919061357a565b612a88565b60126040518060c00160405280868685818110611a3157611a31613bce565b611a4792602060c0909202019081019150613cb3565b6001600160501b03168152602001868685818110611a6757611a67613bce565b905060c002016020016020810190611a7f9190613cce565b63ffffffff168152602001868685818110611a9c57611a9c613bce565b905060c00201604001358152602001868685818110611abd57611abd613bce565b905060c002016060016020810190611ad59190613ce9565b62ffffff168152602001868685818110611af157611af1613bce565b905060c002016080016020810190611b09919061357a565b6001600160401b03168152602001868685818110611b2957611b29613bce565b905060c0020160a0016020810190611b41919061357a565b6001600160401b039081169091528254600181810185556000948552602094859020845160039093020180549585015163ffffffff16600160501b026001600160701b03199096166001600160501b0390931692909217949094178155604083015193810193909355606082015160029093018054608084015160a0909401518316600160581b0267ffffffffffffffff60581b19949093166301000000026affffffffffffffffffffff1990911662ffffff9095169490941793909317919091161790557fb3268648542a1bb1b2dd12e3b14aeb5a3ab22c592de96bdd3e842154a5b394fa81858582818110611c3a57611c3a613bce565b611c5092602060c0909202019081019150613cb3565b868685818110611c6257611c62613bce565b905060c002016020016020810190611c7a9190613cce565b878786818110611c8c57611c8c613bce565b905060c0020160400135888887818110611ca857611ca8613bce565b905060c002016060016020810190611cc09190613ce9565b898988818110611cd257611cd2613bce565b905060c002016080016020810190611cea919061357a565b8a8a89818110611cfc57611cfc613bce565b905060c0020160a0016020810190611d14919061357a565b604051611d279796959493929190613c4d565b60405180910390a180611d3981613bfa565b91505061190b565b50505050565b606060038054610b24906139d5565b6001600160a01b038116600090815260056020526040808220546001600160401b03911c16610aaa565b611d886124e3565b601180546001600160a01b0319166001600160a01b0383169081179091556040519081527ff477d93c015f2a73c2ccc5ed37078d12123b80fc5d12e0014c60b913bc1a1ec490602001610b0a565b6060818310611df857604051631960ccad60e11b815260040160405180910390fd5b600080611e0460005490565b905080841115611e12578093505b6000611e1d8761141e565b905084861015611e3c5785850381811015611e36578091505b50611e40565b5060005b6000816001600160401b03811115611e5a57611e5a613637565b604051908082528060200260200182016040528015611e83578160200160208202803683370190505b50905081600003611e99579350610e0792505050565b6000611ea488612200565b905060008160400151611eb5575080515b885b888114158015611ec75750848714155b15611f3c57611ed581612c00565b92508260400151611f345782516001600160a01b031615611ef557825191505b8a6001600160a01b0316826001600160a01b031603611f345780848880600101995081518110611f2757611f27613bce565b6020026020010181815250505b600101611eb7565b505050928352509095945050505050565b3360008181526007602090815260408083206001600160a01b03871680855290835292819020805460ff191686151590811790915590519081529192917f17307eab39ab6107e8899845ad3d59bd9653f200f220920489ca2b5937696c31910160405180910390a35050565b6040805160c081018252600080825260208201819052918101829052606081018290526080810182905260a0810191909152601254600090819084106120305760405162461bcd60e51b815260206004820152600c60248201526b496e76616c6964537461676560a01b604482015260640161129f565b60008481526013602090815260408083203384528252808320548784526014909252909120546012805463ffffffff909316928790811061207357612073613bce565b60009182526020918290206040805160c08101825260039390930290910180546001600160501b0381168452600160501b900463ffffffff169383019390935260018301549082015260029091015462ffffff81166060830152630100000081046001600160401b039081166080840152600160581b9091041660a0820152969195509350915050565b6121056124e3565b600f611116828483613ae0565b61211a6124e3565b8163ffffffff16600d54816121326001546000540390565b61213c9190613d04565b111561215b5760405163800113cb60e01b815260040160405180910390fd5b611116828463ffffffff16612c3c565b6010546121919061010090046001600160a01b031661218b868686610cdb565b83612abe565b611d415760405162b7fad960e11b815260040160405180910390fd5b6060600f8054610b24906139d5565b6121c7848484610e0e565b6001600160a01b0383163b15611d41576121e384848484612c56565b611d41576040516368d2bf6b60e11b815260040160405180910390fd5b60408051608080820183526000808352602080840182905283850182905260608085018390528551938401865282845290830182905293820181905292810183905290915060005483106122545792915050565b61225d83612c00565b905080604001511561226f5792915050565b610e0783612d41565b60606122838261253d565b6122a057604051630a14c4b560e41b815260040160405180910390fd5b6000600b80546122af906139d5565b80601f01602080910402602001604051908101604052809291908181526020018280546122db906139d5565b80156123285780601f106122fd57610100808354040283529160200191612328565b820191906000526020600020905b81548152906001019060200180831161230b57829003601f168201915b50505050509050805160000361234d5760405180602001604052806000815250610e07565b8061235784612d76565b600f60405160200161236b93929190613d17565b6040516020818303038152906040529392505050565b6000610e073361239133866113f1565b84612abe565b6002600954036123e95760405162461bcd60e51b815260206004820152601f60248201527f5265656e7472616e637947756172643a207265656e7472616e742063616c6c00604482015260640161129f565b60026009556123fd863387878787876125cb565b5050600160095550505050565b6124126124e3565b6001600160a01b0381166124775760405162461bcd60e51b815260206004820152602660248201527f4f776e61626c653a206e6577206f776e657220697320746865207a65726f206160448201526564647265737360d01b606482015260840161129f565b61248081612a36565b50565b61248b6124e3565b600d548111156124ae5760405163430b83b160e11b815260040160405180910390fd5b600d8190556040518181527fc7bbc2b288fc13314546ea4aa51f6bcf71b7ba4740beeb3d32e9acef57b6668a90602001610b0a565b6008546001600160a01b0316331461147e5760405162461bcd60e51b815260206004820181905260248201527f4f776e61626c653a2063616c6c6572206973206e6f7420746865206f776e6572604482015260640161129f565b6000805482108015610aaa575050600090815260046020526040902054600160e01b161590565b6000816000548110156125b25760008181526004602052604081205490600160e01b821690036125b0575b80600003610e0757506000190160008181526004602052604090205461258f565b505b604051636f96cda160e11b815260040160405180910390fd5b600a5460ff166125ee57604051630952c8a960e11b815260040160405180910390fd5b8663ffffffff16600d54816126066001546000540390565b6126109190613d04565b111561262f5760405163800113cb60e01b815260040160405180910390fd5b600c5460125481106126545760405163e82a532960e01b815260040160405180910390fd5b6040805160c081018252600080825260208201819052918101829052606081018290526080810182905260a081019190915260105461010090046001600160a01b0316156126f3576126de338b8888888080601f01602080910402602001604051908101604052809392919081815260200183838082843760009201919091525061216b92505050565b6126e786612dba565b6126f086611329565b91505b6012828154811061270657612706613bce565b60009182526020918290206040805160c081018252600390930290910180546001600160501b03811680855263ffffffff600160501b9092048216958501959095526001820154928401929092526002015462ffffff811660608401526001600160401b036301000000820481166080850152600160581b9091041660a083015290925061279791908c1690613db7565b6001600160501b03163410156127c057604051630717c22560e51b815260040160405180910390fd5b606081015162ffffff161561281a57606081015160008381526014602052604090205462ffffff909116906127fc9063ffffffff8d1690613d04565b111561281a5760405162d0844960e21b815260040160405180910390fd5b600e541561288157600e548a63ffffffff166128588b6001600160a01b03166000908152600560205260409081902054901c6001600160401b031690565b6128629190613d04565b11156128815760405163751304ed60e11b815260040160405180910390fd5b602081015163ffffffff16156128f35760208082015160008481526013835260408082206001600160a01b038e168352909352919091205463ffffffff918216916128ce918d9116613de2565b63ffffffff1611156128f35760405163b4f3729b60e01b815260040160405180910390fd5b6040810151156129955780604001516129778989808060200260200160405190810160405280939291908181526020018383602002808284376000920191909152505060405161295c92508e915060200160609190911b6001600160601b031916815260140190565b60405160208183030381529060405280519060200120612e18565b14612995576040516309bde33960e01b815260040160405180910390fd5b60008281526013602090815260408083206001600160a01b038d168452909152812080548c92906129cd90849063ffffffff16613de2565b92506101000a81548163ffffffff021916908363ffffffff1602179055508963ffffffff16601460008481526020019081526020016000206000828254612a149190613d04565b90915550612a2a90508963ffffffff8c16612c3c565b50505050505050505050565b600880546001600160a01b038381166001600160a01b0319831681179093556040519116919082907f8be0079c531659141344cd1fd0a4f28419497f9722a3daafe3b4186f6b6457e090600090a35050565b806001600160401b0316826001600160401b031610612aba57604051631750215560e11b815260040160405180910390fd5b5050565b6000806000612acd8585612e65565b90925090506000816004811115612ae657612ae6613dff565b148015612b045750856001600160a01b0316826001600160a01b0316145b15612b1457600192505050610e07565b600080876001600160a01b0316631626ba7e60e01b8888604051602401612b3c929190613e15565b60408051601f198184030181529181526020820180516001600160e01b03166001600160e01b0319909416939093179092529051612b7a9190613e2e565b600060405180830381855afa9150503d8060008114612bb5576040519150601f19603f3d011682016040523d82523d6000602084013e612bba565b606091505b5091509150818015612bcd575080516020145b8015612bf457508051630b135d3f60e11b90612bf29083016020908101908401613e4a565b145b98975050505050505050565b604080516080810182526000808252602082018190529181018290526060810191909152600082815260046020526040902054610aaa90612eaa565b612aba828260405180602001604052806000815250612ef1565b604051630a85bd0160e11b81526000906001600160a01b0385169063150b7a0290612c8b903390899088908890600401613e63565b6020604051808303816000875af1925050508015612cc6575060408051601f3d908101601f19168201909252612cc391810190613ea0565b60015b612d24573d808015612cf4576040519150601f19603f3d011682016040523d82523d6000602084013e612cf9565b606091505b508051600003612d1c576040516368d2bf6b60e11b815260040160405180910390fd5b805181602001fd5b6001600160e01b031916630a85bd0160e11b149050949350505050565b604080516080810182526000808252602082018190529181018290526060810191909152610aaa612d7183612564565b612eaa565b606060a06040510180604052602081039150506000815280825b600183039250600a81066030018353600a900480612d905750819003601f19909101908152919050565b6011546000906001600160a01b03163314612dd657603c612dda565b61012c5b9050612def6001600160401b03821642613c13565b826001600160401b03161015612aba576040516313634e8d60e11b815260040160405180910390fd5b600081815b8451811015612e5d57612e4982868381518110612e3c57612e3c613bce565b6020026020010151612f5e565b915080612e5581613bfa565b915050612e1d565b509392505050565b6000808251604103612e9b5760208301516040840151606085015160001a612e8f87828585612f8d565b94509450505050612ea3565b506000905060025b9250929050565b604080516080810182526001600160a01b038316815260a083901c6001600160401b03166020820152600160e01b831615159181019190915260e89190911c606082015290565b612efb838361307a565b6001600160a01b0383163b15611116576000548281035b612f256000868380600101945086612c56565b612f42576040516368d2bf6b60e11b815260040160405180910390fd5b818110612f12578160005414612f5757600080fd5b5050505050565b6000818310612f7a576000828152602084905260409020610e07565b6000838152602083905260409020610e07565b6000807f7fffffffffffffffffffffffffffffff5d576e7357a4501ddfe92f46681b20a0831115612fc45750600090506003613071565b8460ff16601b14158015612fdc57508460ff16601c14155b15612fed5750600090506004613071565b6040805160008082526020820180845289905260ff881692820192909252606081018690526080810185905260019060a0016020604051602081039080840390855afa158015613041573d6000803e3d6000fd5b5050604051601f1901519150506001600160a01b03811661306a57600060019250925050613071565b9150600090505b94509492505050565b600080549082900361309f5760405163b562e8dd60e01b815260040160405180910390fd5b6001600160a01b03831660008181526005602090815260408083208054680100000000000000018802019055848352600490915281206001851460e11b4260a01b178317905582840190839083907fddf252ad1be2c89b69c2b068fc378daa952ba7f163c4a11628f55a4df523b3ef8180a4600183015b81811461314e57808360007fddf252ad1be2c89b69c2b068fc378daa952ba7f163c4a11628f55a4df523b3ef600080a4600101613116565b508160000361316f57604051622e076360e81b815260040160405180910390fd5b60005550505050565b6001600160e01b03198116811461248057600080fd5b6000602082840312156131a057600080fd5b8135610e0781613178565b80356001600160a01b03811681146131c257600080fd5b919050565b6000602082840312156131d957600080fd5b610e07826131ab565b60005b838110156131fd5781810151838201526020016131e5565b50506000910152565b6000815180845261321e8160208601602086016131e2565b601f01601f19169290920160200192915050565b602081526000610e076020830184613206565b60006020828403121561325757600080fd5b5035919050565b6000806040838503121561327157600080fd5b61327a836131ab565b946020939093013593505050565b803563ffffffff811681146131c257600080fd5b80356001600160401b03811681146131c257600080fd5b6000806000606084860312156132c857600080fd5b6132d1846131ab565b92506132df60208501613288565b91506132ed6040850161329c565b90509250925092565b60008060006060848603121561330b57600080fd5b613314846131ab565b9250613322602085016131ab565b9150604084013590509250925092565b803580151581146131c257600080fd5b60006020828403121561335457600080fd5b610e0782613332565b60008083601f84011261336f57600080fd5b5081356001600160401b0381111561338657600080fd5b602083019150836020828501011115612ea357600080fd5b600080602083850312156133b157600080fd5b82356001600160401b038111156133c757600080fd5b6133d38582860161335d565b90969095509350505050565b60008083601f8401126133f157600080fd5b5081356001600160401b0381111561340857600080fd5b6020830191508360208260051b8501011115612ea357600080fd5b6000806020838503121561343657600080fd5b82356001600160401b0381111561344c57600080fd5b6133d3858286016133df565b80516001600160a01b031682526020808201516001600160401b03169083015260408082015115159083015260609081015162ffffff16910152565b6020808252825182820181905260009190848201906040850190845b81811015611819576134c3838551613458565b92840192608092909201916001016134b0565b600080600080600080600060a0888a0312156134f157600080fd5b6134fa88613288565b9650613508602089016131ab565b955060408801356001600160401b038082111561352457600080fd5b6135308b838c016133df565b909750955085915061354460608b0161329c565b945060808a013591508082111561355a57600080fd5b506135678a828b0161335d565b989b979a50959850939692959293505050565b60006020828403121561358c57600080fd5b610e078261329c565b80356001600160501b03811681146131c257600080fd5b803562ffffff811681146131c257600080fd5b600080600080600080600060e0888a0312156135da57600080fd5b873596506135ea60208901613595565b95506135f860408901613288565b94506060880135935061360d608089016135ac565b925061361b60a0890161329c565b915061362960c0890161329c565b905092959891949750929550565b634e487b7160e01b600052604160045260246000fd5b600082601f83011261365e57600080fd5b81356001600160401b038082111561367857613678613637565b604051601f8301601f19908116603f011681019082821181831017156136a0576136a0613637565b816040528381528660208588010111156136b957600080fd5b836020870160208301376000602085830101528094505050505092915050565b600080604083850312156136ec57600080fd5b8235915060208301356001600160401b0381111561370957600080fd5b6137158582860161364d565b9150509250929050565b6020808252825182820181905260009190848201906040850190845b818110156118195783518352928401929184019160010161373b565b6000806020838503121561376a57600080fd5b82356001600160401b038082111561378157600080fd5b818501915085601f83011261379557600080fd5b8135818111156137a457600080fd5b86602060c0830285010111156137b957600080fd5b60209290920196919550909350505050565b6000806000606084860312156137e057600080fd5b6137e9846131ab565b95602085013595506040909401359392505050565b6000806040838503121561381157600080fd5b61381a836131ab565b915061382860208401613332565b90509250929050565b6000806040838503121561384457600080fd5b61384d83613288565b9150613828602084016131ab565b6000806000806080858703121561387157600080fd5b61387a856131ab565b935061388860208601613288565b92506138966040860161329c565b915060608501356001600160401b038111156138b157600080fd5b6138bd8782880161364d565b91505092959194509250565b600080600080608085870312156138df57600080fd5b6138e8856131ab565b93506138f6602086016131ab565b92506040850135915060608501356001600160401b038111156138b157600080fd5b60808101610aaa8284613458565b6000806040838503121561393957600080fd5b61384d836131ab565b6000806000806000806080878903121561395b57600080fd5b61396487613288565b955060208701356001600160401b038082111561398057600080fd5b61398c8a838b016133df565b90975095508591506139a060408a0161329c565b945060608901359150808211156139b657600080fd5b506139c389828a0161335d565b979a9699509497509295939492505050565b600181811c908216806139e957607f821691505b602082108103613a0957634e487b7160e01b600052602260045260246000fd5b50919050565b6000602080835260008454613a23816139d5565b80848701526040600180841660008114613a445760018114613a5e57613a8c565b60ff1985168984015283151560051b890183019550613a8c565b896000528660002060005b85811015613a845781548b8201860152908301908801613a69565b8a0184019650505b509398975050505050505050565b601f82111561111657600081815260208120601f850160051c81016020861015613ac15750805b601f850160051c820191505b81811015610f9f57828155600101613acd565b6001600160401b03831115613af757613af7613637565b613b0b83613b0583546139d5565b83613a9a565b6000601f841160018114613b3f5760008515613b275750838201355b600019600387901b1c1916600186901b178355612f57565b600083815260209020601f19861690835b82811015613b705786850135825560209485019460019092019101613b50565b5086821015613b8d5760001960f88860031b161c19848701351681555b505060018560011b0183555050505050565b60208152816020820152818360408301376000818301604090810191909152601f909201601f19160101919050565b634e487b7160e01b600052603260045260246000fd5b634e487b7160e01b600052601160045260246000fd5b600060018201613c0c57613c0c613be4565b5060010190565b81810381811115610aaa57610aaa613be4565b6001600160401b03818116838216019080821115613c4657613c46613be4565b5092915050565b9687526001600160501b0395909516602087015263ffffffff939093166040860152606085019190915262ffffff1660808401526001600160401b0390811660a08401521660c082015260e00190565b634e487b7160e01b600052603160045260246000fd5b600060208284031215613cc557600080fd5b610e0782613595565b600060208284031215613ce057600080fd5b610e0782613288565b600060208284031215613cfb57600080fd5b610e07826135ac565b80820180821115610aaa57610aaa613be4565b600084516020613d2a8285838a016131e2565b855191840191613d3d8184848a016131e2565b8554920191600090613d4e816139d5565b60018281168015613d665760018114613d7b57613da7565b60ff1984168752821515830287019450613da7565b896000528560002060005b84811015613d9f57815489820152908301908701613d86565b505082870194505b50929a9950505050505050505050565b6001600160501b03818116838216028082169190828114613dda57613dda613be4565b505092915050565b63ffffffff818116838216019080821115613c4657613c46613be4565b634e487b7160e01b600052602160045260246000fd5b828152604060208201526000610e046040830184613206565b60008251613e408184602087016131e2565b9190910192915050565b600060208284031215613e5c57600080fd5b5051919050565b6001600160a01b0385811682528416602082015260408101839052608060608201819052600090613e9690830184613206565b9695505050505050565b600060208284031215613eb257600080fd5b8151610e078161317856fea2646970667358221220798db08bb94687017f771fa49e152da7ee0ebe4cf2b9e1965cffb1b653620b6c64736f6c63430008110033",
  "devdoc": {
    "kind": "dev",
    "methods": {
      "approve(address,uint256)": {
        "details": "Gives permission to `to` to transfer `tokenId` token to another account. The approval is cleared when the token is transferred. Only a single account can be approved at a time, so approving the zero address clears previous approvals. Requirements: - The caller must own the token or be an approved operator. - `tokenId` must exist. Emits an {Approval} event."
      },
      "balanceOf(address)": {
        "details": "Returns the number of tokens in `owner`'s account."
      },
      "explicitOwnershipOf(uint256)": {
        "details": "Returns the `TokenOwnership` struct at `tokenId` without reverting. If the `tokenId` is out of bounds: - `addr = address(0)` - `startTimestamp = 0` - `burned = false` - `extraData = 0` If the `tokenId` is burned: - `addr = <Address of owner before token was burned>` - `startTimestamp = <Timestamp when token was burned>` - `burned = true` - `extraData = <Extra data when token was burned>` Otherwise: - `addr = <Address of owner>` - `startTimestamp = <Timestamp of start of ownership>` - `burned = false` - `extraData = <Extra data at start of ownership>`"
      },
      "explicitOwnershipsOf(uint256[])": {
        "details": "Returns an array of `TokenOwnership` structs at `tokenIds` in order. See {ERC721AQueryable-explicitOwnershipOf}"
      },
      "getApproved(uint256)": {
        "details": "Returns the account approved for `tokenId` token. Requirements: - `tokenId` must exist."
      },
      "isApprovedForAll(address,address)": {
        "details": "Returns if the `operator` is allowed to manage all of the assets of `owner`. See {setApprovalForAll}."
      },
      "name()": {
        "details": "Returns the token collection name."
      },
      "owner()": {
        "details": "Returns the address of the current owner."
      },
      "ownerOf(uint256)": {
        "details": "Returns the owner of the `tokenId` token. Requirements: - `tokenId` must exist."
      },
      "renounceOwnership()": {
        "details": "Leaves the contract without owner. It will not be possible to call `onlyOwner` functions anymore. Can only be called by the current owner. NOTE: Renouncing ownership will leave the contract without an owner, thereby removing any functionality that is only available to the owner."
      },
      "safeTransferFrom(address,address,uint256)": {
        "details": "Equivalent to `safeTransferFrom(from, to, tokenId, '')`."
      },
      "safeTransferFrom(address,address,uint256,bytes)": {
        "details": "Safely transfers `tokenId` token from `from` to `to`. Requirements: - `from` cannot be the zero address. - `to` cannot be the zero address. - `tokenId` token must exist and be owned by `from`. - If the caller is not `from`, it must be approved to move this token by either {approve} or {setApprovalForAll}. - If `to` refers to a smart contract, it must implement {IERC721Receiver-onERC721Received}, which is called upon a safe transfer. Emits a {Transfer} event."
      },
      "setApprovalForAll(address,bool)": {
        "details": "Approve or remove `operator` as an operator for the caller. Operators can call {transferFrom} or {safeTransferFrom} for any token owned by the caller. Requirements: - The `operator` cannot be the caller. Emits an {ApprovalForAll} event."
      },
      "supportsInterface(bytes4)": {
        "details": "Returns true if this contract implements the interface defined by `interfaceId`. See the corresponding [EIP section](https://eips.ethereum.org/EIPS/eip-165#how-interfaces-are-identified) to learn more about how these ids are created. This function call must use less than 30000 gas."
      },
      "symbol()": {
        "details": "Returns the token collection symbol."
      },
      "tokensOfOwner(address)": {
        "details": "Returns an array of token IDs owned by `owner`. This function scans the ownership mapping and is O(`totalSupply`) in complexity. It is meant to be called off-chain. See {ERC721AQueryable-tokensOfOwnerIn} for splitting the scan into multiple smaller scans if the collection is large enough to cause an out-of-gas error (10K collections should be fine)."
      },
      "tokensOfOwnerIn(address,uint256,uint256)": {
        "details": "Returns an array of token IDs owned by `owner`, in the range [`start`, `stop`) (i.e. `start <= tokenId < stop`). This function allows for tokens to be queried if the collection grows too big for a single call of {ERC721AQueryable-tokensOfOwner}. Requirements: - `start < stop`"
      },
      "totalSupply()": {
        "details": "Returns the total number of tokens in existence. Burned tokens will reduce the count. To get the total number of tokens minted, please see {_totalMinted}."
      },
      "transferFrom(address,address,uint256)": {
        "details": "Transfers `tokenId` from `from` to `to`. Requirements: - `from` cannot be the zero address. - `to` cannot be the zero address. - `tokenId` token must be owned by `from`. - If the caller is not `from`, it must be approved to move this token by either {approve} or {setApprovalForAll}. Emits a {Transfer} event."
      },
      "transferOwnership(address)": {
        "details": "Transfers ownership of the contract to a new account (`newOwner`). Can only be called by the current owner."
      }
    },
    "version": 1
  },
  "userdoc": {
    "errors": {
      "ApprovalCallerNotOwnerNorApproved()": [
        {
          "notice": "The caller must own the token or be an approved operator."
        }
      ],
      "ApprovalQueryForNonexistentToken()": [
        {
          "notice": "The token does not exist."
        }
      ],
      "BalanceQueryForZeroAddress()": [
        {
          "notice": "Cannot query the balance for the zero address."
        }
      ],
      "InvalidQueryRange()": [
        {
          "notice": "Invalid query range (`start` >= `stop`)."
        }
      ],
      "MintERC2309QuantityExceedsLimit()": [
        {
          "notice": "The `quantity` minted with ERC2309 exceeds the safety limit."
        }
      ],
      "MintToZeroAddress()": [
        {
          "notice": "Cannot mint to the zero address."
        }
      ],
      "MintZeroQuantity()": [
        {
          "notice": "The quantity of tokens minted must be more than zero."
        }
      ],
      "OwnerQueryForNonexistentToken()": [
        {
          "notice": "The token does not exist."
        }
      ],
      "OwnershipNotInitializedForExtraData()": [
        {
          "notice": "The `extraData` cannot be set on an unintialized ownership slot."
        }
      ],
      "TransferCallerNotOwnerNorApproved()": [
        {
          "notice": "The caller must own the token or be an approved operator."
        }
      ],
      "TransferFromIncorrectOwner()": [
        {
          "notice": "The token must be owned by `from`."
        }
      ],
      "TransferToNonERC721ReceiverImplementer()": [
        {
          "notice": "Cannot safely transfer to a contract that does not implement the ERC721Receiver interface."
        }
      ],
      "TransferToZeroAddress()": [
        {
          "notice": "Cannot transfer to the zero address."
        }
      ],
      "URIQueryForNonexistentToken()": [
        {
          "notice": "The token does not exist."
        }
      ]
    },
    "kind": "user",
    "methods": {},
    "version": 1
  },
  "storageLayout": {
    "storage": [
      {
        "astId": 3222,
        "contract": "contracts/ERC721I.sol:ERC721I",
        "label": "_currentIndex",
        "offset": 0,
        "slot": "0",
        "type": "t_uint256"
      },
      {
        "astId": 3224,
        "contract": "contracts/ERC721I.sol:ERC721I",
        "label": "_burnCounter",
        "offset": 0,
        "slot": "1",
        "type": "t_uint256"
      },
      {
        "astId": 3226,
        "contract": "contracts/ERC721I.sol:ERC721I",
        "label": "_name",
        "offset": 0,
        "slot": "2",
        "type": "t_string_storage"
      },
      {
        "astId": 3228,
        "contract": "contracts/ERC721I.sol:ERC721I",
        "label": "_symbol",
        "offset": 0,
        "slot": "3",
        "type": "t_string_storage"
      },
      {
        "astId": 3232,
        "contract": "contracts/ERC721I.sol:ERC721I",
        "label": "_packedOwnerships",
        "offset": 0,
        "slot": "4",
        "type": "t_mapping(t_uint256,t_uint256)"
      },
      {
        "astId": 3236,
        "contract": "contracts/ERC721I.sol:ERC721I",
        "label": "_packedAddressData",
        "offset": 0,
        "slot": "5",
        "type": "t_mapping(t_address,t_uint256)"
      },
      {
        "astId": 3241,
        "contract": "contracts/ERC721I.sol:ERC721I",
        "label": "_tokenApprovals",
        "offset": 0,
        "slot": "6",
        "type": "t_mapping(t_uint256,t_struct(TokenApprovalRef)3154_storage)"
      },
      {
        "astId": 3247,
        "contract": "contracts/ERC721I.sol:ERC721I",
        "label": "_operatorApprovals",
        "offset": 0,
        "slot": "7",
        "type": "t_mapping(t_address,t_mapping(t_address,t_bool))"
      },
      {
        "astId": 7,
        "contract": "contracts/ERC721I.sol:ERC721I",
        "label": "_owner",
        "offset": 0,
        "slot": "8",
        "type": "t_address"
      },
      {
        "astId": 137,
        "contract": "contracts/ERC721I.sol:ERC721I",
        "label": "_status",
        "offset": 0,
        "slot": "9",
        "type": "t_uint256"
      },
      {
        "astId": 1710,
        "contract": "contracts/ERC721I.sol:ERC721I",
        "label": "_mintable",
        "offset": 0,
        "slot": "10",
        "type": "t_bool"
      },
      {
        "astId": 1712,
        "contract": "contracts/ERC721I.sol:ERC721I",
        "label": "_currentBaseURI",
        "offset": 0,
        "slot": "11",
        "type": "t_string_storage"
      },
      {
        "astId": 1714,
        "contract": "contracts/ERC721I.sol:ERC721I",
        "label": "_activeStage",
        "offset": 0,
        "slot": "12",
        "type": "t_uint256"
      },
      {
        "astId": 1716,
        "contract": "contracts/ERC721I.sol:ERC721I",
        "label": "_maxMintableSupply",
        "offset": 0,
        "slot": "13",
        "type": "t_uint256"
      },
      {
        "astId": 1718,
        "contract": "contracts/ERC721I.sol:ERC721I",
        "label": "_globalWalletLimit",
        "offset": 0,
        "slot": "14",
        "type": "t_uint256"
      },
      {
        "astId": 1720,
        "contract": "contracts/ERC721I.sol:ERC721I",
        "label": "_tokenURISuffix",
        "offset": 0,
        "slot": "15",
        "type": "t_string_storage"
      },
      {
        "astId": 1722,
        "contract": "contracts/ERC721I.sol:ERC721I",
        "label": "_baseURIPermanent",
        "offset": 0,
        "slot": "16",
        "type": "t_bool"
      },
      {
        "astId": 1724,
        "contract": "contracts/ERC721I.sol:ERC721I",
        "label": "_cosigner",
        "offset": 1,
        "slot": "16",
        "type": "t_address"
      },
      {
        "astId": 1726,
        "contract": "contracts/ERC721I.sol:ERC721I",
        "label": "_crossmintAddress",
        "offset": 0,
        "slot": "17",
        "type": "t_address"
      },
      {
        "astId": 1730,
        "contract": "contracts/ERC721I.sol:ERC721I",
        "label": "_mintStages",
        "offset": 0,
        "slot": "18",
        "type": "t_array(t_struct(MintStageInfo)3000_storage)dyn_storage"
      },
      {
        "astId": 1736,
        "contract": "contracts/ERC721I.sol:ERC721I",
        "label": "_stageMintedCountsPerWallet",
        "offset": 0,
        "slot": "19",
        "type": "t_mapping(t_uint256,t_mapping(t_address,t_uint32))"
      },
      {
        "astId": 1740,
        "contract": "contracts/ERC721I.sol:ERC721I",
        "label": "_stageMintedCounts",
        "offset": 0,
        "slot": "20",
        "type": "t_mapping(t_uint256,t_uint256)"
      }
    ],
    "types": {
      "t_address": {
        "encoding": "inplace",
        "label": "address",
        "numberOfBytes": "20"
      },
      "t_array(t_struct(MintStageInfo)3000_storage)dyn_storage": {
        "base": "t_struct(MintStageInfo)3000_storage",
        "encoding": "dynamic_array",
        "label": "struct IERC721I.MintStageInfo[]",
        "numberOfBytes": "32"
      },
      "t_bool": {
        "encoding": "inplace",
        "label": "bool",
        "numberOfBytes": "1"
      },
      "t_bytes32": {
        "encoding": "inplace",
        "label": "bytes32",
        "numberOfBytes": "32"
      },
      "t_mapping(t_address,t_bool)": {
        "encoding": "mapping",
        "key": "t_address",
        "label": "mapping(address => bool)",
        "numberOfBytes": "32",
        "value": "t_bool"
      },
      "t_mapping(t_address,t_mapping(t_address,t_bool))": {
        "encoding": "mapping",
        "key": "t_address",
        "label": "mapping(address => mapping(address => bool))",
        "numberOfBytes": "32",
        "value": "t_mapping(t_address,t_bool)"
      },
      "t_mapping(t_address,t_uint256)": {
        "encoding": "mapping",
        "key": "t_address",
        "label": "mapping(address => uint256)",
        "numberOfBytes": "32",
        "value": "t_uint256"
      },
      "t_mapping(t_address,t_uint32)": {
        "encoding": "mapping",
        "key": "t_address",
        "label": "mapping(address => uint32)",
        "numberOfBytes": "32",
        "value": "t_uint32"
      },
      "t_mapping(t_uint256,t_mapping(t_address,t_uint32))": {
        "encoding": "mapping",
        "key": "t_uint256",
        "label": "mapping(uint256 => mapping(address => uint32))",
        "numberOfBytes": "32",
        "value": "t_mapping(t_address,t_uint32)"
      },
      "t_mapping(t_uint256,t_struct(TokenApprovalRef)3154_storage)": {
        "encoding": "mapping",
        "key": "t_uint256",
        "label": "mapping(uint256 => struct ERC721A.TokenApprovalRef)",
        "numberOfBytes": "32",
        "value": "t_struct(TokenApprovalRef)3154_storage"
      },
      "t_mapping(t_uint256,t_uint256)": {
        "encoding": "mapping",
        "key": "t_uint256",
        "label": "mapping(uint256 => uint256)",
        "numberOfBytes": "32",
        "value": "t_uint256"
      },
      "t_string_storage": {
        "encoding": "bytes",
        "label": "string",
        "numberOfBytes": "32"
      },
      "t_struct(MintStageInfo)3000_storage": {
        "encoding": "inplace",
        "label": "struct IERC721I.MintStageInfo",
        "members": [
          {
            "astId": 2989,
            "contract": "contracts/ERC721I.sol:ERC721I",
            "label": "price",
            "offset": 0,
            "slot": "0",
            "type": "t_uint80"
          },
          {
            "astId": 2991,
            "contract": "contracts/ERC721I.sol:ERC721I",
            "label": "walletLimit",
            "offset": 10,
            "slot": "0",
            "type": "t_uint32"
          },
          {
            "astId": 2993,
            "contract": "contracts/ERC721I.sol:ERC721I",
            "label": "merkleRoot",
            "offset": 0,
            "slot": "1",
            "type": "t_bytes32"
          },
          {
            "astId": 2995,
            "contract": "contracts/ERC721I.sol:ERC721I",
            "label": "maxStageSupply",
            "offset": 0,
            "slot": "2",
            "type": "t_uint24"
          },
          {
            "astId": 2997,
            "contract": "contracts/ERC721I.sol:ERC721I",
            "label": "startTimeUnixSeconds",
            "offset": 3,
            "slot": "2",
            "type": "t_uint64"
          },
          {
            "astId": 2999,
            "contract": "contracts/ERC721I.sol:ERC721I",
            "label": "endTimeUnixSeconds",
            "offset": 11,
            "slot": "2",
            "type": "t_uint64"
          }
        ],
        "numberOfBytes": "96"
      },
      "t_struct(TokenApprovalRef)3154_storage": {
        "encoding": "inplace",
        "label": "struct ERC721A.TokenApprovalRef",
        "members": [
          {
            "astId": 3153,
            "contract": "contracts/ERC721I.sol:ERC721I",
            "label": "value",
            "offset": 0,
            "slot": "0",
            "type": "t_address"
          }
        ],
        "numberOfBytes": "32"
      },
      "t_uint24": {
        "encoding": "inplace",
        "label": "uint24",
        "numberOfBytes": "3"
      },
      "t_uint256": {
        "encoding": "inplace",
        "label": "uint256",
        "numberOfBytes": "32"
      },
      "t_uint32": {
        "encoding": "inplace",
        "label": "uint32",
        "numberOfBytes": "4"
      },
      "t_uint64": {
        "encoding": "inplace",
        "label": "uint64",
        "numberOfBytes": "8"
      },
      "t_uint80": {
        "encoding": "inplace",
        "label": "uint80",
        "numberOfBytes": "10"
      }
    }
  }
}