{
  "address": "0x56412040BD2346D37414b27e28da0311A256d15A",
  "abi": [
    {
      "inputs": [
        {
          "internalType": "string",
          "name": "collectionName",
          "type": "string"
        },
        {
          "internalType": "string",
          "name": "collectionSymbol",
          "type": "string"
        },
        {
          "internalType": "string",
          "name": "tokenURISuffix",
          "type": "string"
        },
        {
          "internalType": "uint256",
          "name": "maxMintableSupply",
          "type": "uint256"
        },
        {
          "internalType": "uint256",
          "name": "globalWalletLimit",
          "type": "uint256"
        },
        {
          "internalType": "address",
          "name": "cosigner",
          "type": "address"
        },
        {
          "internalType": "uint256",
          "name": "minimumContributionInWei",
          "type": "uint256"
        },
        {
          "internalType": "uint64",
          "name": "startTimeUnixSeconds",
          "type": "uint64"
        },
        {
          "internalType": "uint64",
          "name": "endTimeUnixSeconds",
          "type": "uint64"
        }
      ],
      "stateMutability": "nonpayable",
      "type": "constructor"
    },
    {
      "inputs": [],
      "name": "AlreadySentTokensToUser",
      "type": "error"
    },
    {
      "inputs": [],
      "name": "ApprovalCallerNotOwnerNorApproved",
      "type": "error"
    },
    {
      "inputs": [],
      "name": "ApprovalQueryForNonexistentToken",
      "type": "error"
    },
    {
      "inputs": [],
      "name": "BalanceQueryForZeroAddress",
      "type": "error"
    },
    {
      "inputs": [],
      "name": "BucketAuctionActive",
      "type": "error"
    },
    {
      "inputs": [],
      "name": "BucketAuctionNotActive",
      "type": "error"
    },
    {
      "inputs": [],
      "name": "CannotIncreaseMaxMintableSupply",
      "type": "error"
    },
    {
      "inputs": [],
      "name": "CannotSendMoreThanUserPurchased",
      "type": "error"
    },
    {
      "inputs": [],
      "name": "CannotSetPriceIfClaimable",
      "type": "error"
    },
    {
      "inputs": [],
      "name": "CannotSetPriceIfFirstTokenSent",
      "type": "error"
    },
    {
      "inputs": [],
      "name": "CannotUpdatePermanentBaseURI",
      "type": "error"
    },
    {
      "inputs": [],
      "name": "CosignerNotSet",
      "type": "error"
    },
    {
      "inputs": [],
      "name": "CrossmintAddressNotSet",
      "type": "error"
    },
    {
      "inputs": [],
      "name": "CrossmintOnly",
      "type": "error"
    },
    {
      "inputs": [],
      "name": "GlobalWalletLimitOverflow",
      "type": "error"
    },
    {
      "inputs": [],
      "name": "InsufficientStageTimeGap",
      "type": "error"
    },
    {
      "inputs": [],
      "name": "InvalidCosignSignature",
      "type": "error"
    },
    {
      "inputs": [],
      "name": "InvalidProof",
      "type": "error"
    },
    {
      "inputs": [],
      "name": "InvalidQueryRange",
      "type": "error"
    },
    {
      "inputs": [],
      "name": "InvalidStage",
      "type": "error"
    },
    {
      "inputs": [],
      "name": "InvalidStageArgsLength",
      "type": "error"
    },
    {
      "inputs": [],
      "name": "InvalidStartAndEndTimestamp",
      "type": "error"
    },
    {
      "inputs": [],
      "name": "LowerThanMinBidAmount",
      "type": "error"
    },
    {
      "inputs": [],
      "name": "MintERC2309QuantityExceedsLimit",
      "type": "error"
    },
    {
      "inputs": [],
      "name": "MintToZeroAddress",
      "type": "error"
    },
    {
      "inputs": [],
      "name": "MintZeroQuantity",
      "type": "error"
    },
    {
      "inputs": [],
      "name": "NoSupplyLeft",
      "type": "error"
    },
    {
      "inputs": [],
      "name": "NotClaimable",
      "type": "error"
    },
    {
      "inputs": [],
      "name": "NotEnoughValue",
      "type": "error"
    },
    {
      "inputs": [],
      "name": "NotMintable",
      "type": "error"
    },
    {
      "inputs": [],
      "name": "OwnerQueryForNonexistentToken",
      "type": "error"
    },
    {
      "inputs": [],
      "name": "OwnershipNotInitializedForExtraData",
      "type": "error"
    },
    {
      "inputs": [],
      "name": "PriceHasBeenSet",
      "type": "error"
    },
    {
      "inputs": [],
      "name": "PriceNotSet",
      "type": "error"
    },
    {
      "inputs": [],
      "name": "StageSupplyExceeded",
      "type": "error"
    },
    {
      "inputs": [],
      "name": "TimestampExpired",
      "type": "error"
    },
    {
      "inputs": [],
      "name": "TransferCallerNotOwnerNorApproved",
      "type": "error"
    },
    {
      "inputs": [],
      "name": "TransferFailed",
      "type": "error"
    },
    {
      "inputs": [],
      "name": "TransferFromIncorrectOwner",
      "type": "error"
    },
    {
      "inputs": [],
      "name": "TransferToNonERC721ReceiverImplementer",
      "type": "error"
    },
    {
      "inputs": [],
      "name": "TransferToZeroAddress",
      "type": "error"
    },
    {
      "inputs": [],
      "name": "URIQueryForNonexistentToken",
      "type": "error"
    },
    {
      "inputs": [],
      "name": "UserAlreadyClaimed",
      "type": "error"
    },
    {
      "inputs": [],
      "name": "WalletGlobalLimitExceeded",
      "type": "error"
    },
    {
      "inputs": [],
      "name": "WalletStageLimitExceeded",
      "type": "error"
    },
    {
      "inputs": [],
      "name": "WithdrawFailed",
      "type": "error"
    },
    {
      "anonymous": false,
      "inputs": [
        {
          "indexed": true,
          "internalType": "address",
          "name": "owner",
          "type": "address"
        },
        {
          "indexed": true,
          "internalType": "address",
          "name": "approved",
          "type": "address"
        },
        {
          "indexed": true,
          "internalType": "uint256",
          "name": "tokenId",
          "type": "uint256"
        }
      ],
      "name": "Approval",
      "type": "event"
    },
    {
      "anonymous": false,
      "inputs": [
        {
          "indexed": true,
          "internalType": "address",
          "name": "owner",
          "type": "address"
        },
        {
          "indexed": true,
          "internalType": "address",
          "name": "operator",
          "type": "address"
        },
        {
          "indexed": false,
          "internalType": "bool",
          "name": "approved",
          "type": "bool"
        }
      ],
      "name": "ApprovalForAll",
      "type": "event"
    },
    {
      "anonymous": false,
      "inputs": [
        {
          "indexed": true,
          "internalType": "address",
          "name": "bidder",
          "type": "address"
        },
        {
          "indexed": false,
          "internalType": "uint256",
          "name": "bidAmount",
          "type": "uint256"
        },
        {
          "indexed": false,
          "internalType": "uint256",
          "name": "bidderTotal",
          "type": "uint256"
        },
        {
          "indexed": false,
          "internalType": "uint256",
          "name": "bucketTotal",
          "type": "uint256"
        }
      ],
      "name": "Bid",
      "type": "event"
    },
    {
      "anonymous": false,
      "inputs": [
        {
          "indexed": true,
          "internalType": "uint256",
          "name": "fromTokenId",
          "type": "uint256"
        },
        {
          "indexed": false,
          "internalType": "uint256",
          "name": "toTokenId",
          "type": "uint256"
        },
        {
          "indexed": true,
          "internalType": "address",
          "name": "from",
          "type": "address"
        },
        {
          "indexed": true,
          "internalType": "address",
          "name": "to",
          "type": "address"
        }
      ],
      "name": "ConsecutiveTransfer",
      "type": "event"
    },
    {
      "anonymous": false,
      "inputs": [
        {
          "indexed": true,
          "internalType": "address",
          "name": "previousOwner",
          "type": "address"
        },
        {
          "indexed": true,
          "internalType": "address",
          "name": "newOwner",
          "type": "address"
        }
      ],
      "name": "OwnershipTransferred",
      "type": "event"
    },
    {
      "anonymous": false,
      "inputs": [
        {
          "indexed": false,
          "internalType": "string",
          "name": "baseURI",
          "type": "string"
        }
      ],
      "name": "PermanentBaseURI",
      "type": "event"
    },
    {
      "anonymous": false,
      "inputs": [
        {
          "indexed": false,
          "internalType": "uint256",
          "name": "activeStage",
          "type": "uint256"
        }
      ],
      "name": "SetActiveStage",
      "type": "event"
    },
    {
      "anonymous": false,
      "inputs": [
        {
          "indexed": false,
          "internalType": "string",
          "name": "baseURI",
          "type": "string"
        }
      ],
      "name": "SetBaseURI",
      "type": "event"
    },
    {
      "anonymous": false,
      "inputs": [
        {
          "indexed": false,
          "internalType": "bool",
          "name": "claimable",
          "type": "bool"
        }
      ],
      "name": "SetClaimable",
      "type": "event"
    },
    {
      "anonymous": false,
      "inputs": [
        {
          "indexed": false,
          "internalType": "address",
          "name": "cosigner",
          "type": "address"
        }
      ],
      "name": "SetCosigner",
      "type": "event"
    },
    {
      "anonymous": false,
      "inputs": [
        {
          "indexed": false,
          "internalType": "address",
          "name": "crossmintAddress",
          "type": "address"
        }
      ],
      "name": "SetCrossmintAddress",
      "type": "event"
    },
    {
      "anonymous": false,
      "inputs": [
        {
          "indexed": false,
          "internalType": "uint256",
          "name": "globalWalletLimit",
          "type": "uint256"
        }
      ],
      "name": "SetGlobalWalletLimit",
      "type": "event"
    },
    {
      "anonymous": false,
      "inputs": [
        {
          "indexed": false,
          "internalType": "uint256",
          "name": "maxMintableSupply",
          "type": "uint256"
        }
      ],
      "name": "SetMaxMintableSupply",
      "type": "event"
    },
    {
      "anonymous": false,
      "inputs": [
        {
          "indexed": false,
          "internalType": "uint256",
          "name": "minimumContributionInWei",
          "type": "uint256"
        }
      ],
      "name": "SetMinimumContribution",
      "type": "event"
    },
    {
      "anonymous": false,
      "inputs": [
        {
          "indexed": false,
          "internalType": "bool",
          "name": "mintable",
          "type": "bool"
        }
      ],
      "name": "SetMintable",
      "type": "event"
    },
    {
      "anonymous": false,
      "inputs": [
        {
          "indexed": false,
          "internalType": "uint256",
          "name": "price",
          "type": "uint256"
        }
      ],
      "name": "SetPrice",
      "type": "event"
    },
    {
      "anonymous": false,
      "inputs": [
        {
          "indexed": true,
          "internalType": "address",
          "name": "from",
          "type": "address"
        },
        {
          "indexed": true,
          "internalType": "address",
          "name": "to",
          "type": "address"
        },
        {
          "indexed": true,
          "internalType": "uint256",
          "name": "tokenId",
          "type": "uint256"
        }
      ],
      "name": "Transfer",
      "type": "event"
    },
    {
      "anonymous": false,
      "inputs": [
        {
          "indexed": false,
          "internalType": "uint256",
          "name": "stage",
          "type": "uint256"
        },
        {
          "indexed": false,
          "internalType": "uint80",
          "name": "price",
          "type": "uint80"
        },
        {
          "indexed": false,
          "internalType": "uint32",
          "name": "walletLimit",
          "type": "uint32"
        },
        {
          "indexed": false,
          "internalType": "bytes32",
          "name": "merkleRoot",
          "type": "bytes32"
        },
        {
          "indexed": false,
          "internalType": "uint24",
          "name": "maxStageSupply",
          "type": "uint24"
        },
        {
          "indexed": false,
          "internalType": "uint64",
          "name": "startTimeUnixSeconds",
          "type": "uint64"
        },
        {
          "indexed": false,
          "internalType": "uint64",
          "name": "endTimeUnixSeconds",
          "type": "uint64"
        }
      ],
      "name": "UpdateStage",
      "type": "event"
    },
    {
      "anonymous": false,
      "inputs": [
        {
          "indexed": false,
          "internalType": "uint256",
          "name": "value",
          "type": "uint256"
        }
      ],
      "name": "Withdraw",
      "type": "event"
    },
    {
      "inputs": [],
      "name": "CROSSMINT_TIMESTAMP_EXPIRY_SECONDS",
      "outputs": [
        {
          "internalType": "uint64",
          "name": "",
          "type": "uint64"
        }
      ],
      "stateMutability": "view",
      "type": "function"
    },
    {
      "inputs": [],
      "name": "MIN_STAGE_INTERVAL_SECONDS",
      "outputs": [
        {
          "internalType": "uint64",
          "name": "",
          "type": "uint64"
        }
      ],
      "stateMutability": "view",
      "type": "function"
    },
    {
      "inputs": [
        {
          "internalType": "address",
          "name": "user",
          "type": "address"
        }
      ],
      "name": "amountPurchased",
      "outputs": [
        {
          "internalType": "uint256",
          "name": "",
          "type": "uint256"
        }
      ],
      "stateMutability": "view",
      "type": "function"
    },
    {
      "inputs": [
        {
          "internalType": "address",
          "name": "to",
          "type": "address"
        },
        {
          "internalType": "uint256",
          "name": "tokenId",
          "type": "uint256"
        }
      ],
      "name": "approve",
      "outputs": [],
      "stateMutability": "payable",
      "type": "function"
    },
    {
      "inputs": [
        {
          "internalType": "address",
          "name": "minter",
          "type": "address"
        },
        {
          "internalType": "uint32",
          "name": "qty",
          "type": "uint32"
        },
        {
          "internalType": "uint64",
          "name": "timestamp",
          "type": "uint64"
        },
        {
          "internalType": "bytes",
          "name": "signature",
          "type": "bytes"
        }
      ],
      "name": "assertValidCosign",
      "outputs": [],
      "stateMutability": "view",
      "type": "function"
    },
    {
      "inputs": [
        {
          "internalType": "address",
          "name": "owner",
          "type": "address"
        }
      ],
      "name": "balanceOf",
      "outputs": [
        {
          "internalType": "uint256",
          "name": "",
          "type": "uint256"
        }
      ],
      "stateMutability": "view",
      "type": "function"
    },
    {
      "inputs": [],
      "name": "bid",
      "outputs": [],
      "stateMutability": "payable",
      "type": "function"
    },
    {
      "inputs": [],
      "name": "claimTokensAndRefund",
      "outputs": [],
      "stateMutability": "nonpayable",
      "type": "function"
    },
    {
      "inputs": [
        {
          "internalType": "uint32",
          "name": "qty",
          "type": "uint32"
        },
        {
          "internalType": "address",
          "name": "to",
          "type": "address"
        },
        {
          "internalType": "bytes32[]",
          "name": "proof",
          "type": "bytes32[]"
        },
        {
          "internalType": "uint64",
          "name": "timestamp",
          "type": "uint64"
        },
        {
          "internalType": "bytes",
          "name": "signature",
          "type": "bytes"
        }
      ],
      "name": "crossmint",
      "outputs": [],
      "stateMutability": "payable",
      "type": "function"
    },
    {
      "inputs": [
        {
          "internalType": "uint256",
          "name": "tokenId",
          "type": "uint256"
        }
      ],
      "name": "explicitOwnershipOf",
      "outputs": [
        {
          "components": [
            {
              "internalType": "address",
              "name": "addr",
              "type": "address"
            },
            {
              "internalType": "uint64",
              "name": "startTimestamp",
              "type": "uint64"
            },
            {
              "internalType": "bool",
              "name": "burned",
              "type": "bool"
            },
            {
              "internalType": "uint24",
              "name": "extraData",
              "type": "uint24"
            }
          ],
          "internalType": "struct IERC721A.TokenOwnership",
          "name": "",
          "type": "tuple"
        }
      ],
      "stateMutability": "view",
      "type": "function"
    },
    {
      "inputs": [
        {
          "internalType": "uint256[]",
          "name": "tokenIds",
          "type": "uint256[]"
        }
      ],
      "name": "explicitOwnershipsOf",
      "outputs": [
        {
          "components": [
            {
              "internalType": "address",
              "name": "addr",
              "type": "address"
            },
            {
              "internalType": "uint64",
              "name": "startTimestamp",
              "type": "uint64"
            },
            {
              "internalType": "bool",
              "name": "burned",
              "type": "bool"
            },
            {
              "internalType": "uint24",
              "name": "extraData",
              "type": "uint24"
            }
          ],
          "internalType": "struct IERC721A.TokenOwnership[]",
          "name": "",
          "type": "tuple[]"
        }
      ],
      "stateMutability": "view",
      "type": "function"
    },
    {
      "inputs": [],
      "name": "getActiveStage",
      "outputs": [
        {
          "internalType": "uint256",
          "name": "",
          "type": "uint256"
        }
      ],
      "stateMutability": "view",
      "type": "function"
    },
    {
      "inputs": [
        {
          "internalType": "uint64",
          "name": "timestamp",
          "type": "uint64"
        }
      ],
      "name": "getActiveStageFromTimestamp",
      "outputs": [
        {
          "internalType": "uint256",
          "name": "",
          "type": "uint256"
        }
      ],
      "stateMutability": "view",
      "type": "function"
    },
    {
      "inputs": [
        {
          "internalType": "uint256",
          "name": "tokenId",
          "type": "uint256"
        }
      ],
      "name": "getApproved",
      "outputs": [
        {
          "internalType": "address",
          "name": "",
          "type": "address"
        }
      ],
      "stateMutability": "view",
      "type": "function"
    },
    {
      "inputs": [],
      "name": "getAuctionActive",
      "outputs": [
        {
          "internalType": "bool",
          "name": "",
          "type": "bool"
        }
      ],
      "stateMutability": "view",
      "type": "function"
    },
    {
      "inputs": [],
      "name": "getClaimable",
      "outputs": [
        {
          "internalType": "bool",
          "name": "",
          "type": "bool"
        }
      ],
      "stateMutability": "view",
      "type": "function"
    },
    {
      "inputs": [
        {
          "internalType": "address",
          "name": "minter",
          "type": "address"
        },
        {
          "internalType": "uint32",
          "name": "qty",
          "type": "uint32"
        },
        {
          "internalType": "uint64",
          "name": "timestamp",
          "type": "uint64"
        }
      ],
      "name": "getCosignDigest",
      "outputs": [
        {
          "internalType": "bytes32",
          "name": "",
          "type": "bytes32"
        }
      ],
      "stateMutability": "view",
      "type": "function"
    },
    {
      "inputs": [
        {
          "internalType": "address",
          "name": "minter",
          "type": "address"
        }
      ],
      "name": "getCosignNonce",
      "outputs": [
        {
          "internalType": "uint256",
          "name": "",
          "type": "uint256"
        }
      ],
      "stateMutability": "view",
      "type": "function"
    },
    {
      "inputs": [],
      "name": "getCosigner",
      "outputs": [
        {
          "internalType": "address",
          "name": "",
          "type": "address"
        }
      ],
      "stateMutability": "view",
      "type": "function"
    },
    {
      "inputs": [],
      "name": "getCrossmintAddress",
      "outputs": [
        {
          "internalType": "address",
          "name": "",
          "type": "address"
        }
      ],
      "stateMutability": "view",
      "type": "function"
    },
    {
      "inputs": [],
      "name": "getEndTimeUnixSeconds",
      "outputs": [
        {
          "internalType": "uint64",
          "name": "",
          "type": "uint64"
        }
      ],
      "stateMutability": "view",
      "type": "function"
    },
    {
      "inputs": [],
      "name": "getGlobalWalletLimit",
      "outputs": [
        {
          "internalType": "uint256",
          "name": "",
          "type": "uint256"
        }
      ],
      "stateMutability": "view",
      "type": "function"
    },
    {
      "inputs": [],
      "name": "getMaxMintableSupply",
      "outputs": [
        {
          "internalType": "uint256",
          "name": "",
          "type": "uint256"
        }
      ],
      "stateMutability": "view",
      "type": "function"
    },
    {
      "inputs": [],
      "name": "getMinimumContributionInWei",
      "outputs": [
        {
          "internalType": "uint256",
          "name": "",
          "type": "uint256"
        }
      ],
      "stateMutability": "view",
      "type": "function"
    },
    {
      "inputs": [],
      "name": "getMintable",
      "outputs": [
        {
          "internalType": "bool",
          "name": "",
          "type": "bool"
        }
      ],
      "stateMutability": "view",
      "type": "function"
    },
    {
      "inputs": [],
      "name": "getNumberStages",
      "outputs": [
        {
          "internalType": "uint256",
          "name": "",
          "type": "uint256"
        }
      ],
      "stateMutability": "view",
      "type": "function"
    },
    {
      "inputs": [],
      "name": "getPrice",
      "outputs": [
        {
          "internalType": "uint256",
          "name": "",
          "type": "uint256"
        }
      ],
      "stateMutability": "view",
      "type": "function"
    },
    {
      "inputs": [
        {
          "internalType": "uint256",
          "name": "index",
          "type": "uint256"
        }
      ],
      "name": "getStageInfo",
      "outputs": [
        {
          "components": [
            {
              "internalType": "uint80",
              "name": "price",
              "type": "uint80"
            },
            {
              "internalType": "uint32",
              "name": "walletLimit",
              "type": "uint32"
            },
            {
              "internalType": "bytes32",
              "name": "merkleRoot",
              "type": "bytes32"
            },
            {
              "internalType": "uint24",
              "name": "maxStageSupply",
              "type": "uint24"
            },
            {
              "internalType": "uint64",
              "name": "startTimeUnixSeconds",
              "type": "uint64"
            },
            {
              "internalType": "uint64",
              "name": "endTimeUnixSeconds",
              "type": "uint64"
            }
          ],
          "internalType": "struct IERC721I.MintStageInfo",
          "name": "",
          "type": "tuple"
        },
        {
          "internalType": "uint32",
          "name": "",
          "type": "uint32"
        },
        {
          "internalType": "uint256",
          "name": "",
          "type": "uint256"
        }
      ],
      "stateMutability": "view",
      "type": "function"
    },
    {
      "inputs": [],
      "name": "getStartTimeUnixSeconds",
      "outputs": [
        {
          "internalType": "uint64",
          "name": "",
          "type": "uint64"
        }
      ],
      "stateMutability": "view",
      "type": "function"
    },
    {
      "inputs": [],
      "name": "getTokenURISuffix",
      "outputs": [
        {
          "internalType": "string",
          "name": "",
          "type": "string"
        }
      ],
      "stateMutability": "view",
      "type": "function"
    },
    {
      "inputs": [],
      "name": "getTotalUsers",
      "outputs": [
        {
          "internalType": "uint256",
          "name": "",
          "type": "uint256"
        }
      ],
      "stateMutability": "view",
      "type": "function"
    },
    {
      "inputs": [
        {
          "internalType": "address",
          "name": "user",
          "type": "address"
        }
      ],
      "name": "getUserData",
      "outputs": [
        {
          "components": [
            {
              "internalType": "uint216",
              "name": "contribution",
              "type": "uint216"
            },
            {
              "internalType": "uint32",
              "name": "tokensClaimed",
              "type": "uint32"
            },
            {
              "internalType": "bool",
              "name": "refundClaimed",
              "type": "bool"
            }
          ],
          "internalType": "struct IBucketAuction.User",
          "name": "",
          "type": "tuple"
        }
      ],
      "stateMutability": "view",
      "type": "function"
    },
    {
      "inputs": [
        {
          "internalType": "uint256",
          "name": "limit",
          "type": "uint256"
        },
        {
          "internalType": "uint256",
          "name": "offset",
          "type": "uint256"
        }
      ],
      "name": "getUserDataPage",
      "outputs": [
        {
          "components": [
            {
              "internalType": "uint216",
              "name": "contribution",
              "type": "uint216"
            },
            {
              "internalType": "uint32",
              "name": "tokensClaimed",
              "type": "uint32"
            },
            {
              "internalType": "bool",
              "name": "refundClaimed",
              "type": "bool"
            }
          ],
          "internalType": "struct IBucketAuction.User[]",
          "name": "",
          "type": "tuple[]"
        },
        {
          "internalType": "address[]",
          "name": "",
          "type": "address[]"
        },
        {
          "internalType": "uint256",
          "name": "total",
          "type": "uint256"
        }
      ],
      "stateMutability": "view",
      "type": "function"
    },
    {
      "inputs": [
        {
          "internalType": "address",
          "name": "owner",
          "type": "address"
        },
        {
          "internalType": "address",
          "name": "operator",
          "type": "address"
        }
      ],
      "name": "isApprovedForAll",
      "outputs": [
        {
          "internalType": "bool",
          "name": "",
          "type": "bool"
        }
      ],
      "stateMutability": "view",
      "type": "function"
    },
    {
      "inputs": [
        {
          "internalType": "uint32",
          "name": "qty",
          "type": "uint32"
        },
        {
          "internalType": "bytes32[]",
          "name": "proof",
          "type": "bytes32[]"
        },
        {
          "internalType": "uint64",
          "name": "timestamp",
          "type": "uint64"
        },
        {
          "internalType": "bytes",
          "name": "signature",
          "type": "bytes"
        }
      ],
      "name": "mint",
      "outputs": [],
      "stateMutability": "payable",
      "type": "function"
    },
    {
      "inputs": [],
      "name": "name",
      "outputs": [
        {
          "internalType": "string",
          "name": "",
          "type": "string"
        }
      ],
      "stateMutability": "view",
      "type": "function"
    },
    {
      "inputs": [],
      "name": "owner",
      "outputs": [
        {
          "internalType": "address",
          "name": "",
          "type": "address"
        }
      ],
      "stateMutability": "view",
      "type": "function"
    },
    {
      "inputs": [
        {
          "internalType": "uint32",
          "name": "qty",
          "type": "uint32"
        },
        {
          "internalType": "address",
          "name": "to",
          "type": "address"
        }
      ],
      "name": "ownerMint",
      "outputs": [],
      "stateMutability": "nonpayable",
      "type": "function"
    },
    {
      "inputs": [
        {
          "internalType": "uint256",
          "name": "tokenId",
          "type": "uint256"
        }
      ],
      "name": "ownerOf",
      "outputs": [
        {
          "internalType": "address",
          "name": "",
          "type": "address"
        }
      ],
      "stateMutability": "view",
      "type": "function"
    },
    {
      "inputs": [
        {
          "internalType": "address",
          "name": "user",
          "type": "address"
        }
      ],
      "name": "refundAmount",
      "outputs": [
        {
          "internalType": "uint256",
          "name": "",
          "type": "uint256"
        }
      ],
      "stateMutability": "view",
      "type": "function"
    },
    {
      "inputs": [],
      "name": "renounceOwnership",
      "outputs": [],
      "stateMutability": "nonpayable",
      "type": "function"
    },
    {
      "inputs": [
        {
          "internalType": "address",
          "name": "from",
          "type": "address"
        },
        {
          "internalType": "address",
          "name": "to",
          "type": "address"
        },
        {
          "internalType": "uint256",
          "name": "tokenId",
          "type": "uint256"
        }
      ],
      "name": "safeTransferFrom",
      "outputs": [],
      "stateMutability": "payable",
      "type": "function"
    },
    {
      "inputs": [
        {
          "internalType": "address",
          "name": "from",
          "type": "address"
        },
        {
          "internalType": "address",
          "name": "to",
          "type": "address"
        },
        {
          "internalType": "uint256",
          "name": "tokenId",
          "type": "uint256"
        },
        {
          "internalType": "bytes",
          "name": "_data",
          "type": "bytes"
        }
      ],
      "name": "safeTransferFrom",
      "outputs": [],
      "stateMutability": "payable",
      "type": "function"
    },
    {
      "inputs": [
        {
          "internalType": "address",
          "name": "to",
          "type": "address"
        }
      ],
      "name": "sendAllTokens",
      "outputs": [],
      "stateMutability": "nonpayable",
      "type": "function"
    },
    {
      "inputs": [
        {
          "internalType": "address",
          "name": "to",
          "type": "address"
        }
      ],
      "name": "sendRefund",
      "outputs": [],
      "stateMutability": "nonpayable",
      "type": "function"
    },
    {
      "inputs": [
        {
          "internalType": "address[]",
          "name": "addresses",
          "type": "address[]"
        }
      ],
      "name": "sendRefundBatch",
      "outputs": [],
      "stateMutability": "nonpayable",
      "type": "function"
    },
    {
      "inputs": [
        {
          "internalType": "address",
          "name": "to",
          "type": "address"
        },
        {
          "internalType": "uint256",
          "name": "amount",
          "type": "uint256"
        }
      ],
      "name": "sendTokens",
      "outputs": [],
      "stateMutability": "nonpayable",
      "type": "function"
    },
    {
      "inputs": [
        {
          "internalType": "address",
          "name": "to",
          "type": "address"
        }
      ],
      "name": "sendTokensAndRefund",
      "outputs": [],
      "stateMutability": "nonpayable",
      "type": "function"
    },
    {
      "inputs": [
        {
          "internalType": "address[]",
          "name": "addresses",
          "type": "address[]"
        }
      ],
      "name": "sendTokensAndRefundBatch",
      "outputs": [],
      "stateMutability": "nonpayable",
      "type": "function"
    },
    {
      "inputs": [
        {
          "internalType": "address[]",
          "name": "addresses",
          "type": "address[]"
        }
      ],
      "name": "sendTokensBatch",
      "outputs": [],
      "stateMutability": "nonpayable",
      "type": "function"
    },
    {
      "inputs": [
        {
          "internalType": "uint256",
          "name": "activeStage",
          "type": "uint256"
        }
      ],
      "name": "setActiveStage",
      "outputs": [],
      "stateMutability": "nonpayable",
      "type": "function"
    },
    {
      "inputs": [
        {
          "internalType": "address",
          "name": "operator",
          "type": "address"
        },
        {
          "internalType": "bool",
          "name": "approved",
          "type": "bool"
        }
      ],
      "name": "setApprovalForAll",
      "outputs": [],
      "stateMutability": "nonpayable",
      "type": "function"
    },
    {
      "inputs": [
        {
          "internalType": "string",
          "name": "baseURI",
          "type": "string"
        }
      ],
      "name": "setBaseURI",
      "outputs": [],
      "stateMutability": "nonpayable",
      "type": "function"
    },
    {
      "inputs": [],
      "name": "setBaseURIPermanent",
      "outputs": [],
      "stateMutability": "nonpayable",
      "type": "function"
    },
    {
      "inputs": [
        {
          "internalType": "bool",
          "name": "claimable",
          "type": "bool"
        }
      ],
      "name": "setClaimable",
      "outputs": [],
      "stateMutability": "nonpayable",
      "type": "function"
    },
    {
      "inputs": [
        {
          "internalType": "address",
          "name": "cosigner",
          "type": "address"
        }
      ],
      "name": "setCosigner",
      "outputs": [],
      "stateMutability": "nonpayable",
      "type": "function"
    },
    {
      "inputs": [
        {
          "internalType": "address",
          "name": "crossmintAddress",
          "type": "address"
        }
      ],
      "name": "setCrossmintAddress",
      "outputs": [],
      "stateMutability": "nonpayable",
      "type": "function"
    },
    {
      "inputs": [
        {
          "internalType": "uint256",
          "name": "globalWalletLimit",
          "type": "uint256"
        }
      ],
      "name": "setGlobalWalletLimit",
      "outputs": [],
      "stateMutability": "nonpayable",
      "type": "function"
    },
    {
      "inputs": [
        {
          "internalType": "uint256",
          "name": "maxMintableSupply",
          "type": "uint256"
        }
      ],
      "name": "setMaxMintableSupply",
      "outputs": [],
      "stateMutability": "nonpayable",
      "type": "function"
    },
    {
      "inputs": [
        {
          "internalType": "uint256",
          "name": "minimumContributionInWei",
          "type": "uint256"
        }
      ],
      "name": "setMinimumContribution",
      "outputs": [],
      "stateMutability": "nonpayable",
      "type": "function"
    },
    {
      "inputs": [
        {
          "internalType": "bool",
          "name": "mintable",
          "type": "bool"
        }
      ],
      "name": "setMintable",
      "outputs": [],
      "stateMutability": "nonpayable",
      "type": "function"
    },
    {
      "inputs": [
        {
          "internalType": "uint256",
          "name": "priceInWei",
          "type": "uint256"
        }
      ],
      "name": "setPrice",
      "outputs": [],
      "stateMutability": "nonpayable",
      "type": "function"
    },
    {
      "inputs": [
        {
          "components": [
            {
              "internalType": "uint80",
              "name": "price",
              "type": "uint80"
            },
            {
              "internalType": "uint32",
              "name": "walletLimit",
              "type": "uint32"
            },
            {
              "internalType": "bytes32",
              "name": "merkleRoot",
              "type": "bytes32"
            },
            {
              "internalType": "uint24",
              "name": "maxStageSupply",
              "type": "uint24"
            },
            {
              "internalType": "uint64",
              "name": "startTimeUnixSeconds",
              "type": "uint64"
            },
            {
              "internalType": "uint64",
              "name": "endTimeUnixSeconds",
              "type": "uint64"
            }
          ],
          "internalType": "struct IERC721I.MintStageInfo[]",
          "name": "newStages",
          "type": "tuple[]"
        }
      ],
      "name": "setStages",
      "outputs": [],
      "stateMutability": "nonpayable",
      "type": "function"
    },
    {
      "inputs": [
        {
          "internalType": "uint64",
          "name": "startTime",
          "type": "uint64"
        },
        {
          "internalType": "uint64",
          "name": "endTime",
          "type": "uint64"
        }
      ],
      "name": "setStartAndEndTimeUnixSeconds",
      "outputs": [],
      "stateMutability": "nonpayable",
      "type": "function"
    },
    {
      "inputs": [
        {
          "internalType": "string",
          "name": "suffix",
          "type": "string"
        }
      ],
      "name": "setTokenURISuffix",
      "outputs": [],
      "stateMutability": "nonpayable",
      "type": "function"
    },
    {
      "inputs": [
        {
          "internalType": "bytes4",
          "name": "interfaceId",
          "type": "bytes4"
        }
      ],
      "name": "supportsInterface",
      "outputs": [
        {
          "internalType": "bool",
          "name": "",
          "type": "bool"
        }
      ],
      "stateMutability": "view",
      "type": "function"
    },
    {
      "inputs": [],
      "name": "symbol",
      "outputs": [
        {
          "internalType": "string",
          "name": "",
          "type": "string"
        }
      ],
      "stateMutability": "view",
      "type": "function"
    },
    {
      "inputs": [
        {
          "internalType": "uint256",
          "name": "tokenId",
          "type": "uint256"
        }
      ],
      "name": "tokenURI",
      "outputs": [
        {
          "internalType": "string",
          "name": "",
          "type": "string"
        }
      ],
      "stateMutability": "view",
      "type": "function"
    },
    {
      "inputs": [
        {
          "internalType": "address",
          "name": "owner",
          "type": "address"
        }
      ],
      "name": "tokensOfOwner",
      "outputs": [
        {
          "internalType": "uint256[]",
          "name": "",
          "type": "uint256[]"
        }
      ],
      "stateMutability": "view",
      "type": "function"
    },
    {
      "inputs": [
        {
          "internalType": "address",
          "name": "owner",
          "type": "address"
        },
        {
          "internalType": "uint256",
          "name": "start",
          "type": "uint256"
        },
        {
          "internalType": "uint256",
          "name": "stop",
          "type": "uint256"
        }
      ],
      "name": "tokensOfOwnerIn",
      "outputs": [
        {
          "internalType": "uint256[]",
          "name": "",
          "type": "uint256[]"
        }
      ],
      "stateMutability": "view",
      "type": "function"
    },
    {
      "inputs": [
        {
          "internalType": "address",
          "name": "a",
          "type": "address"
        }
      ],
      "name": "totalMintedByAddress",
      "outputs": [
        {
          "internalType": "uint256",
          "name": "",
          "type": "uint256"
        }
      ],
      "stateMutability": "view",
      "type": "function"
    },
    {
      "inputs": [],
      "name": "totalSupply",
      "outputs": [
        {
          "internalType": "uint256",
          "name": "",
          "type": "uint256"
        }
      ],
      "stateMutability": "view",
      "type": "function"
    },
    {
      "inputs": [
        {
          "internalType": "address",
          "name": "from",
          "type": "address"
        },
        {
          "internalType": "address",
          "name": "to",
          "type": "address"
        },
        {
          "internalType": "uint256",
          "name": "tokenId",
          "type": "uint256"
        }
      ],
      "name": "transferFrom",
      "outputs": [],
      "stateMutability": "payable",
      "type": "function"
    },
    {
      "inputs": [
        {
          "internalType": "address",
          "name": "newOwner",
          "type": "address"
        }
      ],
      "name": "transferOwnership",
      "outputs": [],
      "stateMutability": "nonpayable",
      "type": "function"
    },
    {
      "inputs": [
        {
          "internalType": "uint256",
          "name": "index",
          "type": "uint256"
        },
        {
          "internalType": "uint80",
          "name": "price",
          "type": "uint80"
        },
        {
          "internalType": "uint32",
          "name": "walletLimit",
          "type": "uint32"
        },
        {
          "internalType": "bytes32",
          "name": "merkleRoot",
          "type": "bytes32"
        },
        {
          "internalType": "uint24",
          "name": "maxStageSupply",
          "type": "uint24"
        },
        {
          "internalType": "uint64",
          "name": "startTimeUnixSeconds",
          "type": "uint64"
        },
        {
          "internalType": "uint64",
          "name": "endTimeUnixSeconds",
          "type": "uint64"
        }
      ],
      "name": "updateStage",
      "outputs": [],
      "stateMutability": "nonpayable",
      "type": "function"
    },
    {
      "inputs": [],
      "name": "withdraw",
      "outputs": [],
      "stateMutability": "nonpayable",
      "type": "function"
    }
  ],
  "transactionHash": "0x06174881c80bf4ce923fc169d96b5ddf3848e55f14e780e85c7d10975b0376c8",
  "args": [
    "Azuki",
    "AZUKI",
    ".json",
    "10000",
    "5",
    "0x0000000000000000000000000000000000000000",
    "40000000000000000",
    "1672802400",
    "1840082640"
  ],
  "numDeployments": 2,
  "solcInputHash": "656187ff28615d8bdf54e22d41f8f15a",
  "bytecode": "0x60806040523480156200001157600080fd5b506040516200548b3803806200548b833981016040819052620000349162000293565b888888888888858560026200004a838262000409565b50600362000059828262000409565b505060008055506200006b3362000147565b6001600955828211156200009257604051630590c51360e01b815260040160405180910390fd5b600a805460ff19166001179055600d839055600e829055600f620000b7858262000409565b5060108054610100600160a81b0319166101006001600160a01b03939093169290920291909117905550506015805460169790975561ff01600160901b0319909616620100006001600160401b0396871602600160501b600160901b031916176a010000000000000000000094909516939093029390931761ff00191690935550620004d5975050505050505050565b600880546001600160a01b038381166001600160a01b0319831681179093556040519116919082907f8be0079c531659141344cd1fd0a4f28419497f9722a3daafe3b4186f6b6457e090600090a35050565b634e487b7160e01b600052604160045260246000fd5b600082601f830112620001c157600080fd5b81516001600160401b0380821115620001de57620001de62000199565b604051601f8301601f19908116603f0116810190828211818310171562000209576200020962000199565b816040528381526020925086838588010111156200022657600080fd5b600091505b838210156200024a57858201830151818301840152908201906200022b565b600093810190920192909252949350505050565b80516001600160a01b03811681146200027657600080fd5b919050565b80516001600160401b03811681146200027657600080fd5b60008060008060008060008060006101208a8c031215620002b357600080fd5b89516001600160401b0380821115620002cb57600080fd5b620002d98d838e01620001af565b9a5060208c0151915080821115620002f057600080fd5b620002fe8d838e01620001af565b995060408c01519150808211156200031557600080fd5b50620003248c828d01620001af565b97505060608a0151955060808a015194506200034360a08b016200025e565b935060c08a015192506200035a60e08b016200027b565b91506200036b6101008b016200027b565b90509295985092959850929598565b600181811c908216806200038f57607f821691505b602082108103620003b057634e487b7160e01b600052602260045260246000fd5b50919050565b601f8211156200040457600081815260208120601f850160051c81016020861015620003df5750805b601f850160051c820191505b818110156200040057828155600101620003eb565b5050505b505050565b81516001600160401b0381111562000425576200042562000199565b6200043d816200043684546200037a565b84620003b6565b602080601f8311600181146200047557600084156200045c5750858301515b600019600386901b1c1916600185901b17855562000400565b600085815260208120601f198616915b82811015620004a65788860151825594840194600190910190840162000485565b5085821015620004c55787850151600019600388901b60f8161c191681555b5050505050600190811b01905550565b614fa680620004e56000396000f3fe6080604052600436106104475760003560e01c80638f93151111610234578063b7a9fa601161012e578063e985e9c5116100b6578063efdaa2ec1161007a578063efdaa2ec14610d2d578063f2fde38b14610d42578063f698bceb14610d62578063f8d0969614610d7a578063ffc9896b14610d9a57600080fd5b8063e985e9c514610c75578063e9d7c06814610cbe578063ed2e2b0214610cd3578063ee28b74414610d02578063efb6b11f14610d1a57600080fd5b8063c87b56dd116100fd578063c87b56dd14610be0578063cae4d67614610c00578063d956634f14610c20578063db422e0b14610c35578063dba3e70414610c5557600080fd5b8063b7a9fa6014610b6b578063b88d4fde14610b80578063c02bd9a514610b93578063c23dc68f14610bb357600080fd5b8063a06c492f116101bc578063a718cd4e11610180578063a718cd4e14610acb578063a9852bfb14610aeb578063aac5ab1f14610b0b578063acde5d2814610b2b578063b50248e714610b4b57600080fd5b8063a06c492f1461092b578063a22cb465146109ca578063a3759f60146109ea578063a466cb1a14610a86578063a6239bb814610aa657600080fd5b806398d5fdca1161020357806398d5fdca1461094b578063997556241461096057806399a2557a146109805780639a3814ab146109a05780639be572f6146109b557600080fd5b80638f931511146108d857806391b7f5ed146108f657806395d89b411461091657806397cf84fc1461092b57600080fd5b80633ccfd60b1161034557806370a08231116102cd5780638462151c116102915780638462151c14610838578063896086de146108655780638bcccb63146108855780638da5cb5b1461089a5780638dcdb09d146108b857600080fd5b806370a08231146107b957806370da24ee146107d9578063715018a6146107ee57806373e1607e1461080357806374d186621461082357600080fd5b80635b910336116103145780635b910336146107195780635bbb21771461073957806362acbd9a146107665780636352211e1461077957806367808a341461079957600080fd5b80633ccfd60b146106bc57806342842e0e146106d15780634b1c53b4146106e457806355f804b3146106f957600080fd5b806318160ddd116103d3578063285d70d411610397578063285d70d41461061957806333bbbf0614610639578063372992e41461065c578063378c93ad1461067c578063379a02061461069c57600080fd5b806318160ddd146105a15780631998aeef146105ba5780631ce03eed146105c2578063217d6988146105e257806323b872dd1461060657600080fd5b8063074ba79d1161041a578063074ba79d146104e5578063081812fc14610513578063095ea7b31461054b5780631053a8151461055e578063174f909c1461057357600080fd5b806301ffc9a71461044c578063020451381461048157806305ab421d146104a357806306fdde03146104c3575b600080fd5b34801561045857600080fd5b5061046c6104673660046140d9565b610e31565b60405190151581526020015b60405180910390f35b34801561048d57600080fd5b506104a161049c366004614112565b610e83565b005b3480156104af57600080fd5b506104a16104be36600461412d565b610ee8565b3480156104cf57600080fd5b506104d8610efe565b60405161047891906141a7565b3480156104f157600080fd5b50610505610500366004614112565b610f90565b604051908152602001610478565b34801561051f57600080fd5b5061053361052e3660046141ba565b610fe4565b6040516001600160a01b039091168152602001610478565b6104a161055936600461412d565b611028565b34801561056a57600080fd5b506104a16110c8565b34801561057f57600080fd5b5061058961012c81565b6040516001600160401b039091168152602001610478565b3480156105ad57600080fd5b5060015460005403610505565b6104a1611118565b3480156105ce57600080fd5b506105056105dd3660046141fe565b61124b565b3480156105ee57600080fd5b506015546201000090046001600160401b0316610589565b6104a1610614366004614241565b61138b565b34801561062557600080fd5b506104a161063436600461428d565b611524565b34801561064557600080fd5b5060105461010090046001600160a01b0316610533565b34801561066857600080fd5b506104a16106773660046141ba565b61156d565b34801561068857600080fd5b506104a161069736600461428d565b6115cd565b3480156106a857600080fd5b506104a16106b73660046142a8565b611616565b3480156106c857600080fd5b506104a16116be565b6104a16106df366004614241565b611769565b3480156106f057600080fd5b50600d54610505565b34801561070557600080fd5b506104a161071436600461431c565b611789565b34801561072557600080fd5b506104a16107343660046143a1565b6117f4565b34801561074557600080fd5b506107596107543660046143a1565b611872565b6040516104789190614412565b6104a1610774366004614454565b61193d565b34801561078557600080fd5b506105336107943660046141ba565b6119d5565b3480156107a557600080fd5b506105056107b43660046144f8565b6119e0565b3480156107c557600080fd5b506105056107d4366004614112565b611aa8565b3480156107e557600080fd5b50601254610505565b3480156107fa57600080fd5b506104a1611af6565b34801561080f57600080fd5b506104a161081e36600461453d565b611b0a565b34801561082f57600080fd5b50610589603c81565b34801561084457600080fd5b50610858610853366004614112565b611d9a565b60405161047891906145b5565b34801561087157600080fd5b506104a16108803660046141ba565b611ea2565b34801561089157600080fd5b50601654610505565b3480156108a657600080fd5b506008546001600160a01b0316610533565b3480156108c457600080fd5b506104a16108d33660046145ed565b611f01565b3480156108e457600080fd5b506011546001600160a01b0316610533565b34801561090257600080fd5b506104a16109113660046141ba565b6123c4565b34801561092257600080fd5b506104d8612480565b34801561093757600080fd5b50610505610946366004614112565b61248f565b34801561095757600080fd5b50601754610505565b34801561096c57600080fd5b506104a161097b366004614112565b6124b9565b34801561098c57600080fd5b5061085861099b366004614661565b61250f565b3480156109ac57600080fd5b50600c54610505565b3480156109c157600080fd5b50610505612686565b3480156109d657600080fd5b506104a16109e5366004614694565b612697565b3480156109f657600080fd5b50610a0a610a053660046141ba565b612703565b6040805184516001600160501b0316815260208086015163ffffffff90811691830191909152858301519282019290925260608086015162ffffff16908201526080808601516001600160401b039081169183019190915260a095860151169481019490945290911660c083015260e082015261010001610478565b348015610a9257600080fd5b506104a1610aa13660046143a1565b612847565b348015610ab257600080fd5b50601554600160501b90046001600160401b0316610589565b348015610ad757600080fd5b506104a1610ae63660046143a1565b612896565b348015610af757600080fd5b506104a1610b0636600461431c565b6128e5565b348015610b1757600080fd5b506104a1610b263660046146be565b6128fa565b348015610b3757600080fd5b50610505610b46366004614112565b612953565b348015610b5757600080fd5b506104a1610b6636600461478a565b6129a7565b348015610b7757600080fd5b506104d86129e9565b6104a1610b8e3660046147f8565b6129f8565b348015610b9f57600080fd5b506104a1610bae366004614112565b612a3c565b348015610bbf57600080fd5b50610bd3610bce3660046141ba565b612a54565b6040516104789190614847565b348015610bec57600080fd5b506104d8610bfb3660046141ba565b612acc565b348015610c0c57600080fd5b506104a1610c1b366004614112565b612bd5565b348015610c2c57600080fd5b506104a1612cec565b348015610c4157600080fd5b506104a1610c50366004614112565b612d46565b348015610c6157600080fd5b506104a1610c703660046141ba565b612d86565b348015610c8157600080fd5b5061046c610c90366004614855565b6001600160a01b03918216600090815260076020908152604080832093909416825291909152205460ff1690565b348015610cca57600080fd5b5061046c612dc3565b348015610cdf57600080fd5b50610cf3610cee366004614871565b612dfc565b60405161047893929190614893565b348015610d0e57600080fd5b5060155460ff1661046c565b6104a1610d2836600461494e565b612fc9565b348015610d3957600080fd5b50600e54610505565b348015610d4e57600080fd5b506104a1610d5d366004614112565b61300c565b348015610d6e57600080fd5b50600a5460ff1661046c565b348015610d8657600080fd5b506104a1610d953660046141ba565b613082565b348015610da657600080fd5b50610e24610db5366004614112565b6040805160608082018352600080835260208084018290529284018190526001600160a01b03949094168452601882529282902082519384018352546001600160d81b0381168452600160d81b810463ffffffff1691840191909152600160f81b900460ff1615159082015290565b60405161047891906149e1565b60006301ffc9a760e01b6001600160e01b031983161480610e6257506380ac58cd60e01b6001600160e01b03198316145b80610e7d5750635b5e139f60e01b6001600160e01b03198316145b92915050565b610e8b6130e2565b60108054610100600160a81b0319166101006001600160a01b038416908102919091179091556040519081527faea1573caf7b4fdd079b947d86c1be6c725642c47582f8f9bd2c7d2a30bf0bd9906020015b60405180910390a150565b610ef06130e2565b610efa828261313c565b5050565b606060028054610f0d90614a13565b80601f0160208091040260200160405190810160405280929190818152602001828054610f3990614a13565b8015610f865780601f10610f5b57610100808354040283529160200191610f86565b820191906000526020600020905b815481529060010190602001808311610f6957829003601f168201915b5050505050905090565b6000601754600003610fb5576040516313a8ad7d60e11b815260040160405180910390fd5b6017546001600160a01b038316600090815260186020526040902054610e7d91906001600160d81b0316614a79565b6000610fef826131f1565b61100c576040516333d1c03960e21b815260040160405180910390fd5b506000908152600660205260409020546001600160a01b031690565b6000611033826119d5565b9050336001600160a01b0382161461106c5761104f8133610c90565b61106c576040516367d9dca160e11b815260040160405180910390fd5b60008281526006602052604080822080546001600160a01b0319166001600160a01b0387811691821790925591518593918516917f8c5be1e5ebec7d5bd14f71427d1e84f3dd0314c0f7b2291e5b200ac8c7c3b92591a4505050565b6110d06130e2565b6010805460ff191660011790556040517fc6a6c2b165e62c9d37fc51a18ed76e5be22304bc1d337877c98f31c23e40b0f59061110e90600b90614a8d565b60405180910390a1565b60155442620100009091046001600160401b0316118061114b575060155442600160501b9091046001600160401b031611155b15611169576040516307d6617160e31b815260040160405180910390fd5b6002600954036111945760405162461bcd60e51b815260040161118b90614b18565b60405180910390fd5b600260095533600090815260186020526040902080546016546001600160d81b039091163401908110156111db5760405163dd828e1560e01b815260040160405180910390fd5b81546001600160d81b0319166001600160d81b0382161782556111ff601933613218565b5060408051348152602081018390524781830152905133917f4dcc013473324698bfbe263facec4ea4b1bc43624236542deabec62c2122b305919081900360600190a250506001600955565b60105460009061010090046001600160a01b031661127c576040516353bd4fb360e11b815260040160405180910390fd5b611381308585601060019054906101000a90046001600160a01b0316866112a04690565b6112a98b61248f565b604051606097881b6bffffffffffffffffffffffff19908116602083015296881b8716603482015260e09590951b6001600160e01b031916604886015292861b909416604c84015260c01b6001600160c01b031916938201939093526068810191909152608881019190915260a801604051602081830303815290604052805190602001206040517f19457468657265756d205369676e6564204d6573736167653a0a3332000000006020820152603c8101829052600090605c01604051602081830303815290604052805190602001209050919050565b90505b9392505050565b60006113968261322d565b9050836001600160a01b0316816001600160a01b0316146113c95760405162a1148160e81b815260040160405180910390fd5b60008281526006602052604090208054338082146001600160a01b03881690911417611416576113f98633610c90565b61141657604051632ce44b5f60e11b815260040160405180910390fd5b6001600160a01b03851661143d57604051633a954ecd60e21b815260040160405180910390fd5b801561144857600082555b6001600160a01b038681166000908152600560205260408082208054600019019055918716808252919020805460010190554260a01b17600160e11b17600085815260046020526040812091909155600160e11b841690036114da576001840160008181526004602052604081205490036114d85760005481146114d85760008181526004602052604090208490555b505b83856001600160a01b0316876001600160a01b03167fddf252ad1be2c89b69c2b068fc378daa952ba7f163c4a11628f55a4df523b3ef60405160405180910390a45b505050505050565b61152c6130e2565b600a805460ff19168215159081179091556040519081527fe717a2bfc51e250b028aaac5eb448e76f4df26b9609956782bff49097bb792cf90602001610edd565b6115756130e2565b600d5481111561159857604051630590c51360e01b815260040160405180910390fd5b600e8190556040518181527f5307de8ad7d34d5ddfd5171435c143bdc645493980f453eb5d7cdb3e494a1b3590602001610edd565b6115d56130e2565b6015805460ff19168215159081179091556040519081527f18d99b89a15641fa45e09c4916c435eb2bee98b29a0157c251869471e0cf28c990602001610edd565b61161e6130e2565b6017541561163f57604051632b67583760e21b815260040160405180910390fd5b816001600160401b0316816001600160401b03161161167157604051631750215560e11b815260040160405180910390fd5b6015805471ffffffffffffffffffffffffffffffff00001916620100006001600160401b039485160267ffffffffffffffff60501b191617600160501b9290931691909102919091179055565b6116c66130e2565b6040514790600090339083908381818185875af1925050503d806000811461170a576040519150601f19603f3d011682016040523d82523d6000602084013e61170f565b606091505b505090508061173157604051631d42c86760e21b815260040160405180910390fd5b6040518281527f5b6b431d4476a211bb7d41c20d1aab9ae2321deee0d20be3d9fc9b1093fa6e3d906020015b60405180910390a15050565b611784838383604051806020016040528060008152506129f8565b505050565b6117916130e2565b60105460ff16156117b5576040516306ccad4160e41b815260040160405180910390fd5b600b6117c2828483614b95565b507f23c8c9488efebfd474e85a7956de6f39b17c7ab88502d42a623db2d8e382bbaa828260405161175d929190614c54565b6117fc6130e2565b60005b818110156117845761186083838381811061181c5761181c614c83565b90506020020160208101906118319190614112565b61185b85858581811061184657611846614c83565b90506020020160208101906105009190614112565b61313c565b8061186a81614c99565b9150506117ff565b6060816000816001600160401b0381111561188f5761188f6146e8565b6040519080825280602002602001820160405280156118e157816020015b6040805160808101825260008082526020808301829052928201819052606082015282526000199092019101816118ad5790505b50905060005b8281146119345761190f86868381811061190357611903614c83565b90506020020135612a54565b82828151811061192157611921614c83565b60209081029190910101526001016118e7565b50949350505050565b60026009540361195f5760405162461bcd60e51b815260040161118b90614b18565b60026009556011546001600160a01b031661198d57604051637e9f68eb60e11b815260040160405180910390fd5b6011546001600160a01b031633146119b85760405163f46fd68360e01b815260040160405180910390fd5b6119c787878787878787613294565b505060016009555050505050565b6000610e7d8261322d565b6000805b601254811015611a8e5760128181548110611a0157611a01614c83565b60009182526020909120600260039092020101546001600160401b036301000000909104811690841610801590611a71575060128181548110611a4657611a46614c83565b60009182526020909120600260039092020101546001600160401b03600160581b9091048116908416105b15611a7c5792915050565b80611a8681614c99565b9150506119e4565b5060405163e82a532960e01b815260040160405180910390fd5b60006001600160a01b038216611ad1576040516323d3ad8160e21b815260040160405180910390fd5b506001600160a01b03166000908152600560205260409020546001600160401b031690565b611afe6130e2565b611b086000613704565b565b611b126130e2565b6012548710611b345760405163e82a532960e01b815260040160405180910390fd5b60018710611bbc57603c6012611b4b60018a614cb2565b81548110611b5b57611b5b614c83565b9060005260206000209060030201600201600b9054906101000a90046001600160401b0316611b8a9190614cc5565b6001600160401b0316826001600160401b03161015611bbc57604051636bc1af9360e01b815260040160405180910390fd5b611bc68282613756565b8560128881548110611bda57611bda614c83565b906000526020600020906003020160000160006101000a8154816001600160501b0302191690836001600160501b031602179055508460128881548110611c2357611c23614c83565b9060005260206000209060030201600001600a6101000a81548163ffffffff021916908363ffffffff1602179055508360128881548110611c6657611c66614c83565b9060005260206000209060030201600101819055508260128881548110611c8f57611c8f614c83565b906000526020600020906003020160020160006101000a81548162ffffff021916908362ffffff1602179055508160128881548110611cd057611cd0614c83565b906000526020600020906003020160020160036101000a8154816001600160401b0302191690836001600160401b031602179055508060128881548110611d1957611d19614c83565b9060005260206000209060030201600201600b6101000a8154816001600160401b0302191690836001600160401b031602179055507fb3268648542a1bb1b2dd12e3b14aeb5a3ab22c592de96bdd3e842154a5b394fa87878787878787604051611d899796959493929190614cec565b60405180910390a150505050505050565b60606000806000611daa85611aa8565b90506000816001600160401b03811115611dc657611dc66146e8565b604051908082528060200260200182016040528015611def578160200160208202803683370190505b509050611e1c60408051608081018252600080825260208201819052918101829052606081019190915290565b60005b838614611e9657611e2f81613788565b91508160400151611e8e5781516001600160a01b031615611e4f57815194505b876001600160a01b0316856001600160a01b031603611e8e5780838780600101985081518110611e8157611e81614c83565b6020026020010181815250505b600101611e1f565b50909695505050505050565b611eaa6130e2565b6012548110611ecc5760405163e82a532960e01b815260040160405180910390fd5b600c8190556040518181527f160d6de2c069c3adf7f4c1252236d0b325c0e3eb963ddb10c67a81aadf9a305890602001610edd565b611f096130e2565b60125460005b81811015611f84576012805480611f2857611f28614d3c565b60008281526020812060036000199093019283020180546001600160701b03191681556001810191909155600201805472ffffffffffffffffffffffffffffffffffffff19169055905580611f7c81614c99565b915050611f0f565b5060005b828110156123be576001811061203357603c8484611fa7600185614cb2565b818110611fb657611fb6614c83565b905060c0020160a0016020810190611fce91906144f8565b611fd89190614cc5565b6001600160401b0316848483818110611ff357611ff3614c83565b905060c00201608001602081019061200b91906144f8565b6001600160401b0316101561203357604051636bc1af9360e01b815260040160405180910390fd5b61208f84848381811061204857612048614c83565b905060c00201608001602081019061206091906144f8565b85858481811061207257612072614c83565b905060c0020160a001602081019061208a91906144f8565b613756565b60126040518060c001604052808686858181106120ae576120ae614c83565b6120c492602060c0909202019081019150614d52565b6001600160501b031681526020018686858181106120e4576120e4614c83565b905060c0020160200160208101906120fc9190614d6d565b63ffffffff16815260200186868581811061211957612119614c83565b905060c0020160400135815260200186868581811061213a5761213a614c83565b905060c0020160600160208101906121529190614d88565b62ffffff16815260200186868581811061216e5761216e614c83565b905060c00201608001602081019061218691906144f8565b6001600160401b031681526020018686858181106121a6576121a6614c83565b905060c0020160a00160208101906121be91906144f8565b6001600160401b039081169091528254600181810185556000948552602094859020845160039093020180549585015163ffffffff16600160501b026001600160701b03199096166001600160501b0390931692909217949094178155604083015193810193909355606082015160029093018054608084015160a0909401518316600160581b0267ffffffffffffffff60581b19949093166301000000026affffffffffffffffffffff1990911662ffffff9095169490941793909317919091161790557fb3268648542a1bb1b2dd12e3b14aeb5a3ab22c592de96bdd3e842154a5b394fa818585828181106122b7576122b7614c83565b6122cd92602060c0909202019081019150614d52565b8686858181106122df576122df614c83565b905060c0020160200160208101906122f79190614d6d565b87878681811061230957612309614c83565b905060c002016040013588888781811061232557612325614c83565b905060c00201606001602081019061233d9190614d88565b89898881811061234f5761234f614c83565b905060c00201608001602081019061236791906144f8565b8a8a8981811061237957612379614c83565b905060c0020160a001602081019061239191906144f8565b6040516123a49796959493929190614cec565b60405180910390a1806123b681614c99565b915050611f88565b50505050565b6123cc6130e2565b60155460ff16156123f05760405163463c963760e11b815260040160405180910390fd5b601554600160501b90046001600160401b0316421161242257604051638c15906560e01b815260040160405180910390fd5b601554610100900460ff161561244b5760405163a64907bf60e01b815260040160405180910390fd5b60178190556040518181527f4f5539c0409dfc4cb06f64cbd31237e1fbfe443f531584bf4dd77ec7fc5ba7b190602001610edd565b606060038054610f0d90614a13565b6001600160a01b038116600090815260056020526040808220546001600160401b03911c16610e7d565b6124c16130e2565b601180546001600160a01b0319166001600160a01b0383169081179091556040519081527ff477d93c015f2a73c2ccc5ed37078d12123b80fc5d12e0014c60b913bc1a1ec490602001610edd565b606081831061253157604051631960ccad60e11b815260040160405180910390fd5b60008061253d60005490565b90508084111561254b578093505b600061255687611aa8565b905084861015612575578585038181101561256f578091505b50612579565b5060005b6000816001600160401b03811115612593576125936146e8565b6040519080825280602002602001820160405280156125bc578160200160208202803683370190505b509050816000036125d257935061138492505050565b60006125dd88612a54565b9050600081604001516125ee575080515b885b8881141580156126005750848714155b156126755761260e81613788565b9250826040015161266d5782516001600160a01b03161561262e57825191505b8a6001600160a01b0316826001600160a01b03160361266d578084888060010199508151811061266057612660614c83565b6020026020010181815250505b6001016125f0565b505050928352509095945050505050565b600061269260196137c4565b905090565b3360008181526007602090815260408083206001600160a01b03871680855290835292819020805460ff191686151590811790915590519081529192917f17307eab39ab6107e8899845ad3d59bd9653f200f220920489ca2b5937696c31910160405180910390a35050565b6040805160c081018252600080825260208201819052918101829052606081018290526080810182905260a08101919091526012546000908190841061277a5760405162461bcd60e51b815260206004820152600c60248201526b496e76616c6964537461676560a01b604482015260640161118b565b60008481526013602090815260408083203384528252808320548784526014909252909120546012805463ffffffff90931692879081106127bd576127bd614c83565b60009182526020918290206040805160c08101825260039390930290910180546001600160501b0381168452600160501b900463ffffffff169383019390935260018301549082015260029091015462ffffff81166060830152630100000081046001600160401b039081166080840152600160581b9091041660a0820152969195509350915050565b61284f6130e2565b60005b818110156117845761288483838381811061286f5761286f614c83565b9050602002016020810190610c509190614112565b8061288e81614c99565b915050612852565b61289e6130e2565b60005b81811015611784576128d38383838181106128be576128be614c83565b9050602002016020810190610c1b9190614112565b806128dd81614c99565b9150506128a1565b6128ed6130e2565b600f611784828483614b95565b6129026130e2565b8163ffffffff16600d548161291a6001546000540390565b6129249190614da3565b11156129435760405163800113cb60e01b815260040160405180910390fd5b611784828463ffffffff166137ce565b6000601754600003612978576040516313a8ad7d60e11b815260040160405180910390fd5b6017546001600160a01b038316600090815260186020526040902054610e7d91906001600160d81b0316614db6565b6010546129cd9061010090046001600160a01b03166129c786868661124b565b836137e8565b6123be5760405162b7fad960e11b815260040160405180910390fd5b6060600f8054610f0d90614a13565b612a0384848461138b565b6001600160a01b0383163b156123be57612a1f8484848461392a565b6123be576040516368d2bf6b60e11b815260040160405180910390fd5b612a446130e2565b612a518161185b83610f90565b50565b6040805160808082018352600080835260208084018290528385018290526060808501839052855193840186528284529083018290529382018190529281018390529091506000548310612aa85792915050565b612ab183613788565b9050806040015115612ac35792915050565b61138483613a15565b6060612ad7826131f1565b612af457604051630a14c4b560e41b815260040160405180910390fd5b6000600b8054612b0390614a13565b80601f0160208091040260200160405190810160405280929190818152602001828054612b2f90614a13565b8015612b7c5780601f10612b5157610100808354040283529160200191612b7c565b820191906000526020600020905b815481529060010190602001808311612b5f57829003601f168201915b505050505090508051600003612ba15760405180602001604052806000815250611384565b80612bab84613a4a565b600f604051602001612bbf93929190614dca565b6040516020818303038152906040529392505050565b612bdd6130e2565b6017546000819003612c02576040516313a8ad7d60e11b815260040160405180910390fd5b6001600160a01b03821660009081526018602052604090208054600160f81b900460ff1615612c4457604051638246991960e01b815260040160405180910390fd5b80546001600160f81b038116600160f81b178255600090612c6f9084906001600160d81b0316614db6565b90506000846001600160a01b03168260405160006040518083038185875af1925050503d8060008114612cbe576040519150601f19603f3d011682016040523d82523d6000602084013e612cc3565b606091505b5050905080612ce5576040516312171d8360e31b815260040160405180910390fd5b5050505050565b60155460ff16612d0f57604051633123d42760e11b815260040160405180910390fd5b600260095403612d315760405162461bcd60e51b815260040161118b90614b18565b6002600955612d3f33613a8e565b6001600955565b612d4e6130e2565b600260095403612d705760405162461bcd60e51b815260040161118b90614b18565b6002600955612d7e81613a8e565b506001600955565b612d8e6130e2565b60168190556040518181527fd0f4420817917bede76c780c0ce000d6f59fb37194178cce2ad2c7fc09dddd4190602001610edd565b60155460009042620100009091046001600160401b031611801590612692575050601554600160501b90046001600160401b0316421090565b606080600080612e0c60196137c4565b905085612e198683614cb2565b811115612e2d57612e2a8683614cb2565b90505b6000816001600160401b03811115612e4757612e476146e8565b604051908082528060200260200182016040528015612e9257816020015b6040805160608101825260008082526020808301829052928201528252600019909201910181612e655790505b5090506000826001600160401b03811115612eaf57612eaf6146e8565b604051908082528060200260200182016040528015612ed8578160200160208202803683370190505b50905060005b83811015612fb8576000612efd612ef58b84614da3565b601990613c11565b6001600160a01b038116600090815260186020908152604091829020825160608101845290546001600160d81b0381168252600160d81b810463ffffffff1692820192909252600160f81b90910460ff16151591810191909152855191925090859084908110612f6f57612f6f614c83565b602002602001018190525080838381518110612f8d57612f8d614c83565b6001600160a01b03909216602092830291909101909101525080612fb081614c99565b915050612ede565b509095509350909150509250925092565b600260095403612feb5760405162461bcd60e51b815260040161118b90614b18565b6002600955612fff86338787878787613294565b5050600160095550505050565b6130146130e2565b6001600160a01b0381166130795760405162461bcd60e51b815260206004820152602660248201527f4f776e61626c653a206e6577206f776e657220697320746865207a65726f206160448201526564647265737360d01b606482015260840161118b565b612a5181613704565b61308a6130e2565b600d548111156130ad5760405163430b83b160e11b815260040160405180910390fd5b600d8190556040518181527fc7bbc2b288fc13314546ea4aa51f6bcf71b7ba4740beeb3d32e9acef57b6668a90602001610edd565b6008546001600160a01b03163314611b085760405162461bcd60e51b815260206004820181905260248201527f4f776e61626c653a2063616c6c6572206973206e6f7420746865206f776e6572604482015260640161118b565b6017546000819003613161576040516313a8ad7d60e11b815260040160405180910390fd5b6001600160a01b03831660009081526018602052604090208054600160d81b900463ffffffff166131928482614da3565b82549091506131ab9084906001600160d81b0316614a79565b8111156131cb57604051630958705d60e31b815260040160405180910390fd5b815463ffffffff60d81b1916600160d81b63ffffffff831602178255612ce58585613c1d565b6000805482108015610e7d575050600090815260046020526040902054600160e01b161590565b6000611384836001600160a01b038416613c93565b60008160005481101561327b5760008181526004602052604081205490600160e01b82169003613279575b80600003611384575060001901600081815260046020526040902054613258565b505b604051636f96cda160e11b815260040160405180910390fd5b600a5460ff166132b757604051630952c8a960e11b815260040160405180910390fd5b8663ffffffff16600d54816132cf6001546000540390565b6132d99190614da3565b11156132f85760405163800113cb60e01b815260040160405180910390fd5b600c54601254811061331d5760405163e82a532960e01b815260040160405180910390fd5b6040805160c081018252600080825260208201819052918101829052606081018290526080810182905260a081019190915260105461010090046001600160a01b0316156133bc576133a7338b8888888080601f0160208091040260200160405190810160405280939291908181526020018383808284376000920191909152506129a792505050565b6133b086613ce2565b6133b9866119e0565b91505b601282815481106133cf576133cf614c83565b60009182526020918290206040805160c081018252600390930290910180546001600160501b03811680855263ffffffff600160501b9092048216958501959095526001820154928401929092526002015462ffffff811660608401526001600160401b036301000000820481166080850152600160581b9091041660a083015290925061346091908c1690614e6a565b6001600160501b031634101561348957604051630717c22560e51b815260040160405180910390fd5b606081015162ffffff16156134e357606081015160008381526014602052604090205462ffffff909116906134c59063ffffffff8d1690614da3565b11156134e35760405162d0844960e21b815260040160405180910390fd5b600e541561354a57600e548a63ffffffff166135218b6001600160a01b03166000908152600560205260409081902054901c6001600160401b031690565b61352b9190614da3565b111561354a5760405163751304ed60e11b815260040160405180910390fd5b602081015163ffffffff16156135bc5760208082015160008481526013835260408082206001600160a01b038e168352909352919091205463ffffffff91821691613597918d9116614e95565b63ffffffff1611156135bc5760405163b4f3729b60e01b815260040160405180910390fd5b6040810151156136635780604001516136458989808060200260200160405190810160405280939291908181526020018383602002808284376000920191909152505060405161362a92508e915060200160609190911b6bffffffffffffffffffffffff1916815260140190565b60405160208183030381529060405280519060200120613d40565b14613663576040516309bde33960e01b815260040160405180910390fd5b60008281526013602090815260408083206001600160a01b038d168452909152812080548c929061369b90849063ffffffff16614e95565b92506101000a81548163ffffffff021916908363ffffffff1602179055508963ffffffff166014600084815260200190815260200160002060008282546136e29190614da3565b909155506136f890508963ffffffff8c166137ce565b50505050505050505050565b600880546001600160a01b038381166001600160a01b0319831681179093556040519116919082907f8be0079c531659141344cd1fd0a4f28419497f9722a3daafe3b4186f6b6457e090600090a35050565b806001600160401b0316826001600160401b031610610efa57604051631750215560e11b815260040160405180910390fd5b604080516080810182526000808252602082018190529181018290526060810191909152600082815260046020526040902054610e7d90613d8d565b6000610e7d825490565b610efa828260405180602001604052806000815250613dd4565b60008060006137f78585613e3a565b9092509050600081600481111561381057613810614eb2565b14801561382e5750856001600160a01b0316826001600160a01b0316145b1561383e57600192505050611384565b600080876001600160a01b0316631626ba7e60e01b8888604051602401613866929190614ec8565b60408051601f198184030181529181526020820180516001600160e01b03166001600160e01b03199094169390931790925290516138a49190614ee1565b600060405180830381855afa9150503d80600081146138df576040519150601f19603f3d011682016040523d82523d6000602084013e6138e4565b606091505b50915091508180156138f7575080516020145b801561391e57508051630b135d3f60e11b9061391c9083016020908101908401614efd565b145b98975050505050505050565b604051630a85bd0160e11b81526000906001600160a01b0385169063150b7a029061395f903390899088908890600401614f16565b6020604051808303816000875af192505050801561399a575060408051601f3d908101601f1916820190925261399791810190614f53565b60015b6139f8573d8080156139c8576040519150601f19603f3d011682016040523d82523d6000602084013e6139cd565b606091505b5080516000036139f0576040516368d2bf6b60e11b815260040160405180910390fd5b805181602001fd5b6001600160e01b031916630a85bd0160e11b149050949350505050565b604080516080810182526000808252602082018190529181018290526060810191909152610e7d613a458361322d565b613d8d565b606060a06040510180604052602081039150506000815280825b600183039250600a81066030018353600a900480613a645750819003601f19909101908152919050565b6017546000819003613ab3576040516313a8ad7d60e11b815260040160405180910390fd5b6001600160a01b038216600090815260186020526040902080546001600160d81b03811690600160f81b900460ff1615613b0057604051638246991960e01b815260040160405180910390fd5b81546001600160f81b038116600160f81b178355600090613b2b9085906001600160d81b0316614db6565b90506000856001600160a01b03168260405160006040518083038185875af1925050503d8060008114613b7a576040519150601f19603f3d011682016040523d82523d6000602084013e613b7f565b606091505b5050905080613ba1576040516312171d8360e31b815260040160405180910390fd5b6000613bad8685614a79565b90508015613c08578454600160d81b900463ffffffff1615613be257604051632aeca36d60e11b815260040160405180910390fd5b845463ffffffff60d81b1916600160d81b63ffffffff831602178555613c088782613c1d565b50505050505050565b60006113848383613e7f565b80600d5481613c2f6001546000540390565b613c399190614da3565b1115613c585760405163800113cb60e01b815260040160405180910390fd5b613c6283836137ce565b601554610100900460ff16158015613c7a5750600082115b15611784576015805461ff001916610100179055505050565b6000818152600183016020526040812054613cda57508154600181810184556000848152602080822090930184905584548482528286019093526040902091909155610e7d565b506000610e7d565b6011546000906001600160a01b03163314613cfe57603c613d02565b61012c5b9050613d176001600160401b03821642614cb2565b826001600160401b03161015610efa576040516313634e8d60e11b815260040160405180910390fd5b600081815b8451811015613d8557613d7182868381518110613d6457613d64614c83565b6020026020010151613ea9565b915080613d7d81614c99565b915050613d45565b509392505050565b604080516080810182526001600160a01b038316815260a083901c6001600160401b03166020820152600160e01b831615159181019190915260e89190911c606082015290565b613dde8383613ed8565b6001600160a01b0383163b15611784576000548281035b613e08600086838060010194508661392a565b613e25576040516368d2bf6b60e11b815260040160405180910390fd5b818110613df5578160005414612ce557600080fd5b6000808251604103613e705760208301516040840151606085015160001a613e6487828585613fd6565b94509450505050613e78565b506000905060025b9250929050565b6000826000018281548110613e9657613e96614c83565b9060005260206000200154905092915050565b6000818310613ec5576000828152602084905260409020611384565b6000838152602083905260409020611384565b6000805490829003613efd5760405163b562e8dd60e01b815260040160405180910390fd5b6001600160a01b03831660008181526005602090815260408083208054680100000000000000018802019055848352600490915281206001851460e11b4260a01b178317905582840190839083907fddf252ad1be2c89b69c2b068fc378daa952ba7f163c4a11628f55a4df523b3ef8180a4600183015b818114613fac57808360007fddf252ad1be2c89b69c2b068fc378daa952ba7f163c4a11628f55a4df523b3ef600080a4600101613f74565b5081600003613fcd57604051622e076360e81b815260040160405180910390fd5b60005550505050565b6000807f7fffffffffffffffffffffffffffffff5d576e7357a4501ddfe92f46681b20a083111561400d57506000905060036140ba565b8460ff16601b1415801561402557508460ff16601c14155b1561403657506000905060046140ba565b6040805160008082526020820180845289905260ff881692820192909252606081018690526080810185905260019060a0016020604051602081039080840390855afa15801561408a573d6000803e3d6000fd5b5050604051601f1901519150506001600160a01b0381166140b3576000600192509250506140ba565b9150600090505b94509492505050565b6001600160e01b031981168114612a5157600080fd5b6000602082840312156140eb57600080fd5b8135611384816140c3565b80356001600160a01b038116811461410d57600080fd5b919050565b60006020828403121561412457600080fd5b611384826140f6565b6000806040838503121561414057600080fd5b614149836140f6565b946020939093013593505050565b60005b8381101561417257818101518382015260200161415a565b50506000910152565b60008151808452614193816020860160208601614157565b601f01601f19169290920160200192915050565b602081526000611384602083018461417b565b6000602082840312156141cc57600080fd5b5035919050565b803563ffffffff8116811461410d57600080fd5b80356001600160401b038116811461410d57600080fd5b60008060006060848603121561421357600080fd5b61421c846140f6565b925061422a602085016141d3565b9150614238604085016141e7565b90509250925092565b60008060006060848603121561425657600080fd5b61425f846140f6565b925061426d602085016140f6565b9150604084013590509250925092565b8035801515811461410d57600080fd5b60006020828403121561429f57600080fd5b6113848261427d565b600080604083850312156142bb57600080fd5b6142c4836141e7565b91506142d2602084016141e7565b90509250929050565b60008083601f8401126142ed57600080fd5b5081356001600160401b0381111561430457600080fd5b602083019150836020828501011115613e7857600080fd5b6000806020838503121561432f57600080fd5b82356001600160401b0381111561434557600080fd5b614351858286016142db565b90969095509350505050565b60008083601f84011261436f57600080fd5b5081356001600160401b0381111561438657600080fd5b6020830191508360208260051b8501011115613e7857600080fd5b600080602083850312156143b457600080fd5b82356001600160401b038111156143ca57600080fd5b6143518582860161435d565b80516001600160a01b031682526020808201516001600160401b03169083015260408082015115159083015260609081015162ffffff16910152565b6020808252825182820181905260009190848201906040850190845b81811015611e96576144418385516143d6565b928401926080929092019160010161442e565b600080600080600080600060a0888a03121561446f57600080fd5b614478886141d3565b9650614486602089016140f6565b955060408801356001600160401b03808211156144a257600080fd5b6144ae8b838c0161435d565b90975095508591506144c260608b016141e7565b945060808a01359150808211156144d857600080fd5b506144e58a828b016142db565b989b979a50959850939692959293505050565b60006020828403121561450a57600080fd5b611384826141e7565b80356001600160501b038116811461410d57600080fd5b803562ffffff8116811461410d57600080fd5b600080600080600080600060e0888a03121561455857600080fd5b8735965061456860208901614513565b9550614576604089016141d3565b94506060880135935061458b6080890161452a565b925061459960a089016141e7565b91506145a760c089016141e7565b905092959891949750929550565b6020808252825182820181905260009190848201906040850190845b81811015611e96578351835292840192918401916001016145d1565b6000806020838503121561460057600080fd5b82356001600160401b038082111561461757600080fd5b818501915085601f83011261462b57600080fd5b81358181111561463a57600080fd5b86602060c08302850101111561464f57600080fd5b60209290920196919550909350505050565b60008060006060848603121561467657600080fd5b61467f846140f6565b95602085013595506040909401359392505050565b600080604083850312156146a757600080fd5b6146b0836140f6565b91506142d26020840161427d565b600080604083850312156146d157600080fd5b6146da836141d3565b91506142d2602084016140f6565b634e487b7160e01b600052604160045260246000fd5b600082601f83011261470f57600080fd5b81356001600160401b0380821115614729576147296146e8565b604051601f8301601f19908116603f01168101908282118183101715614751576147516146e8565b8160405283815286602085880101111561476a57600080fd5b836020870160208301376000602085830101528094505050505092915050565b600080600080608085870312156147a057600080fd5b6147a9856140f6565b93506147b7602086016141d3565b92506147c5604086016141e7565b915060608501356001600160401b038111156147e057600080fd5b6147ec878288016146fe565b91505092959194509250565b6000806000806080858703121561480e57600080fd5b614817856140f6565b9350614825602086016140f6565b92506040850135915060608501356001600160401b038111156147e057600080fd5b60808101610e7d82846143d6565b6000806040838503121561486857600080fd5b6146da836140f6565b6000806040838503121561488457600080fd5b50508035926020909101359150565b60608082528451828201819052600091906020906080850190828901855b828110156148f9576148e984835180516001600160d81b0316825260208082015163ffffffff16908301526040908101511515910152565b92850192908401906001016148b1565b50505084810382860152865180825290820192508682019060005b818110156149395782516001600160a01b031685529383019391830191600101614914565b50505050604092909201929092529392505050565b6000806000806000806080878903121561496757600080fd5b614970876141d3565b955060208701356001600160401b038082111561498c57600080fd5b6149988a838b0161435d565b90975095508591506149ac60408a016141e7565b945060608901359150808211156149c257600080fd5b506149cf89828a016142db565b979a9699509497509295939492505050565b81516001600160d81b0316815260208083015163ffffffff169082015260408083015115159082015260608101610e7d565b600181811c90821680614a2757607f821691505b602082108103614a4757634e487b7160e01b600052602260045260246000fd5b50919050565b634e487b7160e01b600052601260045260246000fd5b634e487b7160e01b600052601160045260246000fd5b600082614a8857614a88614a4d565b500490565b6000602080835260008454614aa181614a13565b80848701526040600180841660008114614ac25760018114614adc57614b0a565b60ff1985168984015283151560051b890183019550614b0a565b896000528660002060005b85811015614b025781548b8201860152908301908801614ae7565b8a0184019650505b509398975050505050505050565b6020808252601f908201527f5265656e7472616e637947756172643a207265656e7472616e742063616c6c00604082015260600190565b601f82111561178457600081815260208120601f850160051c81016020861015614b765750805b601f850160051c820191505b8181101561151c57828155600101614b82565b6001600160401b03831115614bac57614bac6146e8565b614bc083614bba8354614a13565b83614b4f565b6000601f841160018114614bf45760008515614bdc5750838201355b600019600387901b1c1916600186901b178355612ce5565b600083815260209020601f19861690835b82811015614c255786850135825560209485019460019092019101614c05565b5086821015614c425760001960f88860031b161c19848701351681555b505060018560011b0183555050505050565b60208152816020820152818360408301376000818301604090810191909152601f909201601f19160101919050565b634e487b7160e01b600052603260045260246000fd5b600060018201614cab57614cab614a63565b5060010190565b81810381811115610e7d57610e7d614a63565b6001600160401b03818116838216019080821115614ce557614ce5614a63565b5092915050565b9687526001600160501b0395909516602087015263ffffffff939093166040860152606085019190915262ffffff1660808401526001600160401b0390811660a08401521660c082015260e00190565b634e487b7160e01b600052603160045260246000fd5b600060208284031215614d6457600080fd5b61138482614513565b600060208284031215614d7f57600080fd5b611384826141d3565b600060208284031215614d9a57600080fd5b6113848261452a565b80820180821115610e7d57610e7d614a63565b600082614dc557614dc5614a4d565b500690565b600084516020614ddd8285838a01614157565b855191840191614df08184848a01614157565b8554920191600090614e0181614a13565b60018281168015614e195760018114614e2e57614e5a565b60ff1984168752821515830287019450614e5a565b896000528560002060005b84811015614e5257815489820152908301908701614e39565b505082870194505b50929a9950505050505050505050565b6001600160501b03818116838216028082169190828114614e8d57614e8d614a63565b505092915050565b63ffffffff818116838216019080821115614ce557614ce5614a63565b634e487b7160e01b600052602160045260246000fd5b828152604060208201526000611381604083018461417b565b60008251614ef3818460208701614157565b9190910192915050565b600060208284031215614f0f57600080fd5b5051919050565b6001600160a01b0385811682528416602082015260408101839052608060608201819052600090614f499083018461417b565b9695505050505050565b600060208284031215614f6557600080fd5b8151611384816140c356fea264697066735822122090333c8818cbda7dbeb44f204bc3f4d9b64cedb6c8ad4bc559b664017da3394964736f6c63430008110033",
  "devdoc": {
    "kind": "dev",
    "methods": {
      "amountPurchased(address)": {
        "params": {
          "user": "user's address to query."
        }
      },
      "approve(address,uint256)": {
        "details": "Gives permission to `to` to transfer `tokenId` token to another account. The approval is cleared when the token is transferred. Only a single account can be approved at a time, so approving the zero address clears previous approvals. Requirements: - The caller must own the token or be an approved operator. - `tokenId` must exist. Emits an {Approval} event."
      },
      "balanceOf(address)": {
        "details": "Returns the number of tokens in `owner`'s account."
      },
      "explicitOwnershipOf(uint256)": {
        "details": "Returns the `TokenOwnership` struct at `tokenId` without reverting. If the `tokenId` is out of bounds: - `addr = address(0)` - `startTimestamp = 0` - `burned = false` - `extraData = 0` If the `tokenId` is burned: - `addr = <Address of owner before token was burned>` - `startTimestamp = <Timestamp when token was burned>` - `burned = true` - `extraData = <Extra data when token was burned>` Otherwise: - `addr = <Address of owner>` - `startTimestamp = <Timestamp of start of ownership>` - `burned = false` - `extraData = <Extra data at start of ownership>`"
      },
      "explicitOwnershipsOf(uint256[])": {
        "details": "Returns an array of `TokenOwnership` structs at `tokenIds` in order. See {ERC721AQueryable-explicitOwnershipOf}"
      },
      "getApproved(uint256)": {
        "details": "Returns the account approved for `tokenId` token. Requirements: - `tokenId` must exist."
      },
      "isApprovedForAll(address,address)": {
        "details": "Returns if the `operator` is allowed to manage all of the assets of `owner`. See {setApprovalForAll}."
      },
      "name()": {
        "details": "Returns the token collection name."
      },
      "owner()": {
        "details": "Returns the address of the current owner."
      },
      "ownerOf(uint256)": {
        "details": "Returns the owner of the `tokenId` token. Requirements: - `tokenId` must exist."
      },
      "refundAmount(address)": {
        "params": {
          "user": "user's address to query."
        }
      },
      "renounceOwnership()": {
        "details": "Leaves the contract without owner. It will not be possible to call `onlyOwner` functions anymore. Can only be called by the current owner. NOTE: Renouncing ownership will leave the contract without an owner, thereby removing any functionality that is only available to the owner."
      },
      "safeTransferFrom(address,address,uint256)": {
        "details": "Equivalent to `safeTransferFrom(from, to, tokenId, '')`."
      },
      "safeTransferFrom(address,address,uint256,bytes)": {
        "details": "Safely transfers `tokenId` token from `from` to `to`. Requirements: - `from` cannot be the zero address. - `to` cannot be the zero address. - `tokenId` token must exist and be owned by `from`. - If the caller is not `from`, it must be approved to move this token by either {approve} or {setApprovalForAll}. - If `to` refers to a smart contract, it must implement {IERC721Receiver-onERC721Received}, which is called upon a safe transfer. Emits a {Transfer} event."
      },
      "sendAllTokens(address)": {
        "details": "if some tokens have already been sent, the remainder must be sent   using sendTokens().",
        "params": {
          "to": "address to send tokens to."
        }
      },
      "sendRefund(address)": {
        "details": "can only be called after the clearing price has been set.",
        "params": {
          "to": "the address to refund."
        }
      },
      "sendRefundBatch(address[])": {
        "params": {
          "addresses": "array of addresses to refund."
        }
      },
      "sendTokens(address,uint256)": {
        "details": "purchased amount for an address can be sent in multiple calls.   Can only be called after clearing price has been set.",
        "params": {
          "amount": "number of tokens to send.",
          "to": "address to send tokens to."
        }
      },
      "sendTokensAndRefund(address)": {
        "details": "can only be called after the clearing price has been set.",
        "params": {
          "to": "the address to refund."
        }
      },
      "sendTokensAndRefundBatch(address[])": {
        "params": {
          "addresses": "array of addresses to send tokens to."
        }
      },
      "sendTokensBatch(address[])": {
        "params": {
          "addresses": "array of addresses to send tokens to."
        }
      },
      "setApprovalForAll(address,bool)": {
        "details": "Approve or remove `operator` as an operator for the caller. Operators can call {transferFrom} or {safeTransferFrom} for any token owned by the caller. Requirements: - The `operator` cannot be the caller. Emits an {ApprovalForAll} event."
      },
      "setMinimumContribution(uint256)": {
        "details": "set this price in wei, not eth!",
        "params": {
          "minimumContributionInWei": "new price, set in wei"
        }
      },
      "setPrice(uint256)": {
        "details": "set this price in wei, not eth!",
        "params": {
          "priceInWei": "new price, set in wei"
        }
      },
      "setStartAndEndTimeUnixSeconds(uint64,uint64)": {
        "details": "cannot be reactivated after price has been set.",
        "params": {
          "endTime": "set to unix timestamp for the auction end time.",
          "startTime": "set to unix timestamp for the auction start time."
        }
      },
      "supportsInterface(bytes4)": {
        "details": "Returns true if this contract implements the interface defined by `interfaceId`. See the corresponding [EIP section](https://eips.ethereum.org/EIPS/eip-165#how-interfaces-are-identified) to learn more about how these ids are created. This function call must use less than 30000 gas."
      },
      "symbol()": {
        "details": "Returns the token collection symbol."
      },
      "tokensOfOwner(address)": {
        "details": "Returns an array of token IDs owned by `owner`. This function scans the ownership mapping and is O(`totalSupply`) in complexity. It is meant to be called off-chain. See {ERC721AQueryable-tokensOfOwnerIn} for splitting the scan into multiple smaller scans if the collection is large enough to cause an out-of-gas error (10K collections should be fine)."
      },
      "tokensOfOwnerIn(address,uint256,uint256)": {
        "details": "Returns an array of token IDs owned by `owner`, in the range [`start`, `stop`) (i.e. `start <= tokenId < stop`). This function allows for tokens to be queried if the collection grows too big for a single call of {ERC721AQueryable-tokensOfOwner}. Requirements: - `start < stop`"
      },
      "totalSupply()": {
        "details": "Returns the total number of tokens in existence. Burned tokens will reduce the count. To get the total number of tokens minted, please see {_totalMinted}."
      },
      "transferFrom(address,address,uint256)": {
        "details": "Transfers `tokenId` from `from` to `to`. Requirements: - `from` cannot be the zero address. - `to` cannot be the zero address. - `tokenId` token must be owned by `from`. - If the caller is not `from`, it must be approved to move this token by either {approve} or {setApprovalForAll}. Emits a {Transfer} event."
      },
      "transferOwnership(address)": {
        "details": "Transfers ownership of the contract to a new account (`newOwner`). Can only be called by the current owner."
      }
    },
    "version": 1
  },
  "userdoc": {
    "errors": {
      "ApprovalCallerNotOwnerNorApproved()": [
        {
          "notice": "The caller must own the token or be an approved operator."
        }
      ],
      "ApprovalQueryForNonexistentToken()": [
        {
          "notice": "The token does not exist."
        }
      ],
      "BalanceQueryForZeroAddress()": [
        {
          "notice": "Cannot query the balance for the zero address."
        }
      ],
      "InvalidQueryRange()": [
        {
          "notice": "Invalid query range (`start` >= `stop`)."
        }
      ],
      "MintERC2309QuantityExceedsLimit()": [
        {
          "notice": "The `quantity` minted with ERC2309 exceeds the safety limit."
        }
      ],
      "MintToZeroAddress()": [
        {
          "notice": "Cannot mint to the zero address."
        }
      ],
      "MintZeroQuantity()": [
        {
          "notice": "The quantity of tokens minted must be more than zero."
        }
      ],
      "OwnerQueryForNonexistentToken()": [
        {
          "notice": "The token does not exist."
        }
      ],
      "OwnershipNotInitializedForExtraData()": [
        {
          "notice": "The `extraData` cannot be set on an unintialized ownership slot."
        }
      ],
      "TransferCallerNotOwnerNorApproved()": [
        {
          "notice": "The caller must own the token or be an approved operator."
        }
      ],
      "TransferFromIncorrectOwner()": [
        {
          "notice": "The token must be owned by `from`."
        }
      ],
      "TransferToNonERC721ReceiverImplementer()": [
        {
          "notice": "Cannot safely transfer to a contract that does not implement the ERC721Receiver interface."
        }
      ],
      "TransferToZeroAddress()": [
        {
          "notice": "Cannot transfer to the zero address."
        }
      ],
      "URIQueryForNonexistentToken()": [
        {
          "notice": "The token does not exist."
        }
      ]
    },
    "kind": "user",
    "methods": {
      "amountPurchased(address)": {
        "notice": "get the number of tokens purchased by an address, after the   clearing price has been set."
      },
      "bid()": {
        "notice": "place a bid in ETH or add to your existing bid. Calling this   multiple times will increase your bid amount. All bids placed are final   and cannot be reversed."
      },
      "refundAmount(address)": {
        "notice": "get the refund amount for an account, after the clearing price   has been set."
      },
      "sendAllTokens(address)": {
        "notice": "send all of an address's purchased tokens."
      },
      "sendRefund(address)": {
        "notice": "send refund to an address. Refunds are unsuccessful bids or   an address's remaining eth after all their tokens have been paid for."
      },
      "sendRefundBatch(address[])": {
        "notice": "send refunds to a batch of addresses."
      },
      "sendTokens(address,uint256)": {
        "notice": "mint tokens to an address."
      },
      "sendTokensAndRefund(address)": {
        "notice": "send refunds and tokens to an address."
      },
      "sendTokensAndRefundBatch(address[])": {
        "notice": "send refunds and tokens to a batch of addresses."
      },
      "sendTokensBatch(address[])": {
        "notice": "send tokens to a batch of addresses."
      },
      "setMinimumContribution(uint256)": {
        "notice": "set the minimum contribution required to place a bid"
      },
      "setPrice(uint256)": {
        "notice": "set the clearing price after all bids have been placed."
      },
      "setStartAndEndTimeUnixSeconds(uint64,uint64)": {
        "notice": "set the start and end times in unix seconds for the bucket auction."
      }
    },
    "version": 1
  },
  "storageLayout": {
    "storage": [
      {
        "astId": 6101,
        "contract": "contracts/BucketAuction.sol:BucketAuction",
        "label": "_currentIndex",
        "offset": 0,
        "slot": "0",
        "type": "t_uint256"
      },
      {
        "astId": 6103,
        "contract": "contracts/BucketAuction.sol:BucketAuction",
        "label": "_burnCounter",
        "offset": 0,
        "slot": "1",
        "type": "t_uint256"
      },
      {
        "astId": 6105,
        "contract": "contracts/BucketAuction.sol:BucketAuction",
        "label": "_name",
        "offset": 0,
        "slot": "2",
        "type": "t_string_storage"
      },
      {
        "astId": 6107,
        "contract": "contracts/BucketAuction.sol:BucketAuction",
        "label": "_symbol",
        "offset": 0,
        "slot": "3",
        "type": "t_string_storage"
      },
      {
        "astId": 6111,
        "contract": "contracts/BucketAuction.sol:BucketAuction",
        "label": "_packedOwnerships",
        "offset": 0,
        "slot": "4",
        "type": "t_mapping(t_uint256,t_uint256)"
      },
      {
        "astId": 6115,
        "contract": "contracts/BucketAuction.sol:BucketAuction",
        "label": "_packedAddressData",
        "offset": 0,
        "slot": "5",
        "type": "t_mapping(t_address,t_uint256)"
      },
      {
        "astId": 6120,
        "contract": "contracts/BucketAuction.sol:BucketAuction",
        "label": "_tokenApprovals",
        "offset": 0,
        "slot": "6",
        "type": "t_mapping(t_uint256,t_struct(TokenApprovalRef)6033_storage)"
      },
      {
        "astId": 6126,
        "contract": "contracts/BucketAuction.sol:BucketAuction",
        "label": "_operatorApprovals",
        "offset": 0,
        "slot": "7",
        "type": "t_mapping(t_address,t_mapping(t_address,t_bool))"
      },
      {
        "astId": 400,
        "contract": "contracts/BucketAuction.sol:BucketAuction",
        "label": "_owner",
        "offset": 0,
        "slot": "8",
        "type": "t_address"
      },
      {
        "astId": 549,
        "contract": "contracts/BucketAuction.sol:BucketAuction",
        "label": "_status",
        "offset": 0,
        "slot": "9",
        "type": "t_uint256"
      },
      {
        "astId": 3875,
        "contract": "contracts/BucketAuction.sol:BucketAuction",
        "label": "_mintable",
        "offset": 0,
        "slot": "10",
        "type": "t_bool"
      },
      {
        "astId": 3877,
        "contract": "contracts/BucketAuction.sol:BucketAuction",
        "label": "_currentBaseURI",
        "offset": 0,
        "slot": "11",
        "type": "t_string_storage"
      },
      {
        "astId": 3879,
        "contract": "contracts/BucketAuction.sol:BucketAuction",
        "label": "_activeStage",
        "offset": 0,
        "slot": "12",
        "type": "t_uint256"
      },
      {
        "astId": 3881,
        "contract": "contracts/BucketAuction.sol:BucketAuction",
        "label": "_maxMintableSupply",
        "offset": 0,
        "slot": "13",
        "type": "t_uint256"
      },
      {
        "astId": 3883,
        "contract": "contracts/BucketAuction.sol:BucketAuction",
        "label": "_globalWalletLimit",
        "offset": 0,
        "slot": "14",
        "type": "t_uint256"
      },
      {
        "astId": 3885,
        "contract": "contracts/BucketAuction.sol:BucketAuction",
        "label": "_tokenURISuffix",
        "offset": 0,
        "slot": "15",
        "type": "t_string_storage"
      },
      {
        "astId": 3887,
        "contract": "contracts/BucketAuction.sol:BucketAuction",
        "label": "_baseURIPermanent",
        "offset": 0,
        "slot": "16",
        "type": "t_bool"
      },
      {
        "astId": 3889,
        "contract": "contracts/BucketAuction.sol:BucketAuction",
        "label": "_cosigner",
        "offset": 1,
        "slot": "16",
        "type": "t_address"
      },
      {
        "astId": 3891,
        "contract": "contracts/BucketAuction.sol:BucketAuction",
        "label": "_crossmintAddress",
        "offset": 0,
        "slot": "17",
        "type": "t_address"
      },
      {
        "astId": 3895,
        "contract": "contracts/BucketAuction.sol:BucketAuction",
        "label": "_mintStages",
        "offset": 0,
        "slot": "18",
        "type": "t_array(t_struct(MintStageInfo)5810_storage)dyn_storage"
      },
      {
        "astId": 3901,
        "contract": "contracts/BucketAuction.sol:BucketAuction",
        "label": "_stageMintedCountsPerWallet",
        "offset": 0,
        "slot": "19",
        "type": "t_mapping(t_uint256,t_mapping(t_address,t_uint32))"
      },
      {
        "astId": 3905,
        "contract": "contracts/BucketAuction.sol:BucketAuction",
        "label": "_stageMintedCounts",
        "offset": 0,
        "slot": "20",
        "type": "t_mapping(t_uint256,t_uint256)"
      },
      {
        "astId": 2946,
        "contract": "contracts/BucketAuction.sol:BucketAuction",
        "label": "_claimable",
        "offset": 0,
        "slot": "21",
        "type": "t_bool"
      },
      {
        "astId": 2948,
        "contract": "contracts/BucketAuction.sol:BucketAuction",
        "label": "_firstTokenSent",
        "offset": 1,
        "slot": "21",
        "type": "t_bool"
      },
      {
        "astId": 2950,
        "contract": "contracts/BucketAuction.sol:BucketAuction",
        "label": "_startTimeUnixSeconds",
        "offset": 2,
        "slot": "21",
        "type": "t_uint64"
      },
      {
        "astId": 2952,
        "contract": "contracts/BucketAuction.sol:BucketAuction",
        "label": "_endTimeUnixSeconds",
        "offset": 10,
        "slot": "21",
        "type": "t_uint64"
      },
      {
        "astId": 2954,
        "contract": "contracts/BucketAuction.sol:BucketAuction",
        "label": "_minimumContributionInWei",
        "offset": 0,
        "slot": "22",
        "type": "t_uint256"
      },
      {
        "astId": 2956,
        "contract": "contracts/BucketAuction.sol:BucketAuction",
        "label": "_price",
        "offset": 0,
        "slot": "23",
        "type": "t_uint256"
      },
      {
        "astId": 2961,
        "contract": "contracts/BucketAuction.sol:BucketAuction",
        "label": "_userData",
        "offset": 0,
        "slot": "24",
        "type": "t_mapping(t_address,t_struct(User)5729_storage)"
      },
      {
        "astId": 2964,
        "contract": "contracts/BucketAuction.sol:BucketAuction",
        "label": "_users",
        "offset": 0,
        "slot": "25",
        "type": "t_struct(AddressSet)2640_storage"
      }
    ],
    "types": {
      "t_address": {
        "encoding": "inplace",
        "label": "address",
        "numberOfBytes": "20"
      },
      "t_array(t_bytes32)dyn_storage": {
        "base": "t_bytes32",
        "encoding": "dynamic_array",
        "label": "bytes32[]",
        "numberOfBytes": "32"
      },
      "t_array(t_struct(MintStageInfo)5810_storage)dyn_storage": {
        "base": "t_struct(MintStageInfo)5810_storage",
        "encoding": "dynamic_array",
        "label": "struct IERC721I.MintStageInfo[]",
        "numberOfBytes": "32"
      },
      "t_bool": {
        "encoding": "inplace",
        "label": "bool",
        "numberOfBytes": "1"
      },
      "t_bytes32": {
        "encoding": "inplace",
        "label": "bytes32",
        "numberOfBytes": "32"
      },
      "t_mapping(t_address,t_bool)": {
        "encoding": "mapping",
        "key": "t_address",
        "label": "mapping(address => bool)",
        "numberOfBytes": "32",
        "value": "t_bool"
      },
      "t_mapping(t_address,t_mapping(t_address,t_bool))": {
        "encoding": "mapping",
        "key": "t_address",
        "label": "mapping(address => mapping(address => bool))",
        "numberOfBytes": "32",
        "value": "t_mapping(t_address,t_bool)"
      },
      "t_mapping(t_address,t_struct(User)5729_storage)": {
        "encoding": "mapping",
        "key": "t_address",
        "label": "mapping(address => struct IBucketAuction.User)",
        "numberOfBytes": "32",
        "value": "t_struct(User)5729_storage"
      },
      "t_mapping(t_address,t_uint256)": {
        "encoding": "mapping",
        "key": "t_address",
        "label": "mapping(address => uint256)",
        "numberOfBytes": "32",
        "value": "t_uint256"
      },
      "t_mapping(t_address,t_uint32)": {
        "encoding": "mapping",
        "key": "t_address",
        "label": "mapping(address => uint32)",
        "numberOfBytes": "32",
        "value": "t_uint32"
      },
      "t_mapping(t_bytes32,t_uint256)": {
        "encoding": "mapping",
        "key": "t_bytes32",
        "label": "mapping(bytes32 => uint256)",
        "numberOfBytes": "32",
        "value": "t_uint256"
      },
      "t_mapping(t_uint256,t_mapping(t_address,t_uint32))": {
        "encoding": "mapping",
        "key": "t_uint256",
        "label": "mapping(uint256 => mapping(address => uint32))",
        "numberOfBytes": "32",
        "value": "t_mapping(t_address,t_uint32)"
      },
      "t_mapping(t_uint256,t_struct(TokenApprovalRef)6033_storage)": {
        "encoding": "mapping",
        "key": "t_uint256",
        "label": "mapping(uint256 => struct ERC721A.TokenApprovalRef)",
        "numberOfBytes": "32",
        "value": "t_struct(TokenApprovalRef)6033_storage"
      },
      "t_mapping(t_uint256,t_uint256)": {
        "encoding": "mapping",
        "key": "t_uint256",
        "label": "mapping(uint256 => uint256)",
        "numberOfBytes": "32",
        "value": "t_uint256"
      },
      "t_string_storage": {
        "encoding": "bytes",
        "label": "string",
        "numberOfBytes": "32"
      },
      "t_struct(AddressSet)2640_storage": {
        "encoding": "inplace",
        "label": "struct EnumerableSet.AddressSet",
        "members": [
          {
            "astId": 2639,
            "contract": "contracts/BucketAuction.sol:BucketAuction",
            "label": "_inner",
            "offset": 0,
            "slot": "0",
            "type": "t_struct(Set)2339_storage"
          }
        ],
        "numberOfBytes": "64"
      },
      "t_struct(MintStageInfo)5810_storage": {
        "encoding": "inplace",
        "label": "struct IERC721I.MintStageInfo",
        "members": [
          {
            "astId": 5799,
            "contract": "contracts/BucketAuction.sol:BucketAuction",
            "label": "price",
            "offset": 0,
            "slot": "0",
            "type": "t_uint80"
          },
          {
            "astId": 5801,
            "contract": "contracts/BucketAuction.sol:BucketAuction",
            "label": "walletLimit",
            "offset": 10,
            "slot": "0",
            "type": "t_uint32"
          },
          {
            "astId": 5803,
            "contract": "contracts/BucketAuction.sol:BucketAuction",
            "label": "merkleRoot",
            "offset": 0,
            "slot": "1",
            "type": "t_bytes32"
          },
          {
            "astId": 5805,
            "contract": "contracts/BucketAuction.sol:BucketAuction",
            "label": "maxStageSupply",
            "offset": 0,
            "slot": "2",
            "type": "t_uint24"
          },
          {
            "astId": 5807,
            "contract": "contracts/BucketAuction.sol:BucketAuction",
            "label": "startTimeUnixSeconds",
            "offset": 3,
            "slot": "2",
            "type": "t_uint64"
          },
          {
            "astId": 5809,
            "contract": "contracts/BucketAuction.sol:BucketAuction",
            "label": "endTimeUnixSeconds",
            "offset": 11,
            "slot": "2",
            "type": "t_uint64"
          }
        ],
        "numberOfBytes": "96"
      },
      "t_struct(Set)2339_storage": {
        "encoding": "inplace",
        "label": "struct EnumerableSet.Set",
        "members": [
          {
            "astId": 2334,
            "contract": "contracts/BucketAuction.sol:BucketAuction",
            "label": "_values",
            "offset": 0,
            "slot": "0",
            "type": "t_array(t_bytes32)dyn_storage"
          },
          {
            "astId": 2338,
            "contract": "contracts/BucketAuction.sol:BucketAuction",
            "label": "_indexes",
            "offset": 0,
            "slot": "1",
            "type": "t_mapping(t_bytes32,t_uint256)"
          }
        ],
        "numberOfBytes": "64"
      },
      "t_struct(TokenApprovalRef)6033_storage": {
        "encoding": "inplace",
        "label": "struct ERC721A.TokenApprovalRef",
        "members": [
          {
            "astId": 6032,
            "contract": "contracts/BucketAuction.sol:BucketAuction",
            "label": "value",
            "offset": 0,
            "slot": "0",
            "type": "t_address"
          }
        ],
        "numberOfBytes": "32"
      },
      "t_struct(User)5729_storage": {
        "encoding": "inplace",
        "label": "struct IBucketAuction.User",
        "members": [
          {
            "astId": 5724,
            "contract": "contracts/BucketAuction.sol:BucketAuction",
            "label": "contribution",
            "offset": 0,
            "slot": "0",
            "type": "t_uint216"
          },
          {
            "astId": 5726,
            "contract": "contracts/BucketAuction.sol:BucketAuction",
            "label": "tokensClaimed",
            "offset": 27,
            "slot": "0",
            "type": "t_uint32"
          },
          {
            "astId": 5728,
            "contract": "contracts/BucketAuction.sol:BucketAuction",
            "label": "refundClaimed",
            "offset": 31,
            "slot": "0",
            "type": "t_bool"
          }
        ],
        "numberOfBytes": "32"
      },
      "t_uint216": {
        "encoding": "inplace",
        "label": "uint216",
        "numberOfBytes": "27"
      },
      "t_uint24": {
        "encoding": "inplace",
        "label": "uint24",
        "numberOfBytes": "3"
      },
      "t_uint256": {
        "encoding": "inplace",
        "label": "uint256",
        "numberOfBytes": "32"
      },
      "t_uint32": {
        "encoding": "inplace",
        "label": "uint32",
        "numberOfBytes": "4"
      },
      "t_uint64": {
        "encoding": "inplace",
        "label": "uint64",
        "numberOfBytes": "8"
      },
      "t_uint80": {
        "encoding": "inplace",
        "label": "uint80",
        "numberOfBytes": "10"
      }
    }
  }
}