{
  "address": "0xea1aD915924A7AAb57668a84C9b978E10545D267",
  "abi": [
    {
      "inputs": [
        {
          "internalType": "string",
          "name": "collectionName",
          "type": "string"
        },
        {
          "internalType": "string",
          "name": "collectionSymbol",
          "type": "string"
        },
        {
          "internalType": "string",
          "name": "tokenURISuffix",
          "type": "string"
        },
        {
          "internalType": "uint256",
          "name": "maxMintableSupply",
          "type": "uint256"
        },
        {
          "internalType": "uint256",
          "name": "globalWalletLimit",
          "type": "uint256"
        },
        {
          "internalType": "address",
          "name": "cosigner",
          "type": "address"
        }
      ],
      "stateMutability": "nonpayable",
      "type": "constructor"
    },
    {
      "inputs": [],
      "name": "ApprovalCallerNotOwnerNorApproved",
      "type": "error"
    },
    {
      "inputs": [],
      "name": "ApprovalQueryForNonexistentToken",
      "type": "error"
    },
    {
      "inputs": [],
      "name": "BalanceQueryForZeroAddress",
      "type": "error"
    },
    {
      "inputs": [],
      "name": "CannotIncreaseMaxMintableSupply",
      "type": "error"
    },
    {
      "inputs": [],
      "name": "CannotUpdatePermanentBaseURI",
      "type": "error"
    },
    {
      "inputs": [],
      "name": "CosignerNotSet",
      "type": "error"
    },
    {
      "inputs": [],
      "name": "CrossmintAddressNotSet",
      "type": "error"
    },
    {
      "inputs": [],
      "name": "CrossmintOnly",
      "type": "error"
    },
    {
      "inputs": [],
      "name": "GlobalWalletLimitOverflow",
      "type": "error"
    },
    {
      "inputs": [],
      "name": "InsufficientStageTimeGap",
      "type": "error"
    },
    {
      "inputs": [],
      "name": "InvalidCosignSignature",
      "type": "error"
    },
    {
      "inputs": [],
      "name": "InvalidProof",
      "type": "error"
    },
    {
      "inputs": [],
      "name": "InvalidQueryRange",
      "type": "error"
    },
    {
      "inputs": [],
      "name": "InvalidStage",
      "type": "error"
    },
    {
      "inputs": [],
      "name": "InvalidStageArgsLength",
      "type": "error"
    },
    {
      "inputs": [],
      "name": "InvalidStartAndEndTimestamp",
      "type": "error"
    },
    {
      "inputs": [],
      "name": "MintERC2309QuantityExceedsLimit",
      "type": "error"
    },
    {
      "inputs": [],
      "name": "MintToZeroAddress",
      "type": "error"
    },
    {
      "inputs": [],
      "name": "MintZeroQuantity",
      "type": "error"
    },
    {
      "inputs": [],
      "name": "NoSupplyLeft",
      "type": "error"
    },
    {
      "inputs": [],
      "name": "NotEnoughValue",
      "type": "error"
    },
    {
      "inputs": [],
      "name": "NotMintable",
      "type": "error"
    },
    {
      "inputs": [],
      "name": "OwnerQueryForNonexistentToken",
      "type": "error"
    },
    {
      "inputs": [],
      "name": "OwnershipNotInitializedForExtraData",
      "type": "error"
    },
    {
      "inputs": [],
      "name": "StageSupplyExceeded",
      "type": "error"
    },
    {
      "inputs": [],
      "name": "TimestampExpired",
      "type": "error"
    },
    {
      "inputs": [],
      "name": "TransferCallerNotOwnerNorApproved",
      "type": "error"
    },
    {
      "inputs": [],
      "name": "TransferFromIncorrectOwner",
      "type": "error"
    },
    {
      "inputs": [],
      "name": "TransferToNonERC721ReceiverImplementer",
      "type": "error"
    },
    {
      "inputs": [],
      "name": "TransferToZeroAddress",
      "type": "error"
    },
    {
      "inputs": [],
      "name": "URIQueryForNonexistentToken",
      "type": "error"
    },
    {
      "inputs": [],
      "name": "WalletGlobalLimitExceeded",
      "type": "error"
    },
    {
      "inputs": [],
      "name": "WalletStageLimitExceeded",
      "type": "error"
    },
    {
      "inputs": [],
      "name": "WithdrawFailed",
      "type": "error"
    },
    {
      "anonymous": false,
      "inputs": [
        {
          "indexed": true,
          "internalType": "address",
          "name": "owner",
          "type": "address"
        },
        {
          "indexed": true,
          "internalType": "address",
          "name": "approved",
          "type": "address"
        },
        {
          "indexed": true,
          "internalType": "uint256",
          "name": "tokenId",
          "type": "uint256"
        }
      ],
      "name": "Approval",
      "type": "event"
    },
    {
      "anonymous": false,
      "inputs": [
        {
          "indexed": true,
          "internalType": "address",
          "name": "owner",
          "type": "address"
        },
        {
          "indexed": true,
          "internalType": "address",
          "name": "operator",
          "type": "address"
        },
        {
          "indexed": false,
          "internalType": "bool",
          "name": "approved",
          "type": "bool"
        }
      ],
      "name": "ApprovalForAll",
      "type": "event"
    },
    {
      "anonymous": false,
      "inputs": [
        {
          "indexed": true,
          "internalType": "uint256",
          "name": "fromTokenId",
          "type": "uint256"
        },
        {
          "indexed": false,
          "internalType": "uint256",
          "name": "toTokenId",
          "type": "uint256"
        },
        {
          "indexed": true,
          "internalType": "address",
          "name": "from",
          "type": "address"
        },
        {
          "indexed": true,
          "internalType": "address",
          "name": "to",
          "type": "address"
        }
      ],
      "name": "ConsecutiveTransfer",
      "type": "event"
    },
    {
      "anonymous": false,
      "inputs": [
        {
          "indexed": true,
          "internalType": "address",
          "name": "previousOwner",
          "type": "address"
        },
        {
          "indexed": true,
          "internalType": "address",
          "name": "newOwner",
          "type": "address"
        }
      ],
      "name": "OwnershipTransferred",
      "type": "event"
    },
    {
      "anonymous": false,
      "inputs": [
        {
          "indexed": false,
          "internalType": "string",
          "name": "baseURI",
          "type": "string"
        }
      ],
      "name": "PermanentBaseURI",
      "type": "event"
    },
    {
      "anonymous": false,
      "inputs": [
        {
          "indexed": false,
          "internalType": "uint256",
          "name": "activeStage",
          "type": "uint256"
        }
      ],
      "name": "SetActiveStage",
      "type": "event"
    },
    {
      "anonymous": false,
      "inputs": [
        {
          "indexed": false,
          "internalType": "string",
          "name": "baseURI",
          "type": "string"
        }
      ],
      "name": "SetBaseURI",
      "type": "event"
    },
    {
      "anonymous": false,
      "inputs": [
        {
          "indexed": false,
          "internalType": "address",
          "name": "cosigner",
          "type": "address"
        }
      ],
      "name": "SetCosigner",
      "type": "event"
    },
    {
      "anonymous": false,
      "inputs": [
        {
          "indexed": false,
          "internalType": "address",
          "name": "crossmintAddress",
          "type": "address"
        }
      ],
      "name": "SetCrossmintAddress",
      "type": "event"
    },
    {
      "anonymous": false,
      "inputs": [
        {
          "indexed": false,
          "internalType": "uint256",
          "name": "globalWalletLimit",
          "type": "uint256"
        }
      ],
      "name": "SetGlobalWalletLimit",
      "type": "event"
    },
    {
      "anonymous": false,
      "inputs": [
        {
          "indexed": false,
          "internalType": "uint256",
          "name": "maxMintableSupply",
          "type": "uint256"
        }
      ],
      "name": "SetMaxMintableSupply",
      "type": "event"
    },
    {
      "anonymous": false,
      "inputs": [
        {
          "indexed": false,
          "internalType": "bool",
          "name": "mintable",
          "type": "bool"
        }
      ],
      "name": "SetMintable",
      "type": "event"
    },
    {
      "anonymous": false,
      "inputs": [
        {
          "indexed": true,
          "internalType": "address",
          "name": "from",
          "type": "address"
        },
        {
          "indexed": true,
          "internalType": "address",
          "name": "to",
          "type": "address"
        },
        {
          "indexed": true,
          "internalType": "uint256",
          "name": "tokenId",
          "type": "uint256"
        }
      ],
      "name": "Transfer",
      "type": "event"
    },
    {
      "anonymous": false,
      "inputs": [
        {
          "indexed": false,
          "internalType": "uint256",
          "name": "stage",
          "type": "uint256"
        },
        {
          "indexed": false,
          "internalType": "uint80",
          "name": "price",
          "type": "uint80"
        },
        {
          "indexed": false,
          "internalType": "uint32",
          "name": "walletLimit",
          "type": "uint32"
        },
        {
          "indexed": false,
          "internalType": "bytes32",
          "name": "merkleRoot",
          "type": "bytes32"
        },
        {
          "indexed": false,
          "internalType": "uint24",
          "name": "maxStageSupply",
          "type": "uint24"
        },
        {
          "indexed": false,
          "internalType": "uint64",
          "name": "startTimeUnixSeconds",
          "type": "uint64"
        },
        {
          "indexed": false,
          "internalType": "uint64",
          "name": "endTimeUnixSeconds",
          "type": "uint64"
        }
      ],
      "name": "UpdateStage",
      "type": "event"
    },
    {
      "anonymous": false,
      "inputs": [
        {
          "indexed": false,
          "internalType": "uint256",
          "name": "value",
          "type": "uint256"
        }
      ],
      "name": "Withdraw",
      "type": "event"
    },
    {
      "inputs": [],
      "name": "CROSSMINT_TIMESTAMP_EXPIRY_SECONDS",
      "outputs": [
        {
          "internalType": "uint64",
          "name": "",
          "type": "uint64"
        }
      ],
      "stateMutability": "view",
      "type": "function"
    },
    {
      "inputs": [],
      "name": "MIN_STAGE_INTERVAL_SECONDS",
      "outputs": [
        {
          "internalType": "uint64",
          "name": "",
          "type": "uint64"
        }
      ],
      "stateMutability": "view",
      "type": "function"
    },
    {
      "inputs": [
        {
          "internalType": "address",
          "name": "to",
          "type": "address"
        },
        {
          "internalType": "uint256",
          "name": "tokenId",
          "type": "uint256"
        }
      ],
      "name": "approve",
      "outputs": [],
      "stateMutability": "payable",
      "type": "function"
    },
    {
      "inputs": [
        {
          "internalType": "address",
          "name": "minter",
          "type": "address"
        },
        {
          "internalType": "uint32",
          "name": "qty",
          "type": "uint32"
        },
        {
          "internalType": "uint64",
          "name": "timestamp",
          "type": "uint64"
        },
        {
          "internalType": "bytes",
          "name": "signature",
          "type": "bytes"
        }
      ],
      "name": "assertValidCosign",
      "outputs": [],
      "stateMutability": "view",
      "type": "function"
    },
    {
      "inputs": [
        {
          "internalType": "address",
          "name": "owner",
          "type": "address"
        }
      ],
      "name": "balanceOf",
      "outputs": [
        {
          "internalType": "uint256",
          "name": "",
          "type": "uint256"
        }
      ],
      "stateMutability": "view",
      "type": "function"
    },
    {
      "inputs": [
        {
          "internalType": "uint32",
          "name": "qty",
          "type": "uint32"
        },
        {
          "internalType": "address",
          "name": "to",
          "type": "address"
        },
        {
          "internalType": "bytes32[]",
          "name": "proof",
          "type": "bytes32[]"
        },
        {
          "internalType": "uint64",
          "name": "timestamp",
          "type": "uint64"
        },
        {
          "internalType": "bytes",
          "name": "signature",
          "type": "bytes"
        }
      ],
      "name": "crossmint",
      "outputs": [],
      "stateMutability": "payable",
      "type": "function"
    },
    {
      "inputs": [
        {
          "internalType": "uint256",
          "name": "tokenId",
          "type": "uint256"
        }
      ],
      "name": "explicitOwnershipOf",
      "outputs": [
        {
          "components": [
            {
              "internalType": "address",
              "name": "addr",
              "type": "address"
            },
            {
              "internalType": "uint64",
              "name": "startTimestamp",
              "type": "uint64"
            },
            {
              "internalType": "bool",
              "name": "burned",
              "type": "bool"
            },
            {
              "internalType": "uint24",
              "name": "extraData",
              "type": "uint24"
            }
          ],
          "internalType": "struct IERC721A.TokenOwnership",
          "name": "",
          "type": "tuple"
        }
      ],
      "stateMutability": "view",
      "type": "function"
    },
    {
      "inputs": [
        {
          "internalType": "uint256[]",
          "name": "tokenIds",
          "type": "uint256[]"
        }
      ],
      "name": "explicitOwnershipsOf",
      "outputs": [
        {
          "components": [
            {
              "internalType": "address",
              "name": "addr",
              "type": "address"
            },
            {
              "internalType": "uint64",
              "name": "startTimestamp",
              "type": "uint64"
            },
            {
              "internalType": "bool",
              "name": "burned",
              "type": "bool"
            },
            {
              "internalType": "uint24",
              "name": "extraData",
              "type": "uint24"
            }
          ],
          "internalType": "struct IERC721A.TokenOwnership[]",
          "name": "",
          "type": "tuple[]"
        }
      ],
      "stateMutability": "view",
      "type": "function"
    },
    {
      "inputs": [],
      "name": "getActiveStage",
      "outputs": [
        {
          "internalType": "uint256",
          "name": "",
          "type": "uint256"
        }
      ],
      "stateMutability": "view",
      "type": "function"
    },
    {
      "inputs": [
        {
          "internalType": "uint64",
          "name": "timestamp",
          "type": "uint64"
        }
      ],
      "name": "getActiveStageFromTimestamp",
      "outputs": [
        {
          "internalType": "uint256",
          "name": "",
          "type": "uint256"
        }
      ],
      "stateMutability": "view",
      "type": "function"
    },
    {
      "inputs": [
        {
          "internalType": "uint256",
          "name": "tokenId",
          "type": "uint256"
        }
      ],
      "name": "getApproved",
      "outputs": [
        {
          "internalType": "address",
          "name": "",
          "type": "address"
        }
      ],
      "stateMutability": "view",
      "type": "function"
    },
    {
      "inputs": [
        {
          "internalType": "address",
          "name": "minter",
          "type": "address"
        },
        {
          "internalType": "uint32",
          "name": "qty",
          "type": "uint32"
        },
        {
          "internalType": "uint64",
          "name": "timestamp",
          "type": "uint64"
        }
      ],
      "name": "getCosignDigest",
      "outputs": [
        {
          "internalType": "bytes32",
          "name": "",
          "type": "bytes32"
        }
      ],
      "stateMutability": "view",
      "type": "function"
    },
    {
      "inputs": [
        {
          "internalType": "address",
          "name": "minter",
          "type": "address"
        }
      ],
      "name": "getCosignNonce",
      "outputs": [
        {
          "internalType": "uint256",
          "name": "",
          "type": "uint256"
        }
      ],
      "stateMutability": "view",
      "type": "function"
    },
    {
      "inputs": [],
      "name": "getCosigner",
      "outputs": [
        {
          "internalType": "address",
          "name": "",
          "type": "address"
        }
      ],
      "stateMutability": "view",
      "type": "function"
    },
    {
      "inputs": [],
      "name": "getCrossmintAddress",
      "outputs": [
        {
          "internalType": "address",
          "name": "",
          "type": "address"
        }
      ],
      "stateMutability": "view",
      "type": "function"
    },
    {
      "inputs": [],
      "name": "getGlobalWalletLimit",
      "outputs": [
        {
          "internalType": "uint256",
          "name": "",
          "type": "uint256"
        }
      ],
      "stateMutability": "view",
      "type": "function"
    },
    {
      "inputs": [],
      "name": "getMaxMintableSupply",
      "outputs": [
        {
          "internalType": "uint256",
          "name": "",
          "type": "uint256"
        }
      ],
      "stateMutability": "view",
      "type": "function"
    },
    {
      "inputs": [],
      "name": "getMintable",
      "outputs": [
        {
          "internalType": "bool",
          "name": "",
          "type": "bool"
        }
      ],
      "stateMutability": "view",
      "type": "function"
    },
    {
      "inputs": [],
      "name": "getNumberStages",
      "outputs": [
        {
          "internalType": "uint256",
          "name": "",
          "type": "uint256"
        }
      ],
      "stateMutability": "view",
      "type": "function"
    },
    {
      "inputs": [
        {
          "internalType": "uint256",
          "name": "index",
          "type": "uint256"
        }
      ],
      "name": "getStageInfo",
      "outputs": [
        {
          "components": [
            {
              "internalType": "uint80",
              "name": "price",
              "type": "uint80"
            },
            {
              "internalType": "uint32",
              "name": "walletLimit",
              "type": "uint32"
            },
            {
              "internalType": "bytes32",
              "name": "merkleRoot",
              "type": "bytes32"
            },
            {
              "internalType": "uint24",
              "name": "maxStageSupply",
              "type": "uint24"
            },
            {
              "internalType": "uint64",
              "name": "startTimeUnixSeconds",
              "type": "uint64"
            },
            {
              "internalType": "uint64",
              "name": "endTimeUnixSeconds",
              "type": "uint64"
            }
          ],
          "internalType": "struct IERC721I.MintStageInfo",
          "name": "",
          "type": "tuple"
        },
        {
          "internalType": "uint32",
          "name": "",
          "type": "uint32"
        },
        {
          "internalType": "uint256",
          "name": "",
          "type": "uint256"
        }
      ],
      "stateMutability": "view",
      "type": "function"
    },
    {
      "inputs": [],
      "name": "getTokenURISuffix",
      "outputs": [
        {
          "internalType": "string",
          "name": "",
          "type": "string"
        }
      ],
      "stateMutability": "view",
      "type": "function"
    },
    {
      "inputs": [
        {
          "internalType": "address",
          "name": "owner",
          "type": "address"
        },
        {
          "internalType": "address",
          "name": "operator",
          "type": "address"
        }
      ],
      "name": "isApprovedForAll",
      "outputs": [
        {
          "internalType": "bool",
          "name": "",
          "type": "bool"
        }
      ],
      "stateMutability": "view",
      "type": "function"
    },
    {
      "inputs": [
        {
          "internalType": "uint32",
          "name": "qty",
          "type": "uint32"
        },
        {
          "internalType": "bytes32[]",
          "name": "proof",
          "type": "bytes32[]"
        },
        {
          "internalType": "uint64",
          "name": "timestamp",
          "type": "uint64"
        },
        {
          "internalType": "bytes",
          "name": "signature",
          "type": "bytes"
        }
      ],
      "name": "mint",
      "outputs": [],
      "stateMutability": "payable",
      "type": "function"
    },
    {
      "inputs": [],
      "name": "name",
      "outputs": [
        {
          "internalType": "string",
          "name": "",
          "type": "string"
        }
      ],
      "stateMutability": "view",
      "type": "function"
    },
    {
      "inputs": [],
      "name": "owner",
      "outputs": [
        {
          "internalType": "address",
          "name": "",
          "type": "address"
        }
      ],
      "stateMutability": "view",
      "type": "function"
    },
    {
      "inputs": [
        {
          "internalType": "uint32",
          "name": "qty",
          "type": "uint32"
        },
        {
          "internalType": "address",
          "name": "to",
          "type": "address"
        }
      ],
      "name": "ownerMint",
      "outputs": [],
      "stateMutability": "nonpayable",
      "type": "function"
    },
    {
      "inputs": [
        {
          "internalType": "uint256",
          "name": "tokenId",
          "type": "uint256"
        }
      ],
      "name": "ownerOf",
      "outputs": [
        {
          "internalType": "address",
          "name": "",
          "type": "address"
        }
      ],
      "stateMutability": "view",
      "type": "function"
    },
    {
      "inputs": [],
      "name": "renounceOwnership",
      "outputs": [],
      "stateMutability": "nonpayable",
      "type": "function"
    },
    {
      "inputs": [
        {
          "internalType": "address",
          "name": "from",
          "type": "address"
        },
        {
          "internalType": "address",
          "name": "to",
          "type": "address"
        },
        {
          "internalType": "uint256",
          "name": "tokenId",
          "type": "uint256"
        }
      ],
      "name": "safeTransferFrom",
      "outputs": [],
      "stateMutability": "payable",
      "type": "function"
    },
    {
      "inputs": [
        {
          "internalType": "address",
          "name": "from",
          "type": "address"
        },
        {
          "internalType": "address",
          "name": "to",
          "type": "address"
        },
        {
          "internalType": "uint256",
          "name": "tokenId",
          "type": "uint256"
        },
        {
          "internalType": "bytes",
          "name": "_data",
          "type": "bytes"
        }
      ],
      "name": "safeTransferFrom",
      "outputs": [],
      "stateMutability": "payable",
      "type": "function"
    },
    {
      "inputs": [
        {
          "internalType": "uint256",
          "name": "activeStage",
          "type": "uint256"
        }
      ],
      "name": "setActiveStage",
      "outputs": [],
      "stateMutability": "nonpayable",
      "type": "function"
    },
    {
      "inputs": [
        {
          "internalType": "address",
          "name": "operator",
          "type": "address"
        },
        {
          "internalType": "bool",
          "name": "approved",
          "type": "bool"
        }
      ],
      "name": "setApprovalForAll",
      "outputs": [],
      "stateMutability": "nonpayable",
      "type": "function"
    },
    {
      "inputs": [
        {
          "internalType": "string",
          "name": "baseURI",
          "type": "string"
        }
      ],
      "name": "setBaseURI",
      "outputs": [],
      "stateMutability": "nonpayable",
      "type": "function"
    },
    {
      "inputs": [],
      "name": "setBaseURIPermanent",
      "outputs": [],
      "stateMutability": "nonpayable",
      "type": "function"
    },
    {
      "inputs": [
        {
          "internalType": "address",
          "name": "cosigner",
          "type": "address"
        }
      ],
      "name": "setCosigner",
      "outputs": [],
      "stateMutability": "nonpayable",
      "type": "function"
    },
    {
      "inputs": [
        {
          "internalType": "address",
          "name": "crossmintAddress",
          "type": "address"
        }
      ],
      "name": "setCrossmintAddress",
      "outputs": [],
      "stateMutability": "nonpayable",
      "type": "function"
    },
    {
      "inputs": [
        {
          "internalType": "uint256",
          "name": "globalWalletLimit",
          "type": "uint256"
        }
      ],
      "name": "setGlobalWalletLimit",
      "outputs": [],
      "stateMutability": "nonpayable",
      "type": "function"
    },
    {
      "inputs": [
        {
          "internalType": "uint256",
          "name": "maxMintableSupply",
          "type": "uint256"
        }
      ],
      "name": "setMaxMintableSupply",
      "outputs": [],
      "stateMutability": "nonpayable",
      "type": "function"
    },
    {
      "inputs": [
        {
          "internalType": "bool",
          "name": "mintable",
          "type": "bool"
        }
      ],
      "name": "setMintable",
      "outputs": [],
      "stateMutability": "nonpayable",
      "type": "function"
    },
    {
      "inputs": [
        {
          "components": [
            {
              "internalType": "uint80",
              "name": "price",
              "type": "uint80"
            },
            {
              "internalType": "uint32",
              "name": "walletLimit",
              "type": "uint32"
            },
            {
              "internalType": "bytes32",
              "name": "merkleRoot",
              "type": "bytes32"
            },
            {
              "internalType": "uint24",
              "name": "maxStageSupply",
              "type": "uint24"
            },
            {
              "internalType": "uint64",
              "name": "startTimeUnixSeconds",
              "type": "uint64"
            },
            {
              "internalType": "uint64",
              "name": "endTimeUnixSeconds",
              "type": "uint64"
            }
          ],
          "internalType": "struct IERC721I.MintStageInfo[]",
          "name": "newStages",
          "type": "tuple[]"
        }
      ],
      "name": "setStages",
      "outputs": [],
      "stateMutability": "nonpayable",
      "type": "function"
    },
    {
      "inputs": [
        {
          "internalType": "string",
          "name": "suffix",
          "type": "string"
        }
      ],
      "name": "setTokenURISuffix",
      "outputs": [],
      "stateMutability": "nonpayable",
      "type": "function"
    },
    {
      "inputs": [
        {
          "internalType": "bytes4",
          "name": "interfaceId",
          "type": "bytes4"
        }
      ],
      "name": "supportsInterface",
      "outputs": [
        {
          "internalType": "bool",
          "name": "",
          "type": "bool"
        }
      ],
      "stateMutability": "view",
      "type": "function"
    },
    {
      "inputs": [],
      "name": "symbol",
      "outputs": [
        {
          "internalType": "string",
          "name": "",
          "type": "string"
        }
      ],
      "stateMutability": "view",
      "type": "function"
    },
    {
      "inputs": [
        {
          "internalType": "uint256",
          "name": "tokenId",
          "type": "uint256"
        }
      ],
      "name": "tokenURI",
      "outputs": [
        {
          "internalType": "string",
          "name": "",
          "type": "string"
        }
      ],
      "stateMutability": "view",
      "type": "function"
    },
    {
      "inputs": [
        {
          "internalType": "address",
          "name": "owner",
          "type": "address"
        }
      ],
      "name": "tokensOfOwner",
      "outputs": [
        {
          "internalType": "uint256[]",
          "name": "",
          "type": "uint256[]"
        }
      ],
      "stateMutability": "view",
      "type": "function"
    },
    {
      "inputs": [
        {
          "internalType": "address",
          "name": "owner",
          "type": "address"
        },
        {
          "internalType": "uint256",
          "name": "start",
          "type": "uint256"
        },
        {
          "internalType": "uint256",
          "name": "stop",
          "type": "uint256"
        }
      ],
      "name": "tokensOfOwnerIn",
      "outputs": [
        {
          "internalType": "uint256[]",
          "name": "",
          "type": "uint256[]"
        }
      ],
      "stateMutability": "view",
      "type": "function"
    },
    {
      "inputs": [
        {
          "internalType": "address",
          "name": "a",
          "type": "address"
        }
      ],
      "name": "totalMintedByAddress",
      "outputs": [
        {
          "internalType": "uint256",
          "name": "",
          "type": "uint256"
        }
      ],
      "stateMutability": "view",
      "type": "function"
    },
    {
      "inputs": [],
      "name": "totalSupply",
      "outputs": [
        {
          "internalType": "uint256",
          "name": "",
          "type": "uint256"
        }
      ],
      "stateMutability": "view",
      "type": "function"
    },
    {
      "inputs": [
        {
          "internalType": "address",
          "name": "from",
          "type": "address"
        },
        {
          "internalType": "address",
          "name": "to",
          "type": "address"
        },
        {
          "internalType": "uint256",
          "name": "tokenId",
          "type": "uint256"
        }
      ],
      "name": "transferFrom",
      "outputs": [],
      "stateMutability": "payable",
      "type": "function"
    },
    {
      "inputs": [
        {
          "internalType": "address",
          "name": "newOwner",
          "type": "address"
        }
      ],
      "name": "transferOwnership",
      "outputs": [],
      "stateMutability": "nonpayable",
      "type": "function"
    },
    {
      "inputs": [
        {
          "internalType": "uint256",
          "name": "index",
          "type": "uint256"
        },
        {
          "internalType": "uint80",
          "name": "price",
          "type": "uint80"
        },
        {
          "internalType": "uint32",
          "name": "walletLimit",
          "type": "uint32"
        },
        {
          "internalType": "bytes32",
          "name": "merkleRoot",
          "type": "bytes32"
        },
        {
          "internalType": "uint24",
          "name": "maxStageSupply",
          "type": "uint24"
        },
        {
          "internalType": "uint64",
          "name": "startTimeUnixSeconds",
          "type": "uint64"
        },
        {
          "internalType": "uint64",
          "name": "endTimeUnixSeconds",
          "type": "uint64"
        }
      ],
      "name": "updateStage",
      "outputs": [],
      "stateMutability": "nonpayable",
      "type": "function"
    },
    {
      "inputs": [],
      "name": "withdraw",
      "outputs": [],
      "stateMutability": "nonpayable",
      "type": "function"
    }
  ],
  "transactionHash": "0x7f7788ed61ee3e2fa650b44747c1870141f4973f0f69b2dc096a9042e1028a65",
  "args": [
    "Azuki",
    "AZUKI",
    ".json",
    "10000",
    "5",
    "0x0000000000000000000000000000000000000000"
  ],
  "numDeployments": 1,
  "solcInputHash": "f388df026f9b6c50e6db327cdbadc025",
  "bytecode": "0x60806040523480156200001157600080fd5b50604051620041e9380380620041e98339810160408190526200003491620001fb565b8585600262000044838262000352565b50600362000053828262000352565b505060008055506200006533620000e4565b6001600955828211156200008c57604051630590c51360e01b815260040160405180910390fd5b600a805460ff19166001179055600d839055600e829055600f620000b1858262000352565b50601080546001600160a01b0390921661010002610100600160a81b0319909216919091179055506200041e9350505050565b600880546001600160a01b038381166001600160a01b0319831681179093556040519116919082907f8be0079c531659141344cd1fd0a4f28419497f9722a3daafe3b4186f6b6457e090600090a35050565b634e487b7160e01b600052604160045260246000fd5b600082601f8301126200015e57600080fd5b81516001600160401b03808211156200017b576200017b62000136565b604051601f8301601f19908116603f01168101908282118183101715620001a657620001a662000136565b81604052838152602092508683858801011115620001c357600080fd5b600091505b83821015620001e75785820183015181830184015290820190620001c8565b600093810190920192909252949350505050565b60008060008060008060c087890312156200021557600080fd5b86516001600160401b03808211156200022d57600080fd5b6200023b8a838b016200014c565b975060208901519150808211156200025257600080fd5b620002608a838b016200014c565b965060408901519150808211156200027757600080fd5b506200028689828a016200014c565b606089015160808a015160a08b0151929750909550935090506001600160a01b0381168114620002b557600080fd5b809150509295509295509295565b600181811c90821680620002d857607f821691505b602082108103620002f957634e487b7160e01b600052602260045260246000fd5b50919050565b601f8211156200034d57600081815260208120601f850160051c81016020861015620003285750805b601f850160051c820191505b81811015620003495782815560010162000334565b5050505b505050565b81516001600160401b038111156200036e576200036e62000136565b62000386816200037f8454620002c3565b84620002ff565b602080601f831160018114620003be5760008415620003a55750858301515b600019600386901b1c1916600185901b17855562000349565b600085815260208120601f198616915b82811015620003ef57888601518255948401946001909101908401620003ce565b50858210156200040e5787850151600019600388901b60f8161c191681555b5050505050600190811b01905550565b613dbb806200042e6000396000f3fe6080604052600436106102ff5760003560e01c80638462151c11610190578063a9852bfb116100dc578063c87b56dd11610095578063efdaa2ec1161006f578063efdaa2ec14610940578063f2fde38b14610955578063f698bceb14610975578063f8d096961461098d57600080fd5b8063c87b56dd146108c4578063e985e9c5146108e4578063efb6b11f1461092d57600080fd5b8063a9852bfb1461080f578063aac5ab1f1461082f578063b50248e71461084f578063b7a9fa601461086f578063b88d4fde14610884578063c23dc68f1461089757600080fd5b806397cf84fc116101495780639a3814ab116101235780639a3814ab1461073e578063a06c492f146106de578063a22cb46514610753578063a3759f601461077357600080fd5b806397cf84fc146106de57806399755624146106fe57806399a2557a1461071e57600080fd5b80638462151c14610620578063896086de1461064d5780638da5cb5b1461066d5780638dcdb09d1461068b5780638f931511146106ab57806395d89b41146106c957600080fd5b80633ccfd60b1161024f5780636352211e1161020857806370da24ee116101e257806370da24ee146105c1578063715018a6146105d657806373e1607e146105eb57806374d186621461060b57600080fd5b80636352211e1461056157806367808a341461058157806370a08231146105a157600080fd5b80633ccfd60b146104c457806342842e0e146104d95780634b1c53b4146104ec57806355f804b3146105015780635bbb21771461052157806362acbd9a1461054e57600080fd5b8063174f909c116102bc57806323b872dd1161029657806323b872dd1461044e578063285d70d41461046157806333bbbf0614610481578063372992e4146104a457600080fd5b8063174f909c146103dd57806318160ddd1461040b5780631ce03eed1461042e57600080fd5b806301ffc9a714610304578063020451381461033957806306fdde031461035b578063081812fc1461037d578063095ea7b3146103b55780631053a815146103c8575b600080fd5b34801561031057600080fd5b5061032461031f36600461309c565b6109ad565b60405190151581526020015b60405180910390f35b34801561034557600080fd5b506103596103543660046130d5565b6109ff565b005b34801561036757600080fd5b50610370610a64565b6040516103309190613140565b34801561038957600080fd5b5061039d610398366004613153565b610af6565b6040516001600160a01b039091168152602001610330565b6103596103c336600461316c565b610b3a565b3480156103d457600080fd5b50610359610bda565b3480156103e957600080fd5b506103f361012c81565b6040516001600160401b039091168152602001610330565b34801561041757600080fd5b50600154600054035b604051908152602001610330565b34801561043a57600080fd5b506104206104493660046131c1565b610c2a565b61035961045c366004613204565b610d6a565b34801561046d57600080fd5b5061035961047c366004613250565b610f03565b34801561048d57600080fd5b5060105461010090046001600160a01b031661039d565b3480156104b057600080fd5b506103596104bf366004613153565b610f4c565b3480156104d057600080fd5b50610359610fac565b6103596104e7366004613204565b611057565b3480156104f857600080fd5b50600d54610420565b34801561050d57600080fd5b5061035961051c3660046132ac565b611077565b34801561052d57600080fd5b5061054161053c366004613331565b6110e2565b60405161033091906133a2565b61035961055c3660046133e4565b6111ad565b34801561056d57600080fd5b5061039d61057c366004613153565b61127a565b34801561058d57600080fd5b5061042061059c366004613488565b611285565b3480156105ad57600080fd5b506104206105bc3660046130d5565b61134d565b3480156105cd57600080fd5b50601254610420565b3480156105e257600080fd5b5061035961139b565b3480156105f757600080fd5b506103596106063660046134cd565b6113af565b34801561061757600080fd5b506103f3603c81565b34801561062c57600080fd5b5061064061063b3660046130d5565b61163f565b6040516103309190613545565b34801561065957600080fd5b50610359610668366004613153565b611747565b34801561067957600080fd5b506008546001600160a01b031661039d565b34801561069757600080fd5b506103596106a636600461357d565b6117a6565b3480156106b757600080fd5b506011546001600160a01b031661039d565b3480156106d557600080fd5b50610370611c69565b3480156106ea57600080fd5b506104206106f93660046130d5565b611c78565b34801561070a57600080fd5b506103596107193660046130d5565b611ca2565b34801561072a57600080fd5b506106406107393660046135f1565b611cf8565b34801561074a57600080fd5b50600c54610420565b34801561075f57600080fd5b5061035961076e366004613624565b611e6f565b34801561077f57600080fd5b5061079361078e366004613153565b611edb565b6040805184516001600160501b0316815260208086015163ffffffff90811691830191909152858301519282019290925260608086015162ffffff16908201526080808601516001600160401b039081169183019190915260a095860151169481019490945290911660c083015260e082015261010001610330565b34801561081b57600080fd5b5061035961082a3660046132ac565b61201f565b34801561083b57600080fd5b5061035961084a366004613657565b612034565b34801561085b57600080fd5b5061035961086a366004613723565b61208d565b34801561087b57600080fd5b506103706120cf565b610359610892366004613791565b6120de565b3480156108a357600080fd5b506108b76108b2366004613153565b612122565b60405161033091906137e0565b3480156108d057600080fd5b506103706108df366004613153565b61219a565b3480156108f057600080fd5b506103246108ff3660046137ee565b6001600160a01b03918216600090815260076020908152604080832093909416825291909152205460ff1690565b61035961093b36600461380a565b6122a3565b34801561094c57600080fd5b50600e54610420565b34801561096157600080fd5b506103596109703660046130d5565b612316565b34801561098157600080fd5b50600a5460ff16610324565b34801561099957600080fd5b506103596109a8366004613153565b61238f565b60006301ffc9a760e01b6001600160e01b0319831614806109de57506380ac58cd60e01b6001600160e01b03198316145b806109f95750635b5e139f60e01b6001600160e01b03198316145b92915050565b610a076123ef565b60108054610100600160a81b0319166101006001600160a01b038416908102919091179091556040519081527faea1573caf7b4fdd079b947d86c1be6c725642c47582f8f9bd2c7d2a30bf0bd9906020015b60405180910390a150565b606060028054610a739061389d565b80601f0160208091040260200160405190810160405280929190818152602001828054610a9f9061389d565b8015610aec5780601f10610ac157610100808354040283529160200191610aec565b820191906000526020600020905b815481529060010190602001808311610acf57829003601f168201915b5050505050905090565b6000610b0182612449565b610b1e576040516333d1c03960e21b815260040160405180910390fd5b506000908152600660205260409020546001600160a01b031690565b6000610b458261127a565b9050336001600160a01b03821614610b7e57610b6181336108ff565b610b7e576040516367d9dca160e11b815260040160405180910390fd5b60008281526006602052604080822080546001600160a01b0319166001600160a01b0387811691821790925591518593918516917f8c5be1e5ebec7d5bd14f71427d1e84f3dd0314c0f7b2291e5b200ac8c7c3b92591a4505050565b610be26123ef565b6010805460ff191660011790556040517fc6a6c2b165e62c9d37fc51a18ed76e5be22304bc1d337877c98f31c23e40b0f590610c2090600b906138d7565b60405180910390a1565b60105460009061010090046001600160a01b0316610c5b576040516353bd4fb360e11b815260040160405180910390fd5b610d60308585601060019054906101000a90046001600160a01b031686610c7f4690565b610c888b611c78565b604051606097881b6bffffffffffffffffffffffff19908116602083015296881b8716603482015260e09590951b6001600160e01b031916604886015292861b909416604c84015260c01b6001600160c01b031916938201939093526068810191909152608881019190915260a801604051602081830303815290604052805190602001206040517f19457468657265756d205369676e6564204d6573736167653a0a3332000000006020820152603c8101829052600090605c01604051602081830303815290604052805190602001209050919050565b90505b9392505050565b6000610d7582612470565b9050836001600160a01b0316816001600160a01b031614610da85760405162a1148160e81b815260040160405180910390fd5b60008281526006602052604090208054338082146001600160a01b03881690911417610df557610dd886336108ff565b610df557604051632ce44b5f60e11b815260040160405180910390fd5b6001600160a01b038516610e1c57604051633a954ecd60e21b815260040160405180910390fd5b8015610e2757600082555b6001600160a01b038681166000908152600560205260408082208054600019019055918716808252919020805460010190554260a01b17600160e11b17600085815260046020526040812091909155600160e11b84169003610eb957600184016000818152600460205260408120549003610eb7576000548114610eb75760008181526004602052604090208490555b505b83856001600160a01b0316876001600160a01b03167fddf252ad1be2c89b69c2b068fc378daa952ba7f163c4a11628f55a4df523b3ef60405160405180910390a45b505050505050565b610f0b6123ef565b600a805460ff19168215159081179091556040519081527fe717a2bfc51e250b028aaac5eb448e76f4df26b9609956782bff49097bb792cf90602001610a59565b610f546123ef565b600d54811115610f7757604051630590c51360e01b815260040160405180910390fd5b600e8190556040518181527f5307de8ad7d34d5ddfd5171435c143bdc645493980f453eb5d7cdb3e494a1b3590602001610a59565b610fb46123ef565b6040514790600090339083908381818185875af1925050503d8060008114610ff8576040519150601f19603f3d011682016040523d82523d6000602084013e610ffd565b606091505b505090508061101f57604051631d42c86760e21b815260040160405180910390fd5b6040518281527f5b6b431d4476a211bb7d41c20d1aab9ae2321deee0d20be3d9fc9b1093fa6e3d906020015b60405180910390a15050565b611072838383604051806020016040528060008152506120de565b505050565b61107f6123ef565b60105460ff16156110a3576040516306ccad4160e41b815260040160405180910390fd5b600b6110b08284836139a8565b507f23c8c9488efebfd474e85a7956de6f39b17c7ab88502d42a623db2d8e382bbaa828260405161104b929190613a67565b6060816000816001600160401b038111156110ff576110ff613681565b60405190808252806020026020018201604052801561115157816020015b60408051608081018252600080825260208083018290529282018190526060820152825260001990920191018161111d5790505b50905060005b8281146111a45761117f86868381811061117357611173613a96565b90506020020135612122565b82828151811061119157611191613a96565b6020908102919091010152600101611157565b50949350505050565b6002600954036112045760405162461bcd60e51b815260206004820152601f60248201527f5265656e7472616e637947756172643a207265656e7472616e742063616c6c0060448201526064015b60405180910390fd5b60026009556011546001600160a01b031661123257604051637e9f68eb60e11b815260040160405180910390fd5b6011546001600160a01b0316331461125d5760405163f46fd68360e01b815260040160405180910390fd5b61126c878787878787876124d7565b505060016009555050505050565b60006109f982612470565b6000805b60125481101561133357601281815481106112a6576112a6613a96565b60009182526020909120600260039092020101546001600160401b0363010000009091048116908416108015906113165750601281815481106112eb576112eb613a96565b60009182526020909120600260039092020101546001600160401b03600160581b9091048116908416105b156113215792915050565b8061132b81613ac2565b915050611289565b5060405163e82a532960e01b815260040160405180910390fd5b60006001600160a01b038216611376576040516323d3ad8160e21b815260040160405180910390fd5b506001600160a01b03166000908152600560205260409020546001600160401b031690565b6113a36123ef565b6113ad6000612947565b565b6113b76123ef565b60125487106113d95760405163e82a532960e01b815260040160405180910390fd5b6001871061146157603c60126113f060018a613adb565b8154811061140057611400613a96565b9060005260206000209060030201600201600b9054906101000a90046001600160401b031661142f9190613aee565b6001600160401b0316826001600160401b0316101561146157604051636bc1af9360e01b815260040160405180910390fd5b61146b8282612999565b856012888154811061147f5761147f613a96565b906000526020600020906003020160000160006101000a8154816001600160501b0302191690836001600160501b0316021790555084601288815481106114c8576114c8613a96565b9060005260206000209060030201600001600a6101000a81548163ffffffff021916908363ffffffff160217905550836012888154811061150b5761150b613a96565b906000526020600020906003020160010181905550826012888154811061153457611534613a96565b906000526020600020906003020160020160006101000a81548162ffffff021916908362ffffff160217905550816012888154811061157557611575613a96565b906000526020600020906003020160020160036101000a8154816001600160401b0302191690836001600160401b0316021790555080601288815481106115be576115be613a96565b9060005260206000209060030201600201600b6101000a8154816001600160401b0302191690836001600160401b031602179055507fb3268648542a1bb1b2dd12e3b14aeb5a3ab22c592de96bdd3e842154a5b394fa8787878787878760405161162e9796959493929190613b15565b60405180910390a150505050505050565b6060600080600061164f8561134d565b90506000816001600160401b0381111561166b5761166b613681565b604051908082528060200260200182016040528015611694578160200160208202803683370190505b5090506116c160408051608081018252600080825260208201819052918101829052606081019190915290565b60005b83861461173b576116d4816129cf565b915081604001516117335781516001600160a01b0316156116f457815194505b876001600160a01b0316856001600160a01b031603611733578083878060010198508151811061172657611726613a96565b6020026020010181815250505b6001016116c4565b50909695505050505050565b61174f6123ef565b60125481106117715760405163e82a532960e01b815260040160405180910390fd5b600c8190556040518181527f160d6de2c069c3adf7f4c1252236d0b325c0e3eb963ddb10c67a81aadf9a305890602001610a59565b6117ae6123ef565b60125460005b818110156118295760128054806117cd576117cd613b65565b60008281526020812060036000199093019283020180546001600160701b03191681556001810191909155600201805472ffffffffffffffffffffffffffffffffffffff1916905590558061182181613ac2565b9150506117b4565b5060005b82811015611c6357600181106118d857603c848461184c600185613adb565b81811061185b5761185b613a96565b905060c0020160a00160208101906118739190613488565b61187d9190613aee565b6001600160401b031684848381811061189857611898613a96565b905060c0020160800160208101906118b09190613488565b6001600160401b031610156118d857604051636bc1af9360e01b815260040160405180910390fd5b6119348484838181106118ed576118ed613a96565b905060c0020160800160208101906119059190613488565b85858481811061191757611917613a96565b905060c0020160a001602081019061192f9190613488565b612999565b60126040518060c0016040528086868581811061195357611953613a96565b61196992602060c0909202019081019150613b7b565b6001600160501b0316815260200186868581811061198957611989613a96565b905060c0020160200160208101906119a19190613b96565b63ffffffff1681526020018686858181106119be576119be613a96565b905060c002016040013581526020018686858181106119df576119df613a96565b905060c0020160600160208101906119f79190613bb1565b62ffffff168152602001868685818110611a1357611a13613a96565b905060c002016080016020810190611a2b9190613488565b6001600160401b03168152602001868685818110611a4b57611a4b613a96565b905060c0020160a0016020810190611a639190613488565b6001600160401b039081169091528254600181810185556000948552602094859020845160039093020180549585015163ffffffff16600160501b026001600160701b03199096166001600160501b0390931692909217949094178155604083015193810193909355606082015160029093018054608084015160a0909401518316600160581b0267ffffffffffffffff60581b19949093166301000000026affffffffffffffffffffff1990911662ffffff9095169490941793909317919091161790557fb3268648542a1bb1b2dd12e3b14aeb5a3ab22c592de96bdd3e842154a5b394fa81858582818110611b5c57611b5c613a96565b611b7292602060c0909202019081019150613b7b565b868685818110611b8457611b84613a96565b905060c002016020016020810190611b9c9190613b96565b878786818110611bae57611bae613a96565b905060c0020160400135888887818110611bca57611bca613a96565b905060c002016060016020810190611be29190613bb1565b898988818110611bf457611bf4613a96565b905060c002016080016020810190611c0c9190613488565b8a8a89818110611c1e57611c1e613a96565b905060c0020160a0016020810190611c369190613488565b604051611c499796959493929190613b15565b60405180910390a180611c5b81613ac2565b91505061182d565b50505050565b606060038054610a739061389d565b6001600160a01b038116600090815260056020526040808220546001600160401b03911c166109f9565b611caa6123ef565b601180546001600160a01b0319166001600160a01b0383169081179091556040519081527ff477d93c015f2a73c2ccc5ed37078d12123b80fc5d12e0014c60b913bc1a1ec490602001610a59565b6060818310611d1a57604051631960ccad60e11b815260040160405180910390fd5b600080611d2660005490565b905080841115611d34578093505b6000611d3f8761134d565b905084861015611d5e5785850381811015611d58578091505b50611d62565b5060005b6000816001600160401b03811115611d7c57611d7c613681565b604051908082528060200260200182016040528015611da5578160200160208202803683370190505b50905081600003611dbb579350610d6392505050565b6000611dc688612122565b905060008160400151611dd7575080515b885b888114158015611de95750848714155b15611e5e57611df7816129cf565b92508260400151611e565782516001600160a01b031615611e1757825191505b8a6001600160a01b0316826001600160a01b031603611e565780848880600101995081518110611e4957611e49613a96565b6020026020010181815250505b600101611dd9565b505050928352509095945050505050565b3360008181526007602090815260408083206001600160a01b03871680855290835292819020805460ff191686151590811790915590519081529192917f17307eab39ab6107e8899845ad3d59bd9653f200f220920489ca2b5937696c31910160405180910390a35050565b6040805160c081018252600080825260208201819052918101829052606081018290526080810182905260a081019190915260125460009081908410611f525760405162461bcd60e51b815260206004820152600c60248201526b496e76616c6964537461676560a01b60448201526064016111fb565b60008481526013602090815260408083203384528252808320548784526014909252909120546012805463ffffffff9093169287908110611f9557611f95613a96565b60009182526020918290206040805160c08101825260039390930290910180546001600160501b0381168452600160501b900463ffffffff169383019390935260018301549082015260029091015462ffffff81166060830152630100000081046001600160401b039081166080840152600160581b9091041660a0820152969195509350915050565b6120276123ef565b600f6110728284836139a8565b61203c6123ef565b8163ffffffff16600d54816120546001546000540390565b61205e9190613bcc565b111561207d5760405163800113cb60e01b815260040160405180910390fd5b611072828463ffffffff16612a0b565b6010546120b39061010090046001600160a01b03166120ad868686610c2a565b83612a25565b611c635760405162b7fad960e11b815260040160405180910390fd5b6060600f8054610a739061389d565b6120e9848484610d6a565b6001600160a01b0383163b15611c635761210584848484612b67565b611c63576040516368d2bf6b60e11b815260040160405180910390fd5b60408051608080820183526000808352602080840182905283850182905260608085018390528551938401865282845290830182905293820181905292810183905290915060005483106121765792915050565b61217f836129cf565b90508060400151156121915792915050565b610d6383612c52565b60606121a582612449565b6121c257604051630a14c4b560e41b815260040160405180910390fd5b6000600b80546121d19061389d565b80601f01602080910402602001604051908101604052809291908181526020018280546121fd9061389d565b801561224a5780601f1061221f5761010080835404028352916020019161224a565b820191906000526020600020905b81548152906001019060200180831161222d57829003601f168201915b50505050509050805160000361226f5760405180602001604052806000815250610d63565b8061227984612c87565b600f60405160200161228d93929190613bdf565b6040516020818303038152906040529392505050565b6002600954036122f55760405162461bcd60e51b815260206004820152601f60248201527f5265656e7472616e637947756172643a207265656e7472616e742063616c6c0060448201526064016111fb565b6002600955612309863387878787876124d7565b5050600160095550505050565b61231e6123ef565b6001600160a01b0381166123835760405162461bcd60e51b815260206004820152602660248201527f4f776e61626c653a206e6577206f776e657220697320746865207a65726f206160448201526564647265737360d01b60648201526084016111fb565b61238c81612947565b50565b6123976123ef565b600d548111156123ba5760405163430b83b160e11b815260040160405180910390fd5b600d8190556040518181527fc7bbc2b288fc13314546ea4aa51f6bcf71b7ba4740beeb3d32e9acef57b6668a90602001610a59565b6008546001600160a01b031633146113ad5760405162461bcd60e51b815260206004820181905260248201527f4f776e61626c653a2063616c6c6572206973206e6f7420746865206f776e657260448201526064016111fb565b60008054821080156109f9575050600090815260046020526040902054600160e01b161590565b6000816000548110156124be5760008181526004602052604081205490600160e01b821690036124bc575b80600003610d6357506000190160008181526004602052604090205461249b565b505b604051636f96cda160e11b815260040160405180910390fd5b600a5460ff166124fa57604051630952c8a960e11b815260040160405180910390fd5b8663ffffffff16600d54816125126001546000540390565b61251c9190613bcc565b111561253b5760405163800113cb60e01b815260040160405180910390fd5b600c5460125481106125605760405163e82a532960e01b815260040160405180910390fd5b6040805160c081018252600080825260208201819052918101829052606081018290526080810182905260a081019190915260105461010090046001600160a01b0316156125ff576125ea338b8888888080601f01602080910402602001604051908101604052809392919081815260200183838082843760009201919091525061208d92505050565b6125f386612ccb565b6125fc86611285565b91505b6012828154811061261257612612613a96565b60009182526020918290206040805160c081018252600390930290910180546001600160501b03811680855263ffffffff600160501b9092048216958501959095526001820154928401929092526002015462ffffff811660608401526001600160401b036301000000820481166080850152600160581b9091041660a08301529092506126a391908c1690613c7f565b6001600160501b03163410156126cc57604051630717c22560e51b815260040160405180910390fd5b606081015162ffffff161561272657606081015160008381526014602052604090205462ffffff909116906127089063ffffffff8d1690613bcc565b11156127265760405162d0844960e21b815260040160405180910390fd5b600e541561278d57600e548a63ffffffff166127648b6001600160a01b03166000908152600560205260409081902054901c6001600160401b031690565b61276e9190613bcc565b111561278d5760405163751304ed60e11b815260040160405180910390fd5b602081015163ffffffff16156127ff5760208082015160008481526013835260408082206001600160a01b038e168352909352919091205463ffffffff918216916127da918d9116613caa565b63ffffffff1611156127ff5760405163b4f3729b60e01b815260040160405180910390fd5b6040810151156128a65780604001516128888989808060200260200160405190810160405280939291908181526020018383602002808284376000920191909152505060405161286d92508e915060200160609190911b6bffffffffffffffffffffffff1916815260140190565b60405160208183030381529060405280519060200120612d29565b146128a6576040516309bde33960e01b815260040160405180910390fd5b60008281526013602090815260408083206001600160a01b038d168452909152812080548c92906128de90849063ffffffff16613caa565b92506101000a81548163ffffffff021916908363ffffffff1602179055508963ffffffff166014600084815260200190815260200160002060008282546129259190613bcc565b9091555061293b90508963ffffffff8c16612a0b565b50505050505050505050565b600880546001600160a01b038381166001600160a01b0319831681179093556040519116919082907f8be0079c531659141344cd1fd0a4f28419497f9722a3daafe3b4186f6b6457e090600090a35050565b806001600160401b0316826001600160401b0316106129cb57604051631750215560e11b815260040160405180910390fd5b5050565b6040805160808101825260008082526020820181905291810182905260608101919091526000828152600460205260409020546109f990612d76565b6129cb828260405180602001604052806000815250612dbd565b6000806000612a348585612e2a565b90925090506000816004811115612a4d57612a4d613cc7565b148015612a6b5750856001600160a01b0316826001600160a01b0316145b15612a7b57600192505050610d63565b600080876001600160a01b0316631626ba7e60e01b8888604051602401612aa3929190613cdd565b60408051601f198184030181529181526020820180516001600160e01b03166001600160e01b0319909416939093179092529051612ae19190613cf6565b600060405180830381855afa9150503d8060008114612b1c576040519150601f19603f3d011682016040523d82523d6000602084013e612b21565b606091505b5091509150818015612b34575080516020145b8015612b5b57508051630b135d3f60e11b90612b599083016020908101908401613d12565b145b98975050505050505050565b604051630a85bd0160e11b81526000906001600160a01b0385169063150b7a0290612b9c903390899088908890600401613d2b565b6020604051808303816000875af1925050508015612bd7575060408051601f3d908101601f19168201909252612bd491810190613d68565b60015b612c35573d808015612c05576040519150601f19603f3d011682016040523d82523d6000602084013e612c0a565b606091505b508051600003612c2d576040516368d2bf6b60e11b815260040160405180910390fd5b805181602001fd5b6001600160e01b031916630a85bd0160e11b149050949350505050565b6040805160808101825260008082526020820181905291810182905260608101919091526109f9612c8283612470565b612d76565b606060a06040510180604052602081039150506000815280825b600183039250600a81066030018353600a900480612ca15750819003601f19909101908152919050565b6011546000906001600160a01b03163314612ce757603c612ceb565b61012c5b9050612d006001600160401b03821642613adb565b826001600160401b031610156129cb576040516313634e8d60e11b815260040160405180910390fd5b600081815b8451811015612d6e57612d5a82868381518110612d4d57612d4d613a96565b6020026020010151612e6f565b915080612d6681613ac2565b915050612d2e565b509392505050565b604080516080810182526001600160a01b038316815260a083901c6001600160401b03166020820152600160e01b831615159181019190915260e89190911c606082015290565b612dc78383612e9b565b6001600160a01b0383163b15611072576000548281035b612df16000868380600101945086612b67565b612e0e576040516368d2bf6b60e11b815260040160405180910390fd5b818110612dde578160005414612e2357600080fd5b5050505050565b6000808251604103612e605760208301516040840151606085015160001a612e5487828585612f99565b94509450505050612e68565b506000905060025b9250929050565b6000818310612e8b576000828152602084905260409020610d63565b5060009182526020526040902090565b6000805490829003612ec05760405163b562e8dd60e01b815260040160405180910390fd5b6001600160a01b03831660008181526005602090815260408083208054680100000000000000018802019055848352600490915281206001851460e11b4260a01b178317905582840190839083907fddf252ad1be2c89b69c2b068fc378daa952ba7f163c4a11628f55a4df523b3ef8180a4600183015b818114612f6f57808360007fddf252ad1be2c89b69c2b068fc378daa952ba7f163c4a11628f55a4df523b3ef600080a4600101612f37565b5081600003612f9057604051622e076360e81b815260040160405180910390fd5b60005550505050565b6000807f7fffffffffffffffffffffffffffffff5d576e7357a4501ddfe92f46681b20a0831115612fd0575060009050600361307d565b8460ff16601b14158015612fe857508460ff16601c14155b15612ff9575060009050600461307d565b6040805160008082526020820180845289905260ff881692820192909252606081018690526080810185905260019060a0016020604051602081039080840390855afa15801561304d573d6000803e3d6000fd5b5050604051601f1901519150506001600160a01b0381166130765760006001925092505061307d565b9150600090505b94509492505050565b6001600160e01b03198116811461238c57600080fd5b6000602082840312156130ae57600080fd5b8135610d6381613086565b80356001600160a01b03811681146130d057600080fd5b919050565b6000602082840312156130e757600080fd5b610d63826130b9565b60005b8381101561310b5781810151838201526020016130f3565b50506000910152565b6000815180845261312c8160208601602086016130f0565b601f01601f19169290920160200192915050565b602081526000610d636020830184613114565b60006020828403121561316557600080fd5b5035919050565b6000806040838503121561317f57600080fd5b613188836130b9565b946020939093013593505050565b803563ffffffff811681146130d057600080fd5b80356001600160401b03811681146130d057600080fd5b6000806000606084860312156131d657600080fd5b6131df846130b9565b92506131ed60208501613196565b91506131fb604085016131aa565b90509250925092565b60008060006060848603121561321957600080fd5b613222846130b9565b9250613230602085016130b9565b9150604084013590509250925092565b803580151581146130d057600080fd5b60006020828403121561326257600080fd5b610d6382613240565b60008083601f84011261327d57600080fd5b5081356001600160401b0381111561329457600080fd5b602083019150836020828501011115612e6857600080fd5b600080602083850312156132bf57600080fd5b82356001600160401b038111156132d557600080fd5b6132e18582860161326b565b90969095509350505050565b60008083601f8401126132ff57600080fd5b5081356001600160401b0381111561331657600080fd5b6020830191508360208260051b8501011115612e6857600080fd5b6000806020838503121561334457600080fd5b82356001600160401b0381111561335a57600080fd5b6132e1858286016132ed565b80516001600160a01b031682526020808201516001600160401b03169083015260408082015115159083015260609081015162ffffff16910152565b6020808252825182820181905260009190848201906040850190845b8181101561173b576133d1838551613366565b92840192608092909201916001016133be565b600080600080600080600060a0888a0312156133ff57600080fd5b61340888613196565b9650613416602089016130b9565b955060408801356001600160401b038082111561343257600080fd5b61343e8b838c016132ed565b909750955085915061345260608b016131aa565b945060808a013591508082111561346857600080fd5b506134758a828b0161326b565b989b979a50959850939692959293505050565b60006020828403121561349a57600080fd5b610d63826131aa565b80356001600160501b03811681146130d057600080fd5b803562ffffff811681146130d057600080fd5b600080600080600080600060e0888a0312156134e857600080fd5b873596506134f8602089016134a3565b955061350660408901613196565b94506060880135935061351b608089016134ba565b925061352960a089016131aa565b915061353760c089016131aa565b905092959891949750929550565b6020808252825182820181905260009190848201906040850190845b8181101561173b57835183529284019291840191600101613561565b6000806020838503121561359057600080fd5b82356001600160401b03808211156135a757600080fd5b818501915085601f8301126135bb57600080fd5b8135818111156135ca57600080fd5b86602060c0830285010111156135df57600080fd5b60209290920196919550909350505050565b60008060006060848603121561360657600080fd5b61360f846130b9565b95602085013595506040909401359392505050565b6000806040838503121561363757600080fd5b613640836130b9565b915061364e60208401613240565b90509250929050565b6000806040838503121561366a57600080fd5b61367383613196565b915061364e602084016130b9565b634e487b7160e01b600052604160045260246000fd5b600082601f8301126136a857600080fd5b81356001600160401b03808211156136c2576136c2613681565b604051601f8301601f19908116603f011681019082821181831017156136ea576136ea613681565b8160405283815286602085880101111561370357600080fd5b836020870160208301376000602085830101528094505050505092915050565b6000806000806080858703121561373957600080fd5b613742856130b9565b935061375060208601613196565b925061375e604086016131aa565b915060608501356001600160401b0381111561377957600080fd5b61378587828801613697565b91505092959194509250565b600080600080608085870312156137a757600080fd5b6137b0856130b9565b93506137be602086016130b9565b92506040850135915060608501356001600160401b0381111561377957600080fd5b608081016109f98284613366565b6000806040838503121561380157600080fd5b613673836130b9565b6000806000806000806080878903121561382357600080fd5b61382c87613196565b955060208701356001600160401b038082111561384857600080fd5b6138548a838b016132ed565b909750955085915061386860408a016131aa565b9450606089013591508082111561387e57600080fd5b5061388b89828a0161326b565b979a9699509497509295939492505050565b600181811c908216806138b157607f821691505b6020821081036138d157634e487b7160e01b600052602260045260246000fd5b50919050565b60006020808352600084546138eb8161389d565b8084870152604060018084166000811461390c576001811461392657613954565b60ff1985168984015283151560051b890183019550613954565b896000528660002060005b8581101561394c5781548b8201860152908301908801613931565b8a0184019650505b509398975050505050505050565b601f82111561107257600081815260208120601f850160051c810160208610156139895750805b601f850160051c820191505b81811015610efb57828155600101613995565b6001600160401b038311156139bf576139bf613681565b6139d3836139cd835461389d565b83613962565b6000601f841160018114613a0757600085156139ef5750838201355b600019600387901b1c1916600186901b178355612e23565b600083815260209020601f19861690835b82811015613a385786850135825560209485019460019092019101613a18565b5086821015613a555760001960f88860031b161c19848701351681555b505060018560011b0183555050505050565b60208152816020820152818360408301376000818301604090810191909152601f909201601f19160101919050565b634e487b7160e01b600052603260045260246000fd5b634e487b7160e01b600052601160045260246000fd5b600060018201613ad457613ad4613aac565b5060010190565b818103818111156109f9576109f9613aac565b6001600160401b03818116838216019080821115613b0e57613b0e613aac565b5092915050565b9687526001600160501b0395909516602087015263ffffffff939093166040860152606085019190915262ffffff1660808401526001600160401b0390811660a08401521660c082015260e00190565b634e487b7160e01b600052603160045260246000fd5b600060208284031215613b8d57600080fd5b610d63826134a3565b600060208284031215613ba857600080fd5b610d6382613196565b600060208284031215613bc357600080fd5b610d63826134ba565b808201808211156109f9576109f9613aac565b600084516020613bf28285838a016130f0565b855191840191613c058184848a016130f0565b8554920191600090613c168161389d565b60018281168015613c2e5760018114613c4357613c6f565b60ff1984168752821515830287019450613c6f565b896000528560002060005b84811015613c6757815489820152908301908701613c4e565b505082870194505b50929a9950505050505050505050565b6001600160501b03818116838216028082169190828114613ca257613ca2613aac565b505092915050565b63ffffffff818116838216019080821115613b0e57613b0e613aac565b634e487b7160e01b600052602160045260246000fd5b828152604060208201526000610d606040830184613114565b60008251613d088184602087016130f0565b9190910192915050565b600060208284031215613d2457600080fd5b5051919050565b6001600160a01b0385811682528416602082015260408101839052608060608201819052600090613d5e90830184613114565b9695505050505050565b600060208284031215613d7a57600080fd5b8151610d638161308656fea2646970667358221220215cc59b5fcea69ab1a29958a14a85f2f92596fc2b869af489083b0be4ee4df464736f6c63430008110033",
  "devdoc": {
    "kind": "dev",
    "methods": {
      "approve(address,uint256)": {
        "details": "Gives permission to `to` to transfer `tokenId` token to another account. The approval is cleared when the token is transferred. Only a single account can be approved at a time, so approving the zero address clears previous approvals. Requirements: - The caller must own the token or be an approved operator. - `tokenId` must exist. Emits an {Approval} event."
      },
      "balanceOf(address)": {
        "details": "Returns the number of tokens in `owner`'s account."
      },
      "explicitOwnershipOf(uint256)": {
        "details": "Returns the `TokenOwnership` struct at `tokenId` without reverting. If the `tokenId` is out of bounds: - `addr = address(0)` - `startTimestamp = 0` - `burned = false` - `extraData = 0` If the `tokenId` is burned: - `addr = <Address of owner before token was burned>` - `startTimestamp = <Timestamp when token was burned>` - `burned = true` - `extraData = <Extra data when token was burned>` Otherwise: - `addr = <Address of owner>` - `startTimestamp = <Timestamp of start of ownership>` - `burned = false` - `extraData = <Extra data at start of ownership>`"
      },
      "explicitOwnershipsOf(uint256[])": {
        "details": "Returns an array of `TokenOwnership` structs at `tokenIds` in order. See {ERC721AQueryable-explicitOwnershipOf}"
      },
      "getApproved(uint256)": {
        "details": "Returns the account approved for `tokenId` token. Requirements: - `tokenId` must exist."
      },
      "isApprovedForAll(address,address)": {
        "details": "Returns if the `operator` is allowed to manage all of the assets of `owner`. See {setApprovalForAll}."
      },
      "name()": {
        "details": "Returns the token collection name."
      },
      "owner()": {
        "details": "Returns the address of the current owner."
      },
      "ownerOf(uint256)": {
        "details": "Returns the owner of the `tokenId` token. Requirements: - `tokenId` must exist."
      },
      "renounceOwnership()": {
        "details": "Leaves the contract without owner. It will not be possible to call `onlyOwner` functions anymore. Can only be called by the current owner. NOTE: Renouncing ownership will leave the contract without an owner, thereby removing any functionality that is only available to the owner."
      },
      "safeTransferFrom(address,address,uint256)": {
        "details": "Equivalent to `safeTransferFrom(from, to, tokenId, '')`."
      },
      "safeTransferFrom(address,address,uint256,bytes)": {
        "details": "Safely transfers `tokenId` token from `from` to `to`. Requirements: - `from` cannot be the zero address. - `to` cannot be the zero address. - `tokenId` token must exist and be owned by `from`. - If the caller is not `from`, it must be approved to move this token by either {approve} or {setApprovalForAll}. - If `to` refers to a smart contract, it must implement {IERC721Receiver-onERC721Received}, which is called upon a safe transfer. Emits a {Transfer} event."
      },
      "setApprovalForAll(address,bool)": {
        "details": "Approve or remove `operator` as an operator for the caller. Operators can call {transferFrom} or {safeTransferFrom} for any token owned by the caller. Requirements: - The `operator` cannot be the caller. Emits an {ApprovalForAll} event."
      },
      "supportsInterface(bytes4)": {
        "details": "Returns true if this contract implements the interface defined by `interfaceId`. See the corresponding [EIP section](https://eips.ethereum.org/EIPS/eip-165#how-interfaces-are-identified) to learn more about how these ids are created. This function call must use less than 30000 gas."
      },
      "symbol()": {
        "details": "Returns the token collection symbol."
      },
      "tokensOfOwner(address)": {
        "details": "Returns an array of token IDs owned by `owner`. This function scans the ownership mapping and is O(`totalSupply`) in complexity. It is meant to be called off-chain. See {ERC721AQueryable-tokensOfOwnerIn} for splitting the scan into multiple smaller scans if the collection is large enough to cause an out-of-gas error (10K collections should be fine)."
      },
      "tokensOfOwnerIn(address,uint256,uint256)": {
        "details": "Returns an array of token IDs owned by `owner`, in the range [`start`, `stop`) (i.e. `start <= tokenId < stop`). This function allows for tokens to be queried if the collection grows too big for a single call of {ERC721AQueryable-tokensOfOwner}. Requirements: - `start < stop`"
      },
      "totalSupply()": {
        "details": "Returns the total number of tokens in existence. Burned tokens will reduce the count. To get the total number of tokens minted, please see {_totalMinted}."
      },
      "transferFrom(address,address,uint256)": {
        "details": "Transfers `tokenId` from `from` to `to`. Requirements: - `from` cannot be the zero address. - `to` cannot be the zero address. - `tokenId` token must be owned by `from`. - If the caller is not `from`, it must be approved to move this token by either {approve} or {setApprovalForAll}. Emits a {Transfer} event."
      },
      "transferOwnership(address)": {
        "details": "Transfers ownership of the contract to a new account (`newOwner`). Can only be called by the current owner."
      }
    },
    "version": 1
  },
  "userdoc": {
    "errors": {
      "ApprovalCallerNotOwnerNorApproved()": [
        {
          "notice": "The caller must own the token or be an approved operator."
        }
      ],
      "ApprovalQueryForNonexistentToken()": [
        {
          "notice": "The token does not exist."
        }
      ],
      "BalanceQueryForZeroAddress()": [
        {
          "notice": "Cannot query the balance for the zero address."
        }
      ],
      "InvalidQueryRange()": [
        {
          "notice": "Invalid query range (`start` >= `stop`)."
        }
      ],
      "MintERC2309QuantityExceedsLimit()": [
        {
          "notice": "The `quantity` minted with ERC2309 exceeds the safety limit."
        }
      ],
      "MintToZeroAddress()": [
        {
          "notice": "Cannot mint to the zero address."
        }
      ],
      "MintZeroQuantity()": [
        {
          "notice": "The quantity of tokens minted must be more than zero."
        }
      ],
      "OwnerQueryForNonexistentToken()": [
        {
          "notice": "The token does not exist."
        }
      ],
      "OwnershipNotInitializedForExtraData()": [
        {
          "notice": "The `extraData` cannot be set on an unintialized ownership slot."
        }
      ],
      "TransferCallerNotOwnerNorApproved()": [
        {
          "notice": "The caller must own the token or be an approved operator."
        }
      ],
      "TransferFromIncorrectOwner()": [
        {
          "notice": "The token must be owned by `from`."
        }
      ],
      "TransferToNonERC721ReceiverImplementer()": [
        {
          "notice": "Cannot safely transfer to a contract that does not implement the ERC721Receiver interface."
        }
      ],
      "TransferToZeroAddress()": [
        {
          "notice": "Cannot transfer to the zero address."
        }
      ],
      "URIQueryForNonexistentToken()": [
        {
          "notice": "The token does not exist."
        }
      ]
    },
    "kind": "user",
    "methods": {},
    "version": 1
  },
  "storageLayout": {
    "storage": [
      {
        "astId": 3151,
        "contract": "contracts/ERC721I.sol:ERC721I",
        "label": "_currentIndex",
        "offset": 0,
        "slot": "0",
        "type": "t_uint256"
      },
      {
        "astId": 3153,
        "contract": "contracts/ERC721I.sol:ERC721I",
        "label": "_burnCounter",
        "offset": 0,
        "slot": "1",
        "type": "t_uint256"
      },
      {
        "astId": 3155,
        "contract": "contracts/ERC721I.sol:ERC721I",
        "label": "_name",
        "offset": 0,
        "slot": "2",
        "type": "t_string_storage"
      },
      {
        "astId": 3157,
        "contract": "contracts/ERC721I.sol:ERC721I",
        "label": "_symbol",
        "offset": 0,
        "slot": "3",
        "type": "t_string_storage"
      },
      {
        "astId": 3161,
        "contract": "contracts/ERC721I.sol:ERC721I",
        "label": "_packedOwnerships",
        "offset": 0,
        "slot": "4",
        "type": "t_mapping(t_uint256,t_uint256)"
      },
      {
        "astId": 3165,
        "contract": "contracts/ERC721I.sol:ERC721I",
        "label": "_packedAddressData",
        "offset": 0,
        "slot": "5",
        "type": "t_mapping(t_address,t_uint256)"
      },
      {
        "astId": 3170,
        "contract": "contracts/ERC721I.sol:ERC721I",
        "label": "_tokenApprovals",
        "offset": 0,
        "slot": "6",
        "type": "t_mapping(t_uint256,t_struct(TokenApprovalRef)3083_storage)"
      },
      {
        "astId": 3176,
        "contract": "contracts/ERC721I.sol:ERC721I",
        "label": "_operatorApprovals",
        "offset": 0,
        "slot": "7",
        "type": "t_mapping(t_address,t_mapping(t_address,t_bool))"
      },
      {
        "astId": 7,
        "contract": "contracts/ERC721I.sol:ERC721I",
        "label": "_owner",
        "offset": 0,
        "slot": "8",
        "type": "t_address"
      },
      {
        "astId": 137,
        "contract": "contracts/ERC721I.sol:ERC721I",
        "label": "_status",
        "offset": 0,
        "slot": "9",
        "type": "t_uint256"
      },
      {
        "astId": 1710,
        "contract": "contracts/ERC721I.sol:ERC721I",
        "label": "_mintable",
        "offset": 0,
        "slot": "10",
        "type": "t_bool"
      },
      {
        "astId": 1712,
        "contract": "contracts/ERC721I.sol:ERC721I",
        "label": "_currentBaseURI",
        "offset": 0,
        "slot": "11",
        "type": "t_string_storage"
      },
      {
        "astId": 1714,
        "contract": "contracts/ERC721I.sol:ERC721I",
        "label": "_activeStage",
        "offset": 0,
        "slot": "12",
        "type": "t_uint256"
      },
      {
        "astId": 1716,
        "contract": "contracts/ERC721I.sol:ERC721I",
        "label": "_maxMintableSupply",
        "offset": 0,
        "slot": "13",
        "type": "t_uint256"
      },
      {
        "astId": 1718,
        "contract": "contracts/ERC721I.sol:ERC721I",
        "label": "_globalWalletLimit",
        "offset": 0,
        "slot": "14",
        "type": "t_uint256"
      },
      {
        "astId": 1720,
        "contract": "contracts/ERC721I.sol:ERC721I",
        "label": "_tokenURISuffix",
        "offset": 0,
        "slot": "15",
        "type": "t_string_storage"
      },
      {
        "astId": 1722,
        "contract": "contracts/ERC721I.sol:ERC721I",
        "label": "_baseURIPermanent",
        "offset": 0,
        "slot": "16",
        "type": "t_bool"
      },
      {
        "astId": 1724,
        "contract": "contracts/ERC721I.sol:ERC721I",
        "label": "_cosigner",
        "offset": 1,
        "slot": "16",
        "type": "t_address"
      },
      {
        "astId": 1726,
        "contract": "contracts/ERC721I.sol:ERC721I",
        "label": "_crossmintAddress",
        "offset": 0,
        "slot": "17",
        "type": "t_address"
      },
      {
        "astId": 1730,
        "contract": "contracts/ERC721I.sol:ERC721I",
        "label": "_mintStages",
        "offset": 0,
        "slot": "18",
        "type": "t_array(t_struct(MintStageInfo)2929_storage)dyn_storage"
      },
      {
        "astId": 1736,
        "contract": "contracts/ERC721I.sol:ERC721I",
        "label": "_stageMintedCountsPerWallet",
        "offset": 0,
        "slot": "19",
        "type": "t_mapping(t_uint256,t_mapping(t_address,t_uint32))"
      },
      {
        "astId": 1740,
        "contract": "contracts/ERC721I.sol:ERC721I",
        "label": "_stageMintedCounts",
        "offset": 0,
        "slot": "20",
        "type": "t_mapping(t_uint256,t_uint256)"
      }
    ],
    "types": {
      "t_address": {
        "encoding": "inplace",
        "label": "address",
        "numberOfBytes": "20"
      },
      "t_array(t_struct(MintStageInfo)2929_storage)dyn_storage": {
        "base": "t_struct(MintStageInfo)2929_storage",
        "encoding": "dynamic_array",
        "label": "struct IERC721I.MintStageInfo[]",
        "numberOfBytes": "32"
      },
      "t_bool": {
        "encoding": "inplace",
        "label": "bool",
        "numberOfBytes": "1"
      },
      "t_bytes32": {
        "encoding": "inplace",
        "label": "bytes32",
        "numberOfBytes": "32"
      },
      "t_mapping(t_address,t_bool)": {
        "encoding": "mapping",
        "key": "t_address",
        "label": "mapping(address => bool)",
        "numberOfBytes": "32",
        "value": "t_bool"
      },
      "t_mapping(t_address,t_mapping(t_address,t_bool))": {
        "encoding": "mapping",
        "key": "t_address",
        "label": "mapping(address => mapping(address => bool))",
        "numberOfBytes": "32",
        "value": "t_mapping(t_address,t_bool)"
      },
      "t_mapping(t_address,t_uint256)": {
        "encoding": "mapping",
        "key": "t_address",
        "label": "mapping(address => uint256)",
        "numberOfBytes": "32",
        "value": "t_uint256"
      },
      "t_mapping(t_address,t_uint32)": {
        "encoding": "mapping",
        "key": "t_address",
        "label": "mapping(address => uint32)",
        "numberOfBytes": "32",
        "value": "t_uint32"
      },
      "t_mapping(t_uint256,t_mapping(t_address,t_uint32))": {
        "encoding": "mapping",
        "key": "t_uint256",
        "label": "mapping(uint256 => mapping(address => uint32))",
        "numberOfBytes": "32",
        "value": "t_mapping(t_address,t_uint32)"
      },
      "t_mapping(t_uint256,t_struct(TokenApprovalRef)3083_storage)": {
        "encoding": "mapping",
        "key": "t_uint256",
        "label": "mapping(uint256 => struct ERC721A.TokenApprovalRef)",
        "numberOfBytes": "32",
        "value": "t_struct(TokenApprovalRef)3083_storage"
      },
      "t_mapping(t_uint256,t_uint256)": {
        "encoding": "mapping",
        "key": "t_uint256",
        "label": "mapping(uint256 => uint256)",
        "numberOfBytes": "32",
        "value": "t_uint256"
      },
      "t_string_storage": {
        "encoding": "bytes",
        "label": "string",
        "numberOfBytes": "32"
      },
      "t_struct(MintStageInfo)2929_storage": {
        "encoding": "inplace",
        "label": "struct IERC721I.MintStageInfo",
        "members": [
          {
            "astId": 2918,
            "contract": "contracts/ERC721I.sol:ERC721I",
            "label": "price",
            "offset": 0,
            "slot": "0",
            "type": "t_uint80"
          },
          {
            "astId": 2920,
            "contract": "contracts/ERC721I.sol:ERC721I",
            "label": "walletLimit",
            "offset": 10,
            "slot": "0",
            "type": "t_uint32"
          },
          {
            "astId": 2922,
            "contract": "contracts/ERC721I.sol:ERC721I",
            "label": "merkleRoot",
            "offset": 0,
            "slot": "1",
            "type": "t_bytes32"
          },
          {
            "astId": 2924,
            "contract": "contracts/ERC721I.sol:ERC721I",
            "label": "maxStageSupply",
            "offset": 0,
            "slot": "2",
            "type": "t_uint24"
          },
          {
            "astId": 2926,
            "contract": "contracts/ERC721I.sol:ERC721I",
            "label": "startTimeUnixSeconds",
            "offset": 3,
            "slot": "2",
            "type": "t_uint64"
          },
          {
            "astId": 2928,
            "contract": "contracts/ERC721I.sol:ERC721I",
            "label": "endTimeUnixSeconds",
            "offset": 11,
            "slot": "2",
            "type": "t_uint64"
          }
        ],
        "numberOfBytes": "96"
      },
      "t_struct(TokenApprovalRef)3083_storage": {
        "encoding": "inplace",
        "label": "struct ERC721A.TokenApprovalRef",
        "members": [
          {
            "astId": 3082,
            "contract": "contracts/ERC721I.sol:ERC721I",
            "label": "value",
            "offset": 0,
            "slot": "0",
            "type": "t_address"
          }
        ],
        "numberOfBytes": "32"
      },
      "t_uint24": {
        "encoding": "inplace",
        "label": "uint24",
        "numberOfBytes": "3"
      },
      "t_uint256": {
        "encoding": "inplace",
        "label": "uint256",
        "numberOfBytes": "32"
      },
      "t_uint32": {
        "encoding": "inplace",
        "label": "uint32",
        "numberOfBytes": "4"
      },
      "t_uint64": {
        "encoding": "inplace",
        "label": "uint64",
        "numberOfBytes": "8"
      },
      "t_uint80": {
        "encoding": "inplace",
        "label": "uint80",
        "numberOfBytes": "10"
      }
    }
  }
}