{
  "address": "0xc5635cec9fE1870181397CFCDF1cf966C7516d9E",
  "abi": [
    {
      "inputs": [
        {
          "internalType": "string",
          "name": "collectionName",
          "type": "string"
        },
        {
          "internalType": "string",
          "name": "collectionSymbol",
          "type": "string"
        },
        {
          "internalType": "string",
          "name": "tokenURISuffix",
          "type": "string"
        },
        {
          "internalType": "uint256",
          "name": "maxMintableSupply",
          "type": "uint256"
        },
        {
          "internalType": "uint256",
          "name": "globalWalletLimit",
          "type": "uint256"
        },
        {
          "internalType": "address",
          "name": "cosigner",
          "type": "address"
        },
        {
          "internalType": "uint256",
          "name": "minimumContributionInWei",
          "type": "uint256"
        },
        {
          "internalType": "uint64",
          "name": "startTimeUnixSeconds",
          "type": "uint64"
        },
        {
          "internalType": "uint64",
          "name": "endTimeUnixSeconds",
          "type": "uint64"
        }
      ],
      "stateMutability": "nonpayable",
      "type": "constructor"
    },
    {
      "inputs": [],
      "name": "AlreadySentTokensToUser",
      "type": "error"
    },
    {
      "inputs": [],
      "name": "ApprovalCallerNotOwnerNorApproved",
      "type": "error"
    },
    {
      "inputs": [],
      "name": "ApprovalQueryForNonexistentToken",
      "type": "error"
    },
    {
      "inputs": [],
      "name": "BalanceQueryForZeroAddress",
      "type": "error"
    },
    {
      "inputs": [],
      "name": "BucketAuctionActive",
      "type": "error"
    },
    {
      "inputs": [],
      "name": "BucketAuctionNotActive",
      "type": "error"
    },
    {
      "inputs": [],
      "name": "CannotIncreaseMaxMintableSupply",
      "type": "error"
    },
    {
      "inputs": [],
      "name": "CannotSendMoreThanUserPurchased",
      "type": "error"
    },
    {
      "inputs": [],
      "name": "CannotSetPriceIfClaimable",
      "type": "error"
    },
    {
      "inputs": [],
      "name": "CannotSetPriceIfFirstTokenSent",
      "type": "error"
    },
    {
      "inputs": [],
      "name": "CannotUpdatePermanentBaseURI",
      "type": "error"
    },
    {
      "inputs": [],
      "name": "CosignerNotSet",
      "type": "error"
    },
    {
      "inputs": [],
      "name": "CrossmintAddressNotSet",
      "type": "error"
    },
    {
      "inputs": [],
      "name": "CrossmintOnly",
      "type": "error"
    },
    {
      "inputs": [],
      "name": "GlobalWalletLimitOverflow",
      "type": "error"
    },
    {
      "inputs": [],
      "name": "IncorrectOwner",
      "type": "error"
    },
    {
      "inputs": [],
      "name": "InsufficientStageTimeGap",
      "type": "error"
    },
    {
      "inputs": [],
      "name": "InvalidConfig",
      "type": "error"
    },
    {
      "inputs": [],
      "name": "InvalidCosignSignature",
      "type": "error"
    },
    {
      "inputs": [],
      "name": "InvalidProof",
      "type": "error"
    },
    {
      "inputs": [],
      "name": "InvalidQueryRange",
      "type": "error"
    },
    {
      "inputs": [],
      "name": "InvalidStage",
      "type": "error"
    },
    {
      "inputs": [],
      "name": "InvalidStageArgsLength",
      "type": "error"
    },
    {
      "inputs": [],
      "name": "InvalidStake",
      "type": "error"
    },
    {
      "inputs": [],
      "name": "InvalidStartAndEndTimestamp",
      "type": "error"
    },
    {
      "inputs": [],
      "name": "LowerThanMinBidAmount",
      "type": "error"
    },
    {
      "inputs": [],
      "name": "MintERC2309QuantityExceedsLimit",
      "type": "error"
    },
    {
      "inputs": [],
      "name": "MintToZeroAddress",
      "type": "error"
    },
    {
      "inputs": [],
      "name": "MintZeroQuantity",
      "type": "error"
    },
    {
      "inputs": [],
      "name": "NoSupplyLeft",
      "type": "error"
    },
    {
      "inputs": [],
      "name": "NoTokensSpecified",
      "type": "error"
    },
    {
      "inputs": [],
      "name": "NotClaimable",
      "type": "error"
    },
    {
      "inputs": [],
      "name": "NotEnoughValue",
      "type": "error"
    },
    {
      "inputs": [],
      "name": "NotMintable",
      "type": "error"
    },
    {
      "inputs": [],
      "name": "OwnerQueryForNonexistentToken",
      "type": "error"
    },
    {
      "inputs": [],
      "name": "OwnershipNotInitializedForExtraData",
      "type": "error"
    },
    {
      "inputs": [],
      "name": "PriceHasBeenSet",
      "type": "error"
    },
    {
      "inputs": [],
      "name": "PriceNotSet",
      "type": "error"
    },
    {
      "inputs": [],
      "name": "StageSupplyExceeded",
      "type": "error"
    },
    {
      "inputs": [],
      "name": "StakingInactive",
      "type": "error"
    },
    {
      "inputs": [],
      "name": "TimestampExpired",
      "type": "error"
    },
    {
      "inputs": [],
      "name": "TransferCallerNotOwnerNorApproved",
      "type": "error"
    },
    {
      "inputs": [],
      "name": "TransferFailed",
      "type": "error"
    },
    {
      "inputs": [],
      "name": "TransferFromIncorrectOwner",
      "type": "error"
    },
    {
      "inputs": [],
      "name": "TransferToNonERC721ReceiverImplementer",
      "type": "error"
    },
    {
      "inputs": [],
      "name": "TransferToZeroAddress",
      "type": "error"
    },
    {
      "inputs": [],
      "name": "TransferWhileStaked",
      "type": "error"
    },
    {
      "inputs": [],
      "name": "URIQueryForNonexistentToken",
      "type": "error"
    },
    {
      "inputs": [],
      "name": "UserAlreadyClaimed",
      "type": "error"
    },
    {
      "inputs": [],
      "name": "WalletGlobalLimitExceeded",
      "type": "error"
    },
    {
      "inputs": [],
      "name": "WalletStageLimitExceeded",
      "type": "error"
    },
    {
      "inputs": [],
      "name": "WithdrawFailed",
      "type": "error"
    },
    {
      "anonymous": false,
      "inputs": [
        {
          "indexed": true,
          "internalType": "address",
          "name": "owner",
          "type": "address"
        },
        {
          "indexed": true,
          "internalType": "address",
          "name": "approved",
          "type": "address"
        },
        {
          "indexed": true,
          "internalType": "uint256",
          "name": "tokenId",
          "type": "uint256"
        }
      ],
      "name": "Approval",
      "type": "event"
    },
    {
      "anonymous": false,
      "inputs": [
        {
          "indexed": true,
          "internalType": "address",
          "name": "owner",
          "type": "address"
        },
        {
          "indexed": true,
          "internalType": "address",
          "name": "operator",
          "type": "address"
        },
        {
          "indexed": false,
          "internalType": "bool",
          "name": "approved",
          "type": "bool"
        }
      ],
      "name": "ApprovalForAll",
      "type": "event"
    },
    {
      "anonymous": false,
      "inputs": [
        {
          "indexed": true,
          "internalType": "address",
          "name": "bidder",
          "type": "address"
        },
        {
          "indexed": false,
          "internalType": "uint256",
          "name": "bidAmount",
          "type": "uint256"
        },
        {
          "indexed": false,
          "internalType": "uint256",
          "name": "bidderTotal",
          "type": "uint256"
        },
        {
          "indexed": false,
          "internalType": "uint256",
          "name": "bucketTotal",
          "type": "uint256"
        }
      ],
      "name": "Bid",
      "type": "event"
    },
    {
      "anonymous": false,
      "inputs": [
        {
          "indexed": true,
          "internalType": "uint256",
          "name": "fromTokenId",
          "type": "uint256"
        },
        {
          "indexed": false,
          "internalType": "uint256",
          "name": "toTokenId",
          "type": "uint256"
        },
        {
          "indexed": true,
          "internalType": "address",
          "name": "from",
          "type": "address"
        },
        {
          "indexed": true,
          "internalType": "address",
          "name": "to",
          "type": "address"
        }
      ],
      "name": "ConsecutiveTransfer",
      "type": "event"
    },
    {
      "anonymous": false,
      "inputs": [
        {
          "indexed": true,
          "internalType": "address",
          "name": "previousOwner",
          "type": "address"
        },
        {
          "indexed": true,
          "internalType": "address",
          "name": "newOwner",
          "type": "address"
        }
      ],
      "name": "OwnershipTransferred",
      "type": "event"
    },
    {
      "anonymous": false,
      "inputs": [
        {
          "indexed": false,
          "internalType": "string",
          "name": "baseURI",
          "type": "string"
        }
      ],
      "name": "PermanentBaseURI",
      "type": "event"
    },
    {
      "anonymous": false,
      "inputs": [
        {
          "indexed": false,
          "internalType": "uint256",
          "name": "activeStage",
          "type": "uint256"
        }
      ],
      "name": "SetActiveStage",
      "type": "event"
    },
    {
      "anonymous": false,
      "inputs": [
        {
          "indexed": false,
          "internalType": "string",
          "name": "baseURI",
          "type": "string"
        }
      ],
      "name": "SetBaseURI",
      "type": "event"
    },
    {
      "anonymous": false,
      "inputs": [
        {
          "indexed": false,
          "internalType": "bool",
          "name": "claimable",
          "type": "bool"
        }
      ],
      "name": "SetClaimable",
      "type": "event"
    },
    {
      "anonymous": false,
      "inputs": [
        {
          "indexed": false,
          "internalType": "address",
          "name": "cosigner",
          "type": "address"
        }
      ],
      "name": "SetCosigner",
      "type": "event"
    },
    {
      "anonymous": false,
      "inputs": [
        {
          "indexed": false,
          "internalType": "address",
          "name": "crossmintAddress",
          "type": "address"
        }
      ],
      "name": "SetCrossmintAddress",
      "type": "event"
    },
    {
      "anonymous": false,
      "inputs": [
        {
          "indexed": false,
          "internalType": "uint256",
          "name": "globalWalletLimit",
          "type": "uint256"
        }
      ],
      "name": "SetGlobalWalletLimit",
      "type": "event"
    },
    {
      "anonymous": false,
      "inputs": [
        {
          "indexed": false,
          "internalType": "uint256",
          "name": "maxMintableSupply",
          "type": "uint256"
        }
      ],
      "name": "SetMaxMintableSupply",
      "type": "event"
    },
    {
      "anonymous": false,
      "inputs": [
        {
          "indexed": false,
          "internalType": "uint256",
          "name": "minimumContributionInWei",
          "type": "uint256"
        }
      ],
      "name": "SetMinimumContribution",
      "type": "event"
    },
    {
      "anonymous": false,
      "inputs": [
        {
          "indexed": false,
          "internalType": "bool",
          "name": "mintable",
          "type": "bool"
        }
      ],
      "name": "SetMintable",
      "type": "event"
    },
    {
      "anonymous": false,
      "inputs": [
        {
          "indexed": false,
          "internalType": "uint256",
          "name": "price",
          "type": "uint256"
        }
      ],
      "name": "SetPrice",
      "type": "event"
    },
    {
      "anonymous": false,
      "inputs": [
        {
          "indexed": true,
          "internalType": "uint16",
          "name": "tokenId",
          "type": "uint16"
        },
        {
          "indexed": false,
          "internalType": "uint32",
          "name": "timestamp",
          "type": "uint32"
        },
        {
          "indexed": false,
          "internalType": "uint32",
          "name": "collected",
          "type": "uint32"
        }
      ],
      "name": "StakeClaimed",
      "type": "event"
    },
    {
      "anonymous": false,
      "inputs": [
        {
          "indexed": true,
          "internalType": "uint16",
          "name": "tokenId",
          "type": "uint16"
        },
        {
          "indexed": false,
          "internalType": "uint32",
          "name": "timestamp",
          "type": "uint32"
        }
      ],
      "name": "TokenStaked",
      "type": "event"
    },
    {
      "anonymous": false,
      "inputs": [
        {
          "indexed": true,
          "internalType": "uint16",
          "name": "tokenId",
          "type": "uint16"
        },
        {
          "indexed": false,
          "internalType": "uint32",
          "name": "timestamp",
          "type": "uint32"
        }
      ],
      "name": "TokenUnstaked",
      "type": "event"
    },
    {
      "anonymous": false,
      "inputs": [
        {
          "indexed": true,
          "internalType": "address",
          "name": "from",
          "type": "address"
        },
        {
          "indexed": true,
          "internalType": "address",
          "name": "to",
          "type": "address"
        },
        {
          "indexed": true,
          "internalType": "uint256",
          "name": "tokenId",
          "type": "uint256"
        }
      ],
      "name": "Transfer",
      "type": "event"
    },
    {
      "anonymous": false,
      "inputs": [
        {
          "indexed": false,
          "internalType": "uint256",
          "name": "stage",
          "type": "uint256"
        },
        {
          "indexed": false,
          "internalType": "uint80",
          "name": "price",
          "type": "uint80"
        },
        {
          "indexed": false,
          "internalType": "uint32",
          "name": "walletLimit",
          "type": "uint32"
        },
        {
          "indexed": false,
          "internalType": "bytes32",
          "name": "merkleRoot",
          "type": "bytes32"
        },
        {
          "indexed": false,
          "internalType": "uint24",
          "name": "maxStageSupply",
          "type": "uint24"
        },
        {
          "indexed": false,
          "internalType": "uint64",
          "name": "startTimeUnixSeconds",
          "type": "uint64"
        },
        {
          "indexed": false,
          "internalType": "uint64",
          "name": "endTimeUnixSeconds",
          "type": "uint64"
        }
      ],
      "name": "UpdateStage",
      "type": "event"
    },
    {
      "anonymous": false,
      "inputs": [
        {
          "indexed": false,
          "internalType": "uint256",
          "name": "value",
          "type": "uint256"
        }
      ],
      "name": "Withdraw",
      "type": "event"
    },
    {
      "inputs": [],
      "name": "CROSSMINT_TIMESTAMP_EXPIRY_SECONDS",
      "outputs": [
        {
          "internalType": "uint64",
          "name": "",
          "type": "uint64"
        }
      ],
      "stateMutability": "view",
      "type": "function"
    },
    {
      "inputs": [],
      "name": "MIN_STAGE_INTERVAL_SECONDS",
      "outputs": [
        {
          "internalType": "uint64",
          "name": "",
          "type": "uint64"
        }
      ],
      "stateMutability": "view",
      "type": "function"
    },
    {
      "inputs": [
        {
          "internalType": "address",
          "name": "user",
          "type": "address"
        }
      ],
      "name": "amountPurchased",
      "outputs": [
        {
          "internalType": "uint256",
          "name": "",
          "type": "uint256"
        }
      ],
      "stateMutability": "view",
      "type": "function"
    },
    {
      "inputs": [
        {
          "internalType": "address",
          "name": "to",
          "type": "address"
        },
        {
          "internalType": "uint256",
          "name": "tokenId",
          "type": "uint256"
        }
      ],
      "name": "approve",
      "outputs": [],
      "stateMutability": "payable",
      "type": "function"
    },
    {
      "inputs": [
        {
          "internalType": "address",
          "name": "minter",
          "type": "address"
        },
        {
          "internalType": "uint32",
          "name": "qty",
          "type": "uint32"
        },
        {
          "internalType": "uint64",
          "name": "timestamp",
          "type": "uint64"
        },
        {
          "internalType": "bytes",
          "name": "signature",
          "type": "bytes"
        }
      ],
      "name": "assertValidCosign",
      "outputs": [],
      "stateMutability": "view",
      "type": "function"
    },
    {
      "inputs": [
        {
          "internalType": "address",
          "name": "owner",
          "type": "address"
        }
      ],
      "name": "balanceOf",
      "outputs": [
        {
          "internalType": "uint256",
          "name": "",
          "type": "uint256"
        }
      ],
      "stateMutability": "view",
      "type": "function"
    },
    {
      "inputs": [],
      "name": "baseAward",
      "outputs": [
        {
          "internalType": "uint32",
          "name": "",
          "type": "uint32"
        }
      ],
      "stateMutability": "view",
      "type": "function"
    },
    {
      "inputs": [],
      "name": "bid",
      "outputs": [],
      "stateMutability": "payable",
      "type": "function"
    },
    {
      "inputs": [
        {
          "internalType": "uint16[]",
          "name": "tokenIds",
          "type": "uint16[]"
        },
        {
          "internalType": "bool",
          "name": "reStake",
          "type": "bool"
        }
      ],
      "name": "claimTokens",
      "outputs": [],
      "stateMutability": "nonpayable",
      "type": "function"
    },
    {
      "inputs": [],
      "name": "claimTokensAndRefund",
      "outputs": [],
      "stateMutability": "nonpayable",
      "type": "function"
    },
    {
      "inputs": [
        {
          "internalType": "uint32",
          "name": "qty",
          "type": "uint32"
        },
        {
          "internalType": "address",
          "name": "to",
          "type": "address"
        },
        {
          "internalType": "bytes32[]",
          "name": "proof",
          "type": "bytes32[]"
        },
        {
          "internalType": "uint64",
          "name": "timestamp",
          "type": "uint64"
        },
        {
          "internalType": "bytes",
          "name": "signature",
          "type": "bytes"
        }
      ],
      "name": "crossmint",
      "outputs": [],
      "stateMutability": "payable",
      "type": "function"
    },
    {
      "inputs": [
        {
          "internalType": "uint256",
          "name": "tokenId",
          "type": "uint256"
        }
      ],
      "name": "explicitOwnershipOf",
      "outputs": [
        {
          "components": [
            {
              "internalType": "address",
              "name": "addr",
              "type": "address"
            },
            {
              "internalType": "uint64",
              "name": "startTimestamp",
              "type": "uint64"
            },
            {
              "internalType": "bool",
              "name": "burned",
              "type": "bool"
            },
            {
              "internalType": "uint24",
              "name": "extraData",
              "type": "uint24"
            }
          ],
          "internalType": "struct IERC721A.TokenOwnership",
          "name": "",
          "type": "tuple"
        }
      ],
      "stateMutability": "view",
      "type": "function"
    },
    {
      "inputs": [
        {
          "internalType": "uint256[]",
          "name": "tokenIds",
          "type": "uint256[]"
        }
      ],
      "name": "explicitOwnershipsOf",
      "outputs": [
        {
          "components": [
            {
              "internalType": "address",
              "name": "addr",
              "type": "address"
            },
            {
              "internalType": "uint64",
              "name": "startTimestamp",
              "type": "uint64"
            },
            {
              "internalType": "bool",
              "name": "burned",
              "type": "bool"
            },
            {
              "internalType": "uint24",
              "name": "extraData",
              "type": "uint24"
            }
          ],
          "internalType": "struct IERC721A.TokenOwnership[]",
          "name": "",
          "type": "tuple[]"
        }
      ],
      "stateMutability": "view",
      "type": "function"
    },
    {
      "inputs": [],
      "name": "getActiveStage",
      "outputs": [
        {
          "internalType": "uint256",
          "name": "",
          "type": "uint256"
        }
      ],
      "stateMutability": "view",
      "type": "function"
    },
    {
      "inputs": [
        {
          "internalType": "uint64",
          "name": "timestamp",
          "type": "uint64"
        }
      ],
      "name": "getActiveStageFromTimestamp",
      "outputs": [
        {
          "internalType": "uint256",
          "name": "",
          "type": "uint256"
        }
      ],
      "stateMutability": "view",
      "type": "function"
    },
    {
      "inputs": [
        {
          "internalType": "uint256",
          "name": "tokenId",
          "type": "uint256"
        }
      ],
      "name": "getApproved",
      "outputs": [
        {
          "internalType": "address",
          "name": "",
          "type": "address"
        }
      ],
      "stateMutability": "view",
      "type": "function"
    },
    {
      "inputs": [],
      "name": "getAuctionActive",
      "outputs": [
        {
          "internalType": "bool",
          "name": "",
          "type": "bool"
        }
      ],
      "stateMutability": "view",
      "type": "function"
    },
    {
      "inputs": [],
      "name": "getClaimable",
      "outputs": [
        {
          "internalType": "bool",
          "name": "",
          "type": "bool"
        }
      ],
      "stateMutability": "view",
      "type": "function"
    },
    {
      "inputs": [
        {
          "internalType": "address",
          "name": "minter",
          "type": "address"
        },
        {
          "internalType": "uint32",
          "name": "qty",
          "type": "uint32"
        },
        {
          "internalType": "uint64",
          "name": "timestamp",
          "type": "uint64"
        }
      ],
      "name": "getCosignDigest",
      "outputs": [
        {
          "internalType": "bytes32",
          "name": "",
          "type": "bytes32"
        }
      ],
      "stateMutability": "view",
      "type": "function"
    },
    {
      "inputs": [
        {
          "internalType": "address",
          "name": "minter",
          "type": "address"
        }
      ],
      "name": "getCosignNonce",
      "outputs": [
        {
          "internalType": "uint256",
          "name": "",
          "type": "uint256"
        }
      ],
      "stateMutability": "view",
      "type": "function"
    },
    {
      "inputs": [],
      "name": "getCosigner",
      "outputs": [
        {
          "internalType": "address",
          "name": "",
          "type": "address"
        }
      ],
      "stateMutability": "view",
      "type": "function"
    },
    {
      "inputs": [],
      "name": "getCrossmintAddress",
      "outputs": [
        {
          "internalType": "address",
          "name": "",
          "type": "address"
        }
      ],
      "stateMutability": "view",
      "type": "function"
    },
    {
      "inputs": [],
      "name": "getEndTimeUnixSeconds",
      "outputs": [
        {
          "internalType": "uint64",
          "name": "",
          "type": "uint64"
        }
      ],
      "stateMutability": "view",
      "type": "function"
    },
    {
      "inputs": [],
      "name": "getGlobalWalletLimit",
      "outputs": [
        {
          "internalType": "uint256",
          "name": "",
          "type": "uint256"
        }
      ],
      "stateMutability": "view",
      "type": "function"
    },
    {
      "inputs": [],
      "name": "getMaxMintableSupply",
      "outputs": [
        {
          "internalType": "uint256",
          "name": "",
          "type": "uint256"
        }
      ],
      "stateMutability": "view",
      "type": "function"
    },
    {
      "inputs": [],
      "name": "getMinimumContributionInWei",
      "outputs": [
        {
          "internalType": "uint256",
          "name": "",
          "type": "uint256"
        }
      ],
      "stateMutability": "view",
      "type": "function"
    },
    {
      "inputs": [],
      "name": "getMintable",
      "outputs": [
        {
          "internalType": "bool",
          "name": "",
          "type": "bool"
        }
      ],
      "stateMutability": "view",
      "type": "function"
    },
    {
      "inputs": [],
      "name": "getNumberStages",
      "outputs": [
        {
          "internalType": "uint256",
          "name": "",
          "type": "uint256"
        }
      ],
      "stateMutability": "view",
      "type": "function"
    },
    {
      "inputs": [],
      "name": "getPrice",
      "outputs": [
        {
          "internalType": "uint256",
          "name": "",
          "type": "uint256"
        }
      ],
      "stateMutability": "view",
      "type": "function"
    },
    {
      "inputs": [],
      "name": "getRewardHandler",
      "outputs": [
        {
          "internalType": "address",
          "name": "",
          "type": "address"
        }
      ],
      "stateMutability": "view",
      "type": "function"
    },
    {
      "inputs": [
        {
          "internalType": "uint256",
          "name": "index",
          "type": "uint256"
        }
      ],
      "name": "getStageInfo",
      "outputs": [
        {
          "components": [
            {
              "internalType": "uint80",
              "name": "price",
              "type": "uint80"
            },
            {
              "internalType": "uint32",
              "name": "walletLimit",
              "type": "uint32"
            },
            {
              "internalType": "bytes32",
              "name": "merkleRoot",
              "type": "bytes32"
            },
            {
              "internalType": "uint24",
              "name": "maxStageSupply",
              "type": "uint24"
            },
            {
              "internalType": "uint64",
              "name": "startTimeUnixSeconds",
              "type": "uint64"
            },
            {
              "internalType": "uint64",
              "name": "endTimeUnixSeconds",
              "type": "uint64"
            }
          ],
          "internalType": "struct IERC721I.MintStageInfo",
          "name": "",
          "type": "tuple"
        },
        {
          "internalType": "uint32",
          "name": "",
          "type": "uint32"
        },
        {
          "internalType": "uint256",
          "name": "",
          "type": "uint256"
        }
      ],
      "stateMutability": "view",
      "type": "function"
    },
    {
      "inputs": [
        {
          "internalType": "uint16[]",
          "name": "tokenIds",
          "type": "uint16[]"
        }
      ],
      "name": "getStakeInfo",
      "outputs": [
        {
          "components": [
            {
              "internalType": "uint16",
              "name": "tokenId",
              "type": "uint16"
            },
            {
              "internalType": "uint32",
              "name": "accrued",
              "type": "uint32"
            },
            {
              "internalType": "uint32",
              "name": "pending",
              "type": "uint32"
            },
            {
              "internalType": "bool",
              "name": "isStaked",
              "type": "bool"
            }
          ],
          "internalType": "struct StakeInfo[]",
          "name": "infos",
          "type": "tuple[]"
        }
      ],
      "stateMutability": "view",
      "type": "function"
    },
    {
      "inputs": [],
      "name": "getStartTimeUnixSeconds",
      "outputs": [
        {
          "internalType": "uint64",
          "name": "",
          "type": "uint64"
        }
      ],
      "stateMutability": "view",
      "type": "function"
    },
    {
      "inputs": [],
      "name": "getTokenURISuffix",
      "outputs": [
        {
          "internalType": "string",
          "name": "",
          "type": "string"
        }
      ],
      "stateMutability": "view",
      "type": "function"
    },
    {
      "inputs": [],
      "name": "getTotalUsers",
      "outputs": [
        {
          "internalType": "uint256",
          "name": "",
          "type": "uint256"
        }
      ],
      "stateMutability": "view",
      "type": "function"
    },
    {
      "inputs": [
        {
          "internalType": "address",
          "name": "user",
          "type": "address"
        }
      ],
      "name": "getUserData",
      "outputs": [
        {
          "components": [
            {
              "internalType": "uint216",
              "name": "contribution",
              "type": "uint216"
            },
            {
              "internalType": "uint32",
              "name": "tokensClaimed",
              "type": "uint32"
            },
            {
              "internalType": "bool",
              "name": "refundClaimed",
              "type": "bool"
            }
          ],
          "internalType": "struct IBucketAuction.User",
          "name": "",
          "type": "tuple"
        }
      ],
      "stateMutability": "view",
      "type": "function"
    },
    {
      "inputs": [
        {
          "internalType": "uint256",
          "name": "limit",
          "type": "uint256"
        },
        {
          "internalType": "uint256",
          "name": "offset",
          "type": "uint256"
        }
      ],
      "name": "getUserDataPage",
      "outputs": [
        {
          "components": [
            {
              "internalType": "uint216",
              "name": "contribution",
              "type": "uint216"
            },
            {
              "internalType": "uint32",
              "name": "tokensClaimed",
              "type": "uint32"
            },
            {
              "internalType": "bool",
              "name": "refundClaimed",
              "type": "bool"
            }
          ],
          "internalType": "struct IBucketAuction.User[]",
          "name": "",
          "type": "tuple[]"
        },
        {
          "internalType": "address[]",
          "name": "",
          "type": "address[]"
        },
        {
          "internalType": "uint256",
          "name": "total",
          "type": "uint256"
        }
      ],
      "stateMutability": "view",
      "type": "function"
    },
    {
      "inputs": [
        {
          "internalType": "address",
          "name": "owner",
          "type": "address"
        },
        {
          "internalType": "address",
          "name": "operator",
          "type": "address"
        }
      ],
      "name": "isApprovedForAll",
      "outputs": [
        {
          "internalType": "bool",
          "name": "",
          "type": "bool"
        }
      ],
      "stateMutability": "view",
      "type": "function"
    },
    {
      "inputs": [],
      "name": "isStakeable",
      "outputs": [
        {
          "internalType": "bool",
          "name": "",
          "type": "bool"
        }
      ],
      "stateMutability": "view",
      "type": "function"
    },
    {
      "inputs": [
        {
          "internalType": "uint32",
          "name": "qty",
          "type": "uint32"
        },
        {
          "internalType": "bytes32[]",
          "name": "proof",
          "type": "bytes32[]"
        },
        {
          "internalType": "uint64",
          "name": "timestamp",
          "type": "uint64"
        },
        {
          "internalType": "bytes",
          "name": "signature",
          "type": "bytes"
        }
      ],
      "name": "mint",
      "outputs": [],
      "stateMutability": "payable",
      "type": "function"
    },
    {
      "inputs": [],
      "name": "name",
      "outputs": [
        {
          "internalType": "string",
          "name": "",
          "type": "string"
        }
      ],
      "stateMutability": "view",
      "type": "function"
    },
    {
      "inputs": [],
      "name": "owner",
      "outputs": [
        {
          "internalType": "address",
          "name": "",
          "type": "address"
        }
      ],
      "stateMutability": "view",
      "type": "function"
    },
    {
      "inputs": [
        {
          "internalType": "uint32",
          "name": "qty",
          "type": "uint32"
        },
        {
          "internalType": "address",
          "name": "to",
          "type": "address"
        }
      ],
      "name": "ownerMint",
      "outputs": [],
      "stateMutability": "nonpayable",
      "type": "function"
    },
    {
      "inputs": [
        {
          "internalType": "uint256",
          "name": "tokenId",
          "type": "uint256"
        }
      ],
      "name": "ownerOf",
      "outputs": [
        {
          "internalType": "address",
          "name": "currentOwner",
          "type": "address"
        }
      ],
      "stateMutability": "view",
      "type": "function"
    },
    {
      "inputs": [
        {
          "internalType": "uint16[]",
          "name": "tokenIds",
          "type": "uint16[]"
        }
      ],
      "name": "ownerOfAll",
      "outputs": [
        {
          "internalType": "address[]",
          "name": "owners",
          "type": "address[]"
        }
      ],
      "stateMutability": "view",
      "type": "function"
    },
    {
      "inputs": [
        {
          "internalType": "address",
          "name": "user",
          "type": "address"
        }
      ],
      "name": "refundAmount",
      "outputs": [
        {
          "internalType": "uint256",
          "name": "",
          "type": "uint256"
        }
      ],
      "stateMutability": "view",
      "type": "function"
    },
    {
      "inputs": [],
      "name": "renounceOwnership",
      "outputs": [],
      "stateMutability": "nonpayable",
      "type": "function"
    },
    {
      "inputs": [],
      "name": "rewardHandler",
      "outputs": [
        {
          "internalType": "contract IGakkoRewards",
          "name": "",
          "type": "address"
        }
      ],
      "stateMutability": "view",
      "type": "function"
    },
    {
      "inputs": [
        {
          "internalType": "address",
          "name": "from",
          "type": "address"
        },
        {
          "internalType": "address",
          "name": "to",
          "type": "address"
        },
        {
          "internalType": "uint256",
          "name": "tokenId",
          "type": "uint256"
        }
      ],
      "name": "safeTransferFrom",
      "outputs": [],
      "stateMutability": "payable",
      "type": "function"
    },
    {
      "inputs": [
        {
          "internalType": "address",
          "name": "from",
          "type": "address"
        },
        {
          "internalType": "address",
          "name": "to",
          "type": "address"
        },
        {
          "internalType": "uint256",
          "name": "tokenId",
          "type": "uint256"
        },
        {
          "internalType": "bytes",
          "name": "_data",
          "type": "bytes"
        }
      ],
      "name": "safeTransferFrom",
      "outputs": [],
      "stateMutability": "payable",
      "type": "function"
    },
    {
      "inputs": [
        {
          "internalType": "address",
          "name": "to",
          "type": "address"
        }
      ],
      "name": "sendAllTokens",
      "outputs": [],
      "stateMutability": "nonpayable",
      "type": "function"
    },
    {
      "inputs": [
        {
          "internalType": "address",
          "name": "to",
          "type": "address"
        }
      ],
      "name": "sendRefund",
      "outputs": [],
      "stateMutability": "nonpayable",
      "type": "function"
    },
    {
      "inputs": [
        {
          "internalType": "address[]",
          "name": "addresses",
          "type": "address[]"
        }
      ],
      "name": "sendRefundBatch",
      "outputs": [],
      "stateMutability": "nonpayable",
      "type": "function"
    },
    {
      "inputs": [
        {
          "internalType": "address",
          "name": "to",
          "type": "address"
        },
        {
          "internalType": "uint256",
          "name": "amount",
          "type": "uint256"
        }
      ],
      "name": "sendTokens",
      "outputs": [],
      "stateMutability": "nonpayable",
      "type": "function"
    },
    {
      "inputs": [
        {
          "internalType": "address",
          "name": "to",
          "type": "address"
        }
      ],
      "name": "sendTokensAndRefund",
      "outputs": [],
      "stateMutability": "nonpayable",
      "type": "function"
    },
    {
      "inputs": [
        {
          "internalType": "address[]",
          "name": "addresses",
          "type": "address[]"
        }
      ],
      "name": "sendTokensAndRefundBatch",
      "outputs": [],
      "stateMutability": "nonpayable",
      "type": "function"
    },
    {
      "inputs": [
        {
          "internalType": "address[]",
          "name": "addresses",
          "type": "address[]"
        }
      ],
      "name": "sendTokensBatch",
      "outputs": [],
      "stateMutability": "nonpayable",
      "type": "function"
    },
    {
      "inputs": [
        {
          "internalType": "uint256",
          "name": "activeStage",
          "type": "uint256"
        }
      ],
      "name": "setActiveStage",
      "outputs": [],
      "stateMutability": "nonpayable",
      "type": "function"
    },
    {
      "inputs": [
        {
          "internalType": "address",
          "name": "operator",
          "type": "address"
        },
        {
          "internalType": "bool",
          "name": "approved",
          "type": "bool"
        }
      ],
      "name": "setApprovalForAll",
      "outputs": [],
      "stateMutability": "nonpayable",
      "type": "function"
    },
    {
      "inputs": [
        {
          "internalType": "uint32",
          "name": "award",
          "type": "uint32"
        }
      ],
      "name": "setBaseAward",
      "outputs": [],
      "stateMutability": "nonpayable",
      "type": "function"
    },
    {
      "inputs": [
        {
          "internalType": "string",
          "name": "baseURI",
          "type": "string"
        }
      ],
      "name": "setBaseURI",
      "outputs": [],
      "stateMutability": "nonpayable",
      "type": "function"
    },
    {
      "inputs": [],
      "name": "setBaseURIPermanent",
      "outputs": [],
      "stateMutability": "nonpayable",
      "type": "function"
    },
    {
      "inputs": [
        {
          "internalType": "bool",
          "name": "claimable",
          "type": "bool"
        }
      ],
      "name": "setClaimable",
      "outputs": [],
      "stateMutability": "nonpayable",
      "type": "function"
    },
    {
      "inputs": [
        {
          "internalType": "address",
          "name": "cosigner",
          "type": "address"
        }
      ],
      "name": "setCosigner",
      "outputs": [],
      "stateMutability": "nonpayable",
      "type": "function"
    },
    {
      "inputs": [
        {
          "internalType": "address",
          "name": "crossmintAddress",
          "type": "address"
        }
      ],
      "name": "setCrossmintAddress",
      "outputs": [],
      "stateMutability": "nonpayable",
      "type": "function"
    },
    {
      "inputs": [
        {
          "internalType": "uint256",
          "name": "globalWalletLimit",
          "type": "uint256"
        }
      ],
      "name": "setGlobalWalletLimit",
      "outputs": [],
      "stateMutability": "nonpayable",
      "type": "function"
    },
    {
      "inputs": [
        {
          "internalType": "contract IGakkoRewards",
          "name": "handler",
          "type": "address"
        }
      ],
      "name": "setHandler",
      "outputs": [],
      "stateMutability": "nonpayable",
      "type": "function"
    },
    {
      "inputs": [
        {
          "internalType": "uint256",
          "name": "maxMintableSupply",
          "type": "uint256"
        }
      ],
      "name": "setMaxMintableSupply",
      "outputs": [],
      "stateMutability": "nonpayable",
      "type": "function"
    },
    {
      "inputs": [
        {
          "internalType": "uint256",
          "name": "minimumContributionInWei",
          "type": "uint256"
        }
      ],
      "name": "setMinimumContribution",
      "outputs": [],
      "stateMutability": "nonpayable",
      "type": "function"
    },
    {
      "inputs": [
        {
          "internalType": "bool",
          "name": "mintable",
          "type": "bool"
        }
      ],
      "name": "setMintable",
      "outputs": [],
      "stateMutability": "nonpayable",
      "type": "function"
    },
    {
      "inputs": [
        {
          "internalType": "uint256",
          "name": "priceInWei",
          "type": "uint256"
        }
      ],
      "name": "setPrice",
      "outputs": [],
      "stateMutability": "nonpayable",
      "type": "function"
    },
    {
      "inputs": [
        {
          "components": [
            {
              "internalType": "uint80",
              "name": "price",
              "type": "uint80"
            },
            {
              "internalType": "uint32",
              "name": "walletLimit",
              "type": "uint32"
            },
            {
              "internalType": "bytes32",
              "name": "merkleRoot",
              "type": "bytes32"
            },
            {
              "internalType": "uint24",
              "name": "maxStageSupply",
              "type": "uint24"
            },
            {
              "internalType": "uint64",
              "name": "startTimeUnixSeconds",
              "type": "uint64"
            },
            {
              "internalType": "uint64",
              "name": "endTimeUnixSeconds",
              "type": "uint64"
            }
          ],
          "internalType": "struct IERC721I.MintStageInfo[]",
          "name": "newStages",
          "type": "tuple[]"
        }
      ],
      "name": "setStages",
      "outputs": [],
      "stateMutability": "nonpayable",
      "type": "function"
    },
    {
      "inputs": [
        {
          "internalType": "bool",
          "name": "stakeable",
          "type": "bool"
        }
      ],
      "name": "setStakeable",
      "outputs": [],
      "stateMutability": "nonpayable",
      "type": "function"
    },
    {
      "inputs": [
        {
          "internalType": "uint64",
          "name": "startTime",
          "type": "uint64"
        },
        {
          "internalType": "uint64",
          "name": "endTime",
          "type": "uint64"
        }
      ],
      "name": "setStartAndEndTimeUnixSeconds",
      "outputs": [],
      "stateMutability": "nonpayable",
      "type": "function"
    },
    {
      "inputs": [
        {
          "internalType": "string",
          "name": "suffix",
          "type": "string"
        }
      ],
      "name": "setTokenURISuffix",
      "outputs": [],
      "stateMutability": "nonpayable",
      "type": "function"
    },
    {
      "inputs": [
        {
          "internalType": "uint16[]",
          "name": "tokenIds",
          "type": "uint16[]"
        }
      ],
      "name": "stakeTokens",
      "outputs": [],
      "stateMutability": "nonpayable",
      "type": "function"
    },
    {
      "inputs": [
        {
          "internalType": "uint16",
          "name": "",
          "type": "uint16"
        }
      ],
      "name": "stakes",
      "outputs": [
        {
          "internalType": "uint32",
          "name": "started",
          "type": "uint32"
        },
        {
          "internalType": "uint32",
          "name": "total",
          "type": "uint32"
        }
      ],
      "stateMutability": "view",
      "type": "function"
    },
    {
      "inputs": [
        {
          "internalType": "bytes4",
          "name": "interfaceId",
          "type": "bytes4"
        }
      ],
      "name": "supportsInterface",
      "outputs": [
        {
          "internalType": "bool",
          "name": "",
          "type": "bool"
        }
      ],
      "stateMutability": "view",
      "type": "function"
    },
    {
      "inputs": [],
      "name": "symbol",
      "outputs": [
        {
          "internalType": "string",
          "name": "",
          "type": "string"
        }
      ],
      "stateMutability": "view",
      "type": "function"
    },
    {
      "inputs": [
        {
          "internalType": "uint256",
          "name": "tokenId",
          "type": "uint256"
        }
      ],
      "name": "tokenURI",
      "outputs": [
        {
          "internalType": "string",
          "name": "",
          "type": "string"
        }
      ],
      "stateMutability": "view",
      "type": "function"
    },
    {
      "inputs": [
        {
          "internalType": "address",
          "name": "owner",
          "type": "address"
        }
      ],
      "name": "tokensOfOwner",
      "outputs": [
        {
          "internalType": "uint256[]",
          "name": "",
          "type": "uint256[]"
        }
      ],
      "stateMutability": "view",
      "type": "function"
    },
    {
      "inputs": [
        {
          "internalType": "address",
          "name": "owner",
          "type": "address"
        },
        {
          "internalType": "uint256",
          "name": "start",
          "type": "uint256"
        },
        {
          "internalType": "uint256",
          "name": "stop",
          "type": "uint256"
        }
      ],
      "name": "tokensOfOwnerIn",
      "outputs": [
        {
          "internalType": "uint256[]",
          "name": "",
          "type": "uint256[]"
        }
      ],
      "stateMutability": "view",
      "type": "function"
    },
    {
      "inputs": [
        {
          "internalType": "address",
          "name": "a",
          "type": "address"
        }
      ],
      "name": "totalMintedByAddress",
      "outputs": [
        {
          "internalType": "uint256",
          "name": "",
          "type": "uint256"
        }
      ],
      "stateMutability": "view",
      "type": "function"
    },
    {
      "inputs": [],
      "name": "totalSupply",
      "outputs": [
        {
          "internalType": "uint256",
          "name": "",
          "type": "uint256"
        }
      ],
      "stateMutability": "view",
      "type": "function"
    },
    {
      "inputs": [
        {
          "internalType": "address",
          "name": "from",
          "type": "address"
        },
        {
          "internalType": "address",
          "name": "to",
          "type": "address"
        },
        {
          "internalType": "uint256",
          "name": "tokenId",
          "type": "uint256"
        }
      ],
      "name": "transferFrom",
      "outputs": [],
      "stateMutability": "payable",
      "type": "function"
    },
    {
      "inputs": [
        {
          "internalType": "address",
          "name": "newOwner",
          "type": "address"
        }
      ],
      "name": "transferOwnership",
      "outputs": [],
      "stateMutability": "nonpayable",
      "type": "function"
    },
    {
      "inputs": [
        {
          "internalType": "uint256",
          "name": "index",
          "type": "uint256"
        },
        {
          "internalType": "uint80",
          "name": "price",
          "type": "uint80"
        },
        {
          "internalType": "uint32",
          "name": "walletLimit",
          "type": "uint32"
        },
        {
          "internalType": "bytes32",
          "name": "merkleRoot",
          "type": "bytes32"
        },
        {
          "internalType": "uint24",
          "name": "maxStageSupply",
          "type": "uint24"
        },
        {
          "internalType": "uint64",
          "name": "startTimeUnixSeconds",
          "type": "uint64"
        },
        {
          "internalType": "uint64",
          "name": "endTimeUnixSeconds",
          "type": "uint64"
        }
      ],
      "name": "updateStage",
      "outputs": [],
      "stateMutability": "nonpayable",
      "type": "function"
    },
    {
      "inputs": [],
      "name": "withdraw",
      "outputs": [],
      "stateMutability": "nonpayable",
      "type": "function"
    }
  ],
  "transactionHash": "0x602a121514d4313d333cbd008866c4a837a9a2b1022e6c30ab728a9697038304",
  "args": [
    "Azuki",
    "AZUKI",
    ".json",
    "10000",
    "5",
    "0x0000000000000000000000000000000000000000",
    "40000000000000000",
    "1672741140",
    "1840015254"
  ],
  "numDeployments": 1,
  "solcInputHash": "fb84d90a55734713b75ed4ea9fd47437",
  "bytecode": "0x60806040523480156200001157600080fd5b50604051620062c8380380620062c88339810160408190526200003491620002b2565b8888888888888888888888888888888585600262000053838262000428565b50600362000062828262000428565b50506000805550620000743362000166565b6001600955828211156200009b57604051630590c51360e01b815260040160405180910390fd5b600a805460ff19166001179055600d839055600e829055600f620000c0858262000428565b5060108054610100600160a81b0319166101006001600160a01b03939093169290920291909117905550506015805460169790975561ff01600160901b0319909616620100006001600160401b0396871602600160501b600160901b031916176a010000000000000000000094909516939093029390931761ff0019169093555050601b805463ffffffff1916905550620004f49e505050505050505050505050505050565b600880546001600160a01b038381166001600160a01b0319831681179093556040519116919082907f8be0079c531659141344cd1fd0a4f28419497f9722a3daafe3b4186f6b6457e090600090a35050565b634e487b7160e01b600052604160045260246000fd5b600082601f830112620001e057600080fd5b81516001600160401b0380821115620001fd57620001fd620001b8565b604051601f8301601f19908116603f01168101908282118183101715620002285762000228620001b8565b816040528381526020925086838588010111156200024557600080fd5b600091505b838210156200026957858201830151818301840152908201906200024a565b600093810190920192909252949350505050565b80516001600160a01b03811681146200029557600080fd5b919050565b80516001600160401b03811681146200029557600080fd5b60008060008060008060008060006101208a8c031215620002d257600080fd5b89516001600160401b0380821115620002ea57600080fd5b620002f88d838e01620001ce565b9a5060208c01519150808211156200030f57600080fd5b6200031d8d838e01620001ce565b995060408c01519150808211156200033457600080fd5b50620003438c828d01620001ce565b97505060608a0151955060808a015194506200036260a08b016200027d565b935060c08a015192506200037960e08b016200029a565b91506200038a6101008b016200029a565b90509295985092959850929598565b600181811c90821680620003ae57607f821691505b602082108103620003cf57634e487b7160e01b600052602260045260246000fd5b50919050565b601f8211156200042357600081815260208120601f850160051c81016020861015620003fe5750805b601f850160051c820191505b818110156200041f578281556001016200040a565b5050505b505050565b81516001600160401b03811115620004445762000444620001b8565b6200045c8162000455845462000399565b84620003d5565b602080601f8311600181146200049457600084156200047b5750858301515b600019600386901b1c1916600185901b1785556200041f565b600085815260208120601f198616915b82811015620004c557888601518255948401946001909101908401620004a4565b5085821015620004e45787850151600019600388901b60f8161c191681555b5050505050600190811b01905550565b615dc480620005046000396000f3fe6080604052600436106104cb5760003560e01c806395d89b4111610276578063c02bd9a51161014f578063ed2e2b02116100c1578063f3e61ef211610085578063f3e61ef214610f56578063f698bceb14610f83578063f8d0969614610f9b578063f9e84e3914610fbb578063fe2bed7a14610fed578063ffc9896b1461101257600080fd5b8063ed2e2b0214610ec7578063ee28b74414610ef6578063efb6b11f14610f0e578063efdaa2ec14610f21578063f2fde38b14610f3657600080fd5b8063db422e0b11610113578063db422e0b14610de8578063dba3e70414610e08578063e42af42114610e28578063e445e64e14610e48578063e985e9c514610e69578063e9d7c06814610eb257600080fd5b8063c02bd9a514610d46578063c23dc68f14610d66578063c87b56dd14610d93578063cae4d67614610db3578063d956634f14610dd357600080fd5b8063a6239bb8116101e8578063aac5ab1f116101ac578063aac5ab1f14610c9e578063acde5d2814610cbe578063b50248e714610cde578063b7a9fa6014610cfe578063b88d4fde14610d13578063bac426d014610d2657600080fd5b8063a6239bb814610bf9578063a633c62c14610c1e578063a718cd4e14610c3e578063a9852bfb14610c5e578063aa3bccc614610c7e57600080fd5b80639a3814ab1161023a5780639a3814ab14610af35780639be572f614610b08578063a06c492f14610a7e578063a22cb46514610b1d578063a3759f6014610b3d578063a466cb1a14610bd957600080fd5b806395d89b4114610a6957806397cf84fc14610a7e57806398d5fdca14610a9e5780639975562414610ab357806399a2557a14610ad357600080fd5b80633ccfd60b116103a857806370da24ee1161031a578063896086de116102de578063896086de146109b85780638bcccb63146109d85780638da5cb5b146109ed5780638dcdb09d14610a0b5780638f93151114610a2b57806391b7f5ed14610a4957600080fd5b806370da24ee1461092c578063715018a61461094157806373e1607e1461095657806374d18662146109765780638462151c1461098b57600080fd5b80635bbb21771161036c5780635bbb21771461086557806362acbd9a146108925780636352211e146108a5578063670fb821146108c557806367808a34146108ec57806370a082311461090c57600080fd5b80633ccfd60b146107e857806342842e0e146107fd5780634b1c53b41461081057806355f804b3146108255780635b9103361461084557600080fd5b80631998aeef11610441578063285d70d411610405578063285d70d414610718578063315063b61461073857806333bbbf0614610765578063372992e414610788578063378c93ad146107a8578063379a0206146107c857600080fd5b80631998aeef146106995780631ce03eed146106a1578063217d6988146106c157806323b872dd146106e5578063265fa3db146106f857600080fd5b8063081812fc11610493578063081812fc14610597578063095ea7b3146105cf57806310127668146105e25780631053a8151461063d578063174f909c1461065257806318160ddd1461068057600080fd5b806301ffc9a7146104d0578063020451381461050557806305ab421d1461052757806306fdde0314610547578063074ba79d14610569575b600080fd5b3480156104dc57600080fd5b506104f06104eb366004614d10565b6110a9565b60405190151581526020015b60405180910390f35b34801561051157600080fd5b50610525610520366004614d42565b6110fb565b005b34801561053357600080fd5b50610525610542366004614d5f565b611160565b34801561055357600080fd5b5061055c611176565b6040516104fc9190614ddb565b34801561057557600080fd5b50610589610584366004614d42565b611208565b6040519081526020016104fc565b3480156105a357600080fd5b506105b76105b2366004614dee565b61125c565b6040516001600160a01b0390911681526020016104fc565b6105256105dd366004614d5f565b6112a0565b3480156105ee57600080fd5b506106206105fd366004614e19565b601c6020526000908152604090205463ffffffff80821691600160201b90041682565b6040805163ffffffff9384168152929091166020830152016104fc565b34801561064957600080fd5b50610525611340565b34801561065e57600080fd5b5061066861012c81565b6040516001600160401b0390911681526020016104fc565b34801561068c57600080fd5b5060015460005403610589565b610525611390565b3480156106ad57600080fd5b506105896106bc366004614e5f565b6114c3565b3480156106cd57600080fd5b506015546201000090046001600160401b0316610668565b6105256106f3366004614ea4565b611603565b34801561070457600080fd5b50610525610713366004614ef5565b611650565b34801561072457600080fd5b50610525610733366004614ef5565b611677565b34801561074457600080fd5b50610758610753366004614f54565b6116c0565b6040516104fc9190614f95565b34801561077157600080fd5b5060105461010090046001600160a01b03166105b7565b34801561079457600080fd5b506105256107a3366004614dee565b6118fd565b3480156107b457600080fd5b506105256107c3366004614ef5565b61195d565b3480156107d457600080fd5b506105256107e3366004615008565b6119a6565b3480156107f457600080fd5b50610525611a4e565b61052561080b366004614ea4565b611af9565b34801561081c57600080fd5b50600d54610589565b34801561083157600080fd5b5061052561084036600461507c565b611b14565b34801561085157600080fd5b50610525610860366004614f54565b611b7f565b34801561087157600080fd5b50610885610880366004614f54565b611bfd565b6040516104fc91906150ed565b6105256108a036600461512f565b611cc8565b3480156108b157600080fd5b506105b76108c0366004614dee565b611d60565b3480156108d157600080fd5b50601b546105b790600160281b90046001600160a01b031681565b3480156108f857600080fd5b506105896109073660046151d5565b611dcf565b34801561091857600080fd5b50610589610927366004614d42565b611e97565b34801561093857600080fd5b50601254610589565b34801561094d57600080fd5b50610525611ee5565b34801561096257600080fd5b5061052561097136600461521a565b611ef9565b34801561098257600080fd5b50610668603c81565b34801561099757600080fd5b506109ab6109a6366004614d42565b612189565b6040516104fc9190615292565b3480156109c457600080fd5b506105256109d3366004614dee565b612291565b3480156109e457600080fd5b50601654610589565b3480156109f957600080fd5b506008546001600160a01b03166105b7565b348015610a1757600080fd5b50610525610a263660046152ca565b6122f0565b348015610a3757600080fd5b506011546001600160a01b03166105b7565b348015610a5557600080fd5b50610525610a64366004614dee565b6127b3565b348015610a7557600080fd5b5061055c61286f565b348015610a8a57600080fd5b50610589610a99366004614d42565b61287e565b348015610aaa57600080fd5b50601754610589565b348015610abf57600080fd5b50610525610ace366004614d42565b6128a8565b348015610adf57600080fd5b506109ab610aee36600461533e565b6128fe565b348015610aff57600080fd5b50600c54610589565b348015610b1457600080fd5b50610589612a75565b348015610b2957600080fd5b50610525610b38366004615373565b612a86565b348015610b4957600080fd5b50610b5d610b58366004614dee565b612af2565b6040805184516001600160501b0316815260208086015163ffffffff90811691830191909152858301519282019290925260608086015162ffffff16908201526080808601516001600160401b039081169183019190915260a095860151169481019490945290911660c083015260e0820152610100016104fc565b348015610be557600080fd5b50610525610bf4366004614f54565b612c36565b348015610c0557600080fd5b50601554600160501b90046001600160401b0316610668565b348015610c2a57600080fd5b50610525610c3936600461539f565b612c85565b348015610c4a57600080fd5b50610525610c59366004614f54565b613057565b348015610c6a57600080fd5b50610525610c7936600461507c565b6130a6565b348015610c8a57600080fd5b50610525610c99366004614f54565b6130bb565b348015610caa57600080fd5b50610525610cb93660046153e9565b613284565b348015610cca57600080fd5b50610589610cd9366004614d42565b6132dd565b348015610cea57600080fd5b50610525610cf93660046154c2565b613331565b348015610d0a57600080fd5b5061055c613373565b610525610d21366004615532565b613382565b348015610d3257600080fd5b50610525610d41366004614d42565b6133c6565b348015610d5257600080fd5b50610525610d61366004614d42565b6133fc565b348015610d7257600080fd5b50610d86610d81366004614dee565b613414565b6040516104fc9190615585565b348015610d9f57600080fd5b5061055c610dae366004614dee565b61348c565b348015610dbf57600080fd5b50610525610dce366004614d42565b613595565b348015610ddf57600080fd5b506105256136ac565b348015610df457600080fd5b50610525610e03366004614d42565b613706565b348015610e1457600080fd5b50610525610e23366004614dee565b613746565b348015610e3457600080fd5b50610525610e43366004615593565b613783565b348015610e5457600080fd5b50601b546104f090600160201b900460ff1681565b348015610e7557600080fd5b506104f0610e843660046155ae565b6001600160a01b03918216600090815260076020908152604080832093909416825291909152205460ff1690565b348015610ebe57600080fd5b506104f06137a7565b348015610ed357600080fd5b50610ee7610ee23660046155cc565b6137e0565b6040516104fc93929190615632565b348015610f0257600080fd5b5060155460ff166104f0565b610525610f1c3660046156bf565b6139ad565b348015610f2d57600080fd5b50600e54610589565b348015610f4257600080fd5b50610525610f51366004614d42565b6139f0565b348015610f6257600080fd5b50610f76610f71366004614f54565b613a66565b6040516104fc9190615752565b348015610f8f57600080fd5b50600a5460ff166104f0565b348015610fa757600080fd5b50610525610fb6366004614dee565b613b25565b348015610fc757600080fd5b50601b54610fd89063ffffffff1681565b60405163ffffffff90911681526020016104fc565b348015610ff957600080fd5b50601b54600160281b90046001600160a01b03166105b7565b34801561101e57600080fd5b5061109c61102d366004614d42565b6040805160608082018352600080835260208084018290529284018190526001600160a01b03949094168452601882529282902082519384018352546001600160d81b0381168452600160d81b810463ffffffff1691840191909152600160f81b900460ff1615159082015290565b6040516104fc9190615765565b60006301ffc9a760e01b6001600160e01b0319831614806110da57506380ac58cd60e01b6001600160e01b03198316145b806110f55750635b5e139f60e01b6001600160e01b03198316145b92915050565b611103613b85565b60108054610100600160a81b0319166101006001600160a01b038416908102919091179091556040519081527faea1573caf7b4fdd079b947d86c1be6c725642c47582f8f9bd2c7d2a30bf0bd9906020015b60405180910390a150565b611168613b85565b6111728282613bdf565b5050565b60606002805461118590615797565b80601f01602080910402602001604051908101604052809291908181526020018280546111b190615797565b80156111fe5780601f106111d3576101008083540402835291602001916111fe565b820191906000526020600020905b8154815290600101906020018083116111e157829003601f168201915b5050505050905090565b600060175460000361122d576040516313a8ad7d60e11b815260040160405180910390fd5b6017546001600160a01b0383166000908152601860205260409020546110f591906001600160d81b03166157fd565b600061126782613c94565b611284576040516333d1c03960e21b815260040160405180910390fd5b506000908152600660205260409020546001600160a01b031690565b60006112ab82611d60565b9050336001600160a01b038216146112e4576112c78133610e84565b6112e4576040516367d9dca160e11b815260040160405180910390fd5b60008281526006602052604080822080546001600160a01b0319166001600160a01b0387811691821790925591518593918516917f8c5be1e5ebec7d5bd14f71427d1e84f3dd0314c0f7b2291e5b200ac8c7c3b92591a4505050565b611348613b85565b6010805460ff191660011790556040517fc6a6c2b165e62c9d37fc51a18ed76e5be22304bc1d337877c98f31c23e40b0f59061138690600b90615811565b60405180910390a1565b60155442620100009091046001600160401b031611806113c3575060155442600160501b9091046001600160401b031611155b156113e1576040516307d6617160e31b815260040160405180910390fd5b60026009540361140c5760405162461bcd60e51b81526004016114039061589c565b60405180910390fd5b600260095533600090815260186020526040902080546016546001600160d81b039091163401908110156114535760405163dd828e1560e01b815260040160405180910390fd5b81546001600160d81b0319166001600160d81b038216178255611477601933613cbb565b5060408051348152602081018390524781830152905133917f4dcc013473324698bfbe263facec4ea4b1bc43624236542deabec62c2122b305919081900360600190a250506001600955565b60105460009061010090046001600160a01b03166114f4576040516353bd4fb360e11b815260040160405180910390fd5b6115f9308585601060019054906101000a90046001600160a01b0316866115184690565b6115218b61287e565b604051606097881b6bffffffffffffffffffffffff19908116602083015296881b8716603482015260e09590951b6001600160e01b031916604886015292861b909416604c84015260c01b6001600160c01b031916938201939093526068810191909152608881019190915260a801604051602081830303815290604052805190602001206040517f19457468657265756d205369676e6564204d6573736167653a0a3332000000006020820152603c8101829052600090605c01604051602081830303815290604052805190602001209050919050565b90505b9392505050565b61ffff81166000908152601c6020526040902054600163ffffffff9091161115611640576040516328f31fdf60e21b815260040160405180910390fd5b61164b838383613cd0565b505050565b611658613b85565b601b8054911515600160201b0264ff0000000019909216919091179055565b61167f613b85565b600a805460ff19168215159081179091556040519081527fe717a2bfc51e250b028aaac5eb448e76f4df26b9609956782bff49097bb792cf90602001611155565b606042826001600160401b038111156116db576116db615420565b60405190808252806020026020018201604052801561172d57816020015b6040805160808101825260008082526020808301829052928201819052606082015282526000199092019101816116f95790505b50915060005b838110156118f5576000601c6000878785818110611753576117536158d3565b90506020020160208101906117689190614e19565b61ffff168152602080820192909252604090810160002081518083019092525463ffffffff808216808452600160201b90920416928201929092529150600110156118675780516000906117bc90856158e9565b9050816020015163ffffffff166000036117e657601b546117e39063ffffffff168261590d565b90505b6040518060800160405280888886818110611803576118036158d3565b90506020020160208101906118189190614e19565b61ffff168152602001836020015163ffffffff1681526020018263ffffffff16815260200160011515815250858481518110611856576118566158d3565b6020026020010181905250506118e4565b6040518060800160405280878785818110611884576118846158d3565b90506020020160208101906118999190614e19565b61ffff168152602001826020015163ffffffff168152602001600063ffffffff168152602001600015158152508483815181106118d8576118d86158d3565b60200260200101819052505b506118ee8161592a565b9050611733565b505092915050565b611905613b85565b600d5481111561192857604051630590c51360e01b815260040160405180910390fd5b600e8190556040518181527f5307de8ad7d34d5ddfd5171435c143bdc645493980f453eb5d7cdb3e494a1b3590602001611155565b611965613b85565b6015805460ff19168215159081179091556040519081527f18d99b89a15641fa45e09c4916c435eb2bee98b29a0157c251869471e0cf28c990602001611155565b6119ae613b85565b601754156119cf57604051632b67583760e21b815260040160405180910390fd5b816001600160401b0316816001600160401b031611611a0157604051631750215560e11b815260040160405180910390fd5b6015805471ffffffffffffffffffffffffffffffff00001916620100006001600160401b039485160267ffffffffffffffff60501b191617600160501b9290931691909102919091179055565b611a56613b85565b6040514790600090339083908381818185875af1925050503d8060008114611a9a576040519150601f19603f3d011682016040523d82523d6000602084013e611a9f565b606091505b5050905080611ac157604051631d42c86760e21b815260040160405180910390fd5b6040518281527f5b6b431d4476a211bb7d41c20d1aab9ae2321deee0d20be3d9fc9b1093fa6e3d906020015b60405180910390a15050565b61164b83838360405180602001604052806000815250613382565b611b1c613b85565b60105460ff1615611b40576040516306ccad4160e41b815260040160405180910390fd5b600b611b4d828483615989565b507f23c8c9488efebfd474e85a7956de6f39b17c7ab88502d42a623db2d8e382bbaa8282604051611aed929190615a48565b611b87613b85565b60005b8181101561164b57611beb838383818110611ba757611ba76158d3565b9050602002016020810190611bbc9190614d42565b611be6858585818110611bd157611bd16158d3565b90506020020160208101906105849190614d42565b613bdf565b80611bf58161592a565b915050611b8a565b6060816000816001600160401b03811115611c1a57611c1a615420565b604051908082528060200260200182016040528015611c6c57816020015b604080516080810182526000808252602080830182905292820181905260608201528252600019909201910181611c385790505b50905060005b828114611cbf57611c9a868683818110611c8e57611c8e6158d3565b90506020020135613414565b828281518110611cac57611cac6158d3565b6020908102919091010152600101611c72565b50949350505050565b600260095403611cea5760405162461bcd60e51b81526004016114039061589c565b60026009556011546001600160a01b0316611d1857604051637e9f68eb60e11b815260040160405180910390fd5b6011546001600160a01b03163314611d435760405163f46fd68360e01b815260040160405180910390fd5b611d5287878787878787613e65565b505060016009555050505050565b600061ffff821180611d785750611d7682613c94565b155b15611d9657604051630a14c4b560e41b815260040160405180910390fd5b61ffff82166000908152601c6020526040902054600163ffffffff9091161115611dc1575030919050565b6110f5826142c9565b919050565b6000805b601254811015611e7d5760128181548110611df057611df06158d3565b60009182526020909120600260039092020101546001600160401b036301000000909104811690841610801590611e60575060128181548110611e3557611e356158d3565b60009182526020909120600260039092020101546001600160401b03600160581b9091048116908416105b15611e6b5792915050565b80611e758161592a565b915050611dd3565b5060405163e82a532960e01b815260040160405180910390fd5b60006001600160a01b038216611ec0576040516323d3ad8160e21b815260040160405180910390fd5b506001600160a01b03166000908152600560205260409020546001600160401b031690565b611eed613b85565b611ef760006142d4565b565b611f01613b85565b6012548710611f235760405163e82a532960e01b815260040160405180910390fd5b60018710611fab57603c6012611f3a60018a615a77565b81548110611f4a57611f4a6158d3565b9060005260206000209060030201600201600b9054906101000a90046001600160401b0316611f799190615a8a565b6001600160401b0316826001600160401b03161015611fab57604051636bc1af9360e01b815260040160405180910390fd5b611fb58282614326565b8560128881548110611fc957611fc96158d3565b906000526020600020906003020160000160006101000a8154816001600160501b0302191690836001600160501b031602179055508460128881548110612012576120126158d3565b9060005260206000209060030201600001600a6101000a81548163ffffffff021916908363ffffffff1602179055508360128881548110612055576120556158d3565b906000526020600020906003020160010181905550826012888154811061207e5761207e6158d3565b906000526020600020906003020160020160006101000a81548162ffffff021916908362ffffff16021790555081601288815481106120bf576120bf6158d3565b906000526020600020906003020160020160036101000a8154816001600160401b0302191690836001600160401b031602179055508060128881548110612108576121086158d3565b9060005260206000209060030201600201600b6101000a8154816001600160401b0302191690836001600160401b031602179055507fb3268648542a1bb1b2dd12e3b14aeb5a3ab22c592de96bdd3e842154a5b394fa878787878787876040516121789796959493929190615aaa565b60405180910390a150505050505050565b6060600080600061219985611e97565b90506000816001600160401b038111156121b5576121b5615420565b6040519080825280602002602001820160405280156121de578160200160208202803683370190505b50905061220b60408051608081018252600080825260208201819052918101829052606081019190915290565b60005b8386146122855761221e81614358565b9150816040015161227d5781516001600160a01b03161561223e57815194505b876001600160a01b0316856001600160a01b03160361227d5780838780600101985081518110612270576122706158d3565b6020026020010181815250505b60010161220e565b50909695505050505050565b612299613b85565b60125481106122bb5760405163e82a532960e01b815260040160405180910390fd5b600c8190556040518181527f160d6de2c069c3adf7f4c1252236d0b325c0e3eb963ddb10c67a81aadf9a305890602001611155565b6122f8613b85565b60125460005b8181101561237357601280548061231757612317615afa565b60008281526020812060036000199093019283020180546001600160701b03191681556001810191909155600201805472ffffffffffffffffffffffffffffffffffffff1916905590558061236b8161592a565b9150506122fe565b5060005b828110156127ad576001811061242257603c8484612396600185615a77565b8181106123a5576123a56158d3565b905060c0020160a00160208101906123bd91906151d5565b6123c79190615a8a565b6001600160401b03168484838181106123e2576123e26158d3565b905060c0020160800160208101906123fa91906151d5565b6001600160401b0316101561242257604051636bc1af9360e01b815260040160405180910390fd5b61247e848483818110612437576124376158d3565b905060c00201608001602081019061244f91906151d5565b858584818110612461576124616158d3565b905060c0020160a001602081019061247991906151d5565b614326565b60126040518060c0016040528086868581811061249d5761249d6158d3565b6124b392602060c0909202019081019150615b10565b6001600160501b031681526020018686858181106124d3576124d36158d3565b905060c0020160200160208101906124eb9190615593565b63ffffffff168152602001868685818110612508576125086158d3565b905060c00201604001358152602001868685818110612529576125296158d3565b905060c0020160600160208101906125419190615b2b565b62ffffff16815260200186868581811061255d5761255d6158d3565b905060c00201608001602081019061257591906151d5565b6001600160401b03168152602001868685818110612595576125956158d3565b905060c0020160a00160208101906125ad91906151d5565b6001600160401b039081169091528254600181810185556000948552602094859020845160039093020180549585015163ffffffff16600160501b026001600160701b03199096166001600160501b0390931692909217949094178155604083015193810193909355606082015160029093018054608084015160a0909401518316600160581b0267ffffffffffffffff60581b19949093166301000000026affffffffffffffffffffff1990911662ffffff9095169490941793909317919091161790557fb3268648542a1bb1b2dd12e3b14aeb5a3ab22c592de96bdd3e842154a5b394fa818585828181106126a6576126a66158d3565b6126bc92602060c0909202019081019150615b10565b8686858181106126ce576126ce6158d3565b905060c0020160200160208101906126e69190615593565b8787868181106126f8576126f86158d3565b905060c0020160400135888887818110612714576127146158d3565b905060c00201606001602081019061272c9190615b2b565b89898881811061273e5761273e6158d3565b905060c00201608001602081019061275691906151d5565b8a8a89818110612768576127686158d3565b905060c0020160a001602081019061278091906151d5565b6040516127939796959493929190615aaa565b60405180910390a1806127a58161592a565b915050612377565b50505050565b6127bb613b85565b60155460ff16156127df5760405163463c963760e11b815260040160405180910390fd5b601554600160501b90046001600160401b0316421161281157604051638c15906560e01b815260040160405180910390fd5b601554610100900460ff161561283a5760405163a64907bf60e01b815260040160405180910390fd5b60178190556040518181527f4f5539c0409dfc4cb06f64cbd31237e1fbfe443f531584bf4dd77ec7fc5ba7b190602001611155565b60606003805461118590615797565b6001600160a01b038116600090815260056020526040808220546001600160401b03911c166110f5565b6128b0613b85565b601180546001600160a01b0319166001600160a01b0383169081179091556040519081527ff477d93c015f2a73c2ccc5ed37078d12123b80fc5d12e0014c60b913bc1a1ec490602001611155565b606081831061292057604051631960ccad60e11b815260040160405180910390fd5b60008061292c60005490565b90508084111561293a578093505b600061294587611e97565b905084861015612964578585038181101561295e578091505b50612968565b5060005b6000816001600160401b0381111561298257612982615420565b6040519080825280602002602001820160405280156129ab578160200160208202803683370190505b509050816000036129c15793506115fc92505050565b60006129cc88613414565b9050600081604001516129dd575080515b885b8881141580156129ef5750848714155b15612a64576129fd81614358565b92508260400151612a5c5782516001600160a01b031615612a1d57825191505b8a6001600160a01b0316826001600160a01b031603612a5c5780848880600101995081518110612a4f57612a4f6158d3565b6020026020010181815250505b6001016129df565b505050928352509095945050505050565b6000612a816019614394565b905090565b3360008181526007602090815260408083206001600160a01b03871680855290835292819020805460ff191686151590811790915590519081529192917f17307eab39ab6107e8899845ad3d59bd9653f200f220920489ca2b5937696c31910160405180910390a35050565b6040805160c081018252600080825260208201819052918101829052606081018290526080810182905260a081019190915260125460009081908410612b695760405162461bcd60e51b815260206004820152600c60248201526b496e76616c6964537461676560a01b6044820152606401611403565b60008481526013602090815260408083203384528252808320548784526014909252909120546012805463ffffffff9093169287908110612bac57612bac6158d3565b60009182526020918290206040805160c08101825260039390930290910180546001600160501b0381168452600160501b900463ffffffff169383019390935260018301549082015260029091015462ffffff81166060830152630100000081046001600160401b039081166080840152600160581b9091041660a0820152969195509350915050565b612c3e613b85565b60005b8181101561164b57612c73838383818110612c5e57612c5e6158d3565b9050602002016020810190610e039190614d42565b80612c7d8161592a565b915050612c41565b6000829003612ca757604051630dd3abb560e21b815260040160405180910390fd5b81426000826001600160401b03811115612cc357612cc3615420565b604051908082528060200260200182016040528015612d0e57816020015b6040805160608101825260008082526020808301829052928201528252600019909201910181612ce15790505b50905060005b83811015612fcd576000878783818110612d3057612d306158d3565b9050602002016020810190612d459190614e19565b905033612d5561ffff83166142c9565b6001600160a01b031614612d7c57604051633a6bbed360e01b815260040160405180910390fd5b61ffff81166000908152601c602090815260409182902082518084019093525463ffffffff808216808552600160201b909204169183019190915260021115612e14576040518060600160405280826020015163ffffffff168152602001826020015163ffffffff1681526020018361ffff16815250848481518110612e0457612e046158d3565b6020026020010181905250612fba565b8051600090612e2390876158e9565b9050816020015163ffffffff16600003612e4d57601b54612e4a9063ffffffff168261590d565b90505b6040518060600160405280836020015163ffffffff168152602001828460200151612e78919061590d565b63ffffffff1681526020018461ffff16815250858581518110612e9d57612e9d6158d3565b6020026020010181905250604051806040016040528089612ebf576001612ec1565b875b63ffffffff168152602001828460200151612edc919061590d565b63ffffffff90811690915261ffff85166000818152601c60209081526040918290208551815496909201518516600160201b0267ffffffffffffffff1990961691909416179390931790915590517f803978fc3a3be127912f8658b397b74a1e318f572a851c538825ae6d380855d890612f6b908990859063ffffffff92831681529116602082015260400190565b60405180910390a287612fb85760405163ffffffff8716815261ffff8416907f226bd0a97ee868f5b57ed5d5aceea9c4e1d9d26b0e19f2aea7c5aa2f393aae4f9060200160405180910390a25b505b505080612fc69061592a565b9050612d14565b50601b54600160281b90046001600160a01b03161561304f57601b546040516369343d8960e11b8152600160281b9091046001600160a01b03169063d2687b129061301c908490600401615b46565b600060405180830381600087803b15801561303657600080fd5b505af115801561304a573d6000803e3d6000fd5b505050505b505050505050565b61305f613b85565b60005b8181101561164b5761309483838381811061307f5761307f6158d3565b9050602002016020810190610dce9190614d42565b8061309e8161592a565b915050613062565b6130ae613b85565b600f61164b828483615989565b60008190036130dd57604051630dd3abb560e21b815260040160405180910390fd5b601b54600160201b900460ff1661310757604051637bf6f57360e01b815260040160405180910390fd5b804260005b828110156131fb576000858583818110613128576131286158d3565b905060200201602081019061313d9190614e19565b90503361314d61ffff83166142c9565b6001600160a01b03161461317457604051633a6bbed360e01b815260040160405180910390fd5b61ffff81166000908152601c602052604090208054600263ffffffff90911610156131e857805463ffffffff191663ffffffff8516908117825560405190815261ffff8316907f63b8c6faaf5ce01ec15194566e357148e2b75d6a92aa7386b9a42f3f49d0b3989060200160405180910390a25b5050806131f49061592a565b905061310c565b50601b54600160281b90046001600160a01b0316156127ad57601b546040516318ee660760e11b8152600160281b9091046001600160a01b0316906331dccc0e9061324c9087908790600401615b9f565b600060405180830381600087803b15801561326657600080fd5b505af115801561327a573d6000803e3d6000fd5b5050505050505050565b61328c613b85565b8163ffffffff16600d54816132a46001546000540390565b6132ae9190615be6565b11156132cd5760405163800113cb60e01b815260040160405180910390fd5b61164b828463ffffffff1661439e565b6000601754600003613302576040516313a8ad7d60e11b815260040160405180910390fd5b6017546001600160a01b0383166000908152601860205260409020546110f591906001600160d81b0316615bf9565b6010546133579061010090046001600160a01b03166133518686866114c3565b836143b8565b6127ad5760405162b7fad960e11b815260040160405180910390fd5b6060600f805461118590615797565b61338d848484611603565b6001600160a01b0383163b156127ad576133a9848484846144fa565b6127ad576040516368d2bf6b60e11b815260040160405180910390fd5b6133ce613b85565b601b80546001600160a01b03909216600160281b0265010000000000600160c81b0319909216919091179055565b613404613b85565b61341181611be683611208565b50565b60408051608080820183526000808352602080840182905283850182905260608085018390528551938401865282845290830182905293820181905292810183905290915060005483106134685792915050565b61347183614358565b90508060400151156134835792915050565b6115fc836145e5565b606061349782613c94565b6134b457604051630a14c4b560e41b815260040160405180910390fd5b6000600b80546134c390615797565b80601f01602080910402602001604051908101604052809291908181526020018280546134ef90615797565b801561353c5780601f106135115761010080835404028352916020019161353c565b820191906000526020600020905b81548152906001019060200180831161351f57829003601f168201915b50505050509050805160000361356157604051806020016040528060008152506115fc565b8061356b8461461a565b600f60405160200161357f93929190615c0d565b6040516020818303038152906040529392505050565b61359d613b85565b60175460008190036135c2576040516313a8ad7d60e11b815260040160405180910390fd5b6001600160a01b03821660009081526018602052604090208054600160f81b900460ff161561360457604051638246991960e01b815260040160405180910390fd5b80546001600160f81b038116600160f81b17825560009061362f9084906001600160d81b0316615bf9565b90506000846001600160a01b03168260405160006040518083038185875af1925050503d806000811461367e576040519150601f19603f3d011682016040523d82523d6000602084013e613683565b606091505b50509050806136a5576040516312171d8360e31b815260040160405180910390fd5b5050505050565b60155460ff166136cf57604051633123d42760e11b815260040160405180910390fd5b6002600954036136f15760405162461bcd60e51b81526004016114039061589c565b60026009556136ff3361465e565b6001600955565b61370e613b85565b6002600954036137305760405162461bcd60e51b81526004016114039061589c565b600260095561373e8161465e565b506001600955565b61374e613b85565b60168190556040518181527fd0f4420817917bede76c780c0ce000d6f59fb37194178cce2ad2c7fc09dddd4190602001611155565b61378b613b85565b601b805463ffffffff191663ffffffff92909216919091179055565b60155460009042620100009091046001600160401b031611801590612a81575050601554600160501b90046001600160401b0316421090565b6060806000806137f06019614394565b9050856137fd8683615a77565b8111156138115761380e8683615a77565b90505b6000816001600160401b0381111561382b5761382b615420565b60405190808252806020026020018201604052801561387657816020015b60408051606081018252600080825260208083018290529282015282526000199092019101816138495790505b5090506000826001600160401b0381111561389357613893615420565b6040519080825280602002602001820160405280156138bc578160200160208202803683370190505b50905060005b8381101561399c5760006138e16138d98b84615be6565b6019906147e1565b6001600160a01b038116600090815260186020908152604091829020825160608101845290546001600160d81b0381168252600160d81b810463ffffffff1692820192909252600160f81b90910460ff16151591810191909152855191925090859084908110613953576139536158d3565b602002602001018190525080838381518110613971576139716158d3565b6001600160a01b039092166020928302919091019091015250806139948161592a565b9150506138c2565b509095509350909150509250925092565b6002600954036139cf5760405162461bcd60e51b81526004016114039061589c565b60026009556139e386338787878787613e65565b5050600160095550505050565b6139f8613b85565b6001600160a01b038116613a5d5760405162461bcd60e51b815260206004820152602660248201527f4f776e61626c653a206e6577206f776e657220697320746865207a65726f206160448201526564647265737360d01b6064820152608401611403565b613411816142d4565b606081806001600160401b03811115613a8157613a81615420565b604051908082528060200260200182016040528015613aaa578160200160208202803683370190505b50915060005b818110156118f557613aeb858583818110613acd57613acd6158d3565b9050602002016020810190613ae29190614e19565b61ffff166142c9565b838281518110613afd57613afd6158d3565b6001600160a01b0390921660209283029190910190910152613b1e8161592a565b9050613ab0565b613b2d613b85565b600d54811115613b505760405163430b83b160e11b815260040160405180910390fd5b600d8190556040518181527fc7bbc2b288fc13314546ea4aa51f6bcf71b7ba4740beeb3d32e9acef57b6668a90602001611155565b6008546001600160a01b03163314611ef75760405162461bcd60e51b815260206004820181905260248201527f4f776e61626c653a2063616c6c6572206973206e6f7420746865206f776e65726044820152606401611403565b6017546000819003613c04576040516313a8ad7d60e11b815260040160405180910390fd5b6001600160a01b03831660009081526018602052604090208054600160d81b900463ffffffff16613c358482615be6565b8254909150613c4e9084906001600160d81b03166157fd565b811115613c6e57604051630958705d60e31b815260040160405180910390fd5b815463ffffffff60d81b1916600160d81b63ffffffff8316021782556136a585856147ed565b60008054821080156110f5575050600090815260046020526040902054600160e01b161590565b60006115fc836001600160a01b038416614863565b6000613cdb826148b2565b9050836001600160a01b0316816001600160a01b031614613d0e5760405162a1148160e81b815260040160405180910390fd5b60008281526006602052604090208054338082146001600160a01b03881690911417613d5b57613d3e8633610e84565b613d5b57604051632ce44b5f60e11b815260040160405180910390fd5b6001600160a01b038516613d8257604051633a954ecd60e21b815260040160405180910390fd5b8015613d8d57600082555b6001600160a01b038681166000908152600560205260408082208054600019019055918716808252919020805460010190554260a01b17600160e11b17600085815260046020526040812091909155600160e11b84169003613e1f57600184016000818152600460205260408120549003613e1d576000548114613e1d5760008181526004602052604090208490555b505b83856001600160a01b0316876001600160a01b03167fddf252ad1be2c89b69c2b068fc378daa952ba7f163c4a11628f55a4df523b3ef60405160405180910390a461304f565b600a5460ff16613e8857604051630952c8a960e11b815260040160405180910390fd5b8663ffffffff16600d5481613ea06001546000540390565b613eaa9190615be6565b1115613ec95760405163800113cb60e01b815260040160405180910390fd5b600c546012548110613eee5760405163e82a532960e01b815260040160405180910390fd5b6040805160c081018252600080825260208201819052918101829052606081018290526080810182905260a081019190915260105461010090046001600160a01b031615613f8d57613f78338b8888888080601f01602080910402602001604051908101604052809392919081815260200183838082843760009201919091525061333192505050565b613f8186614919565b613f8a86611dcf565b91505b60128281548110613fa057613fa06158d3565b60009182526020918290206040805160c081018252600390930290910180546001600160501b03811680855263ffffffff600160501b9092048216958501959095526001820154928401929092526002015462ffffff811660608401526001600160401b036301000000820481166080850152600160581b9091041660a083015290925061403191908c1690615cad565b6001600160501b031634101561405a57604051630717c22560e51b815260040160405180910390fd5b606081015162ffffff16156140b457606081015160008381526014602052604090205462ffffff909116906140969063ffffffff8d1690615be6565b11156140b45760405162d0844960e21b815260040160405180910390fd5b600e541561411b57600e548a63ffffffff166140f28b6001600160a01b03166000908152600560205260409081902054901c6001600160401b031690565b6140fc9190615be6565b111561411b5760405163751304ed60e11b815260040160405180910390fd5b602081015163ffffffff161561418d5760208082015160008481526013835260408082206001600160a01b038e168352909352919091205463ffffffff91821691614168918d911661590d565b63ffffffff16111561418d5760405163b4f3729b60e01b815260040160405180910390fd5b604081015115614234578060400151614216898980806020026020016040519081016040528093929190818152602001838360200280828437600092019190915250506040516141fb92508e915060200160609190911b6bffffffffffffffffffffffff1916815260140190565b60405160208183030381529060405280519060200120614977565b14614234576040516309bde33960e01b815260040160405180910390fd5b60008281526013602090815260408083206001600160a01b038d168452909152812080548c929061426c90849063ffffffff1661590d565b92506101000a81548163ffffffff021916908363ffffffff1602179055508963ffffffff166014600084815260200190815260200160002060008282546142b39190615be6565b9091555061304a90508963ffffffff8c1661439e565b60006110f5826148b2565b600880546001600160a01b038381166001600160a01b0319831681179093556040519116919082907f8be0079c531659141344cd1fd0a4f28419497f9722a3daafe3b4186f6b6457e090600090a35050565b806001600160401b0316826001600160401b03161061117257604051631750215560e11b815260040160405180910390fd5b6040805160808101825260008082526020820181905291810182905260608101919091526000828152600460205260409020546110f5906149c4565b60006110f5825490565b611172828260405180602001604052806000815250614a0b565b60008060006143c78585614a71565b909250905060008160048111156143e0576143e0615cd0565b1480156143fe5750856001600160a01b0316826001600160a01b0316145b1561440e576001925050506115fc565b600080876001600160a01b0316631626ba7e60e01b8888604051602401614436929190615ce6565b60408051601f198184030181529181526020820180516001600160e01b03166001600160e01b03199094169390931790925290516144749190615cff565b600060405180830381855afa9150503d80600081146144af576040519150601f19603f3d011682016040523d82523d6000602084013e6144b4565b606091505b50915091508180156144c7575080516020145b80156144ee57508051630b135d3f60e11b906144ec9083016020908101908401615d1b565b145b98975050505050505050565b604051630a85bd0160e11b81526000906001600160a01b0385169063150b7a029061452f903390899088908890600401615d34565b6020604051808303816000875af192505050801561456a575060408051601f3d908101601f1916820190925261456791810190615d71565b60015b6145c8573d808015614598576040519150601f19603f3d011682016040523d82523d6000602084013e61459d565b606091505b5080516000036145c0576040516368d2bf6b60e11b815260040160405180910390fd5b805181602001fd5b6001600160e01b031916630a85bd0160e11b149050949350505050565b6040805160808101825260008082526020820181905291810182905260608101919091526110f5614615836148b2565b6149c4565b606060a06040510180604052602081039150506000815280825b600183039250600a81066030018353600a9004806146345750819003601f19909101908152919050565b6017546000819003614683576040516313a8ad7d60e11b815260040160405180910390fd5b6001600160a01b038216600090815260186020526040902080546001600160d81b03811690600160f81b900460ff16156146d057604051638246991960e01b815260040160405180910390fd5b81546001600160f81b038116600160f81b1783556000906146fb9085906001600160d81b0316615bf9565b90506000856001600160a01b03168260405160006040518083038185875af1925050503d806000811461474a576040519150601f19603f3d011682016040523d82523d6000602084013e61474f565b606091505b5050905080614771576040516312171d8360e31b815260040160405180910390fd5b600061477d86856157fd565b905080156147d8578454600160d81b900463ffffffff16156147b257604051632aeca36d60e11b815260040160405180910390fd5b845463ffffffff60d81b1916600160d81b63ffffffff8316021785556147d887826147ed565b50505050505050565b60006115fc8383614ab6565b80600d54816147ff6001546000540390565b6148099190615be6565b11156148285760405163800113cb60e01b815260040160405180910390fd5b614832838361439e565b601554610100900460ff1615801561484a5750600082115b1561164b576015805461ff001916610100179055505050565b60008181526001830160205260408120546148aa575081546001818101845560008481526020808220909301849055845484825282860190935260409020919091556110f5565b5060006110f5565b6000816000548110156149005760008181526004602052604081205490600160e01b821690036148fe575b806000036115fc5750600019016000818152600460205260409020546148dd565b505b604051636f96cda160e11b815260040160405180910390fd5b6011546000906001600160a01b0316331461493557603c614939565b61012c5b905061494e6001600160401b03821642615a77565b826001600160401b03161015611172576040516313634e8d60e11b815260040160405180910390fd5b600081815b84518110156149bc576149a88286838151811061499b5761499b6158d3565b6020026020010151614ae0565b9150806149b48161592a565b91505061497c565b509392505050565b604080516080810182526001600160a01b038316815260a083901c6001600160401b03166020820152600160e01b831615159181019190915260e89190911c606082015290565b614a158383614b0f565b6001600160a01b0383163b1561164b576000548281035b614a3f60008683806001019450866144fa565b614a5c576040516368d2bf6b60e11b815260040160405180910390fd5b818110614a2c5781600054146136a557600080fd5b6000808251604103614aa75760208301516040840151606085015160001a614a9b87828585614c0d565b94509450505050614aaf565b506000905060025b9250929050565b6000826000018281548110614acd57614acd6158d3565b9060005260206000200154905092915050565b6000818310614afc5760008281526020849052604090206115fc565b60008381526020839052604090206115fc565b6000805490829003614b345760405163b562e8dd60e01b815260040160405180910390fd5b6001600160a01b03831660008181526005602090815260408083208054680100000000000000018802019055848352600490915281206001851460e11b4260a01b178317905582840190839083907fddf252ad1be2c89b69c2b068fc378daa952ba7f163c4a11628f55a4df523b3ef8180a4600183015b818114614be357808360007fddf252ad1be2c89b69c2b068fc378daa952ba7f163c4a11628f55a4df523b3ef600080a4600101614bab565b5081600003614c0457604051622e076360e81b815260040160405180910390fd5b60005550505050565b6000807f7fffffffffffffffffffffffffffffff5d576e7357a4501ddfe92f46681b20a0831115614c445750600090506003614cf1565b8460ff16601b14158015614c5c57508460ff16601c14155b15614c6d5750600090506004614cf1565b6040805160008082526020820180845289905260ff881692820192909252606081018690526080810185905260019060a0016020604051602081039080840390855afa158015614cc1573d6000803e3d6000fd5b5050604051601f1901519150506001600160a01b038116614cea57600060019250925050614cf1565b9150600090505b94509492505050565b6001600160e01b03198116811461341157600080fd5b600060208284031215614d2257600080fd5b81356115fc81614cfa565b6001600160a01b038116811461341157600080fd5b600060208284031215614d5457600080fd5b81356115fc81614d2d565b60008060408385031215614d7257600080fd5b8235614d7d81614d2d565b946020939093013593505050565b60005b83811015614da6578181015183820152602001614d8e565b50506000910152565b60008151808452614dc7816020860160208601614d8b565b601f01601f19169290920160200192915050565b6020815260006115fc6020830184614daf565b600060208284031215614e0057600080fd5b5035919050565b803561ffff81168114611dca57600080fd5b600060208284031215614e2b57600080fd5b6115fc82614e07565b803563ffffffff81168114611dca57600080fd5b80356001600160401b0381168114611dca57600080fd5b600080600060608486031215614e7457600080fd5b8335614e7f81614d2d565b9250614e8d60208501614e34565b9150614e9b60408501614e48565b90509250925092565b600080600060608486031215614eb957600080fd5b8335614ec481614d2d565b92506020840135614ed481614d2d565b929592945050506040919091013590565b80358015158114611dca57600080fd5b600060208284031215614f0757600080fd5b6115fc82614ee5565b60008083601f840112614f2257600080fd5b5081356001600160401b03811115614f3957600080fd5b6020830191508360208260051b8501011115614aaf57600080fd5b60008060208385031215614f6757600080fd5b82356001600160401b03811115614f7d57600080fd5b614f8985828601614f10565b90969095509350505050565b602080825282518282018190526000919060409081850190868401855b82811015614ffb578151805161ffff1685528681015163ffffffff9081168887015286820151168686015260609081015115159085015260809093019290850190600101614fb2565b5091979650505050505050565b6000806040838503121561501b57600080fd5b61502483614e48565b915061503260208401614e48565b90509250929050565b60008083601f84011261504d57600080fd5b5081356001600160401b0381111561506457600080fd5b602083019150836020828501011115614aaf57600080fd5b6000806020838503121561508f57600080fd5b82356001600160401b038111156150a557600080fd5b614f898582860161503b565b80516001600160a01b031682526020808201516001600160401b03169083015260408082015115159083015260609081015162ffffff16910152565b6020808252825182820181905260009190848201906040850190845b818110156122855761511c8385516150b1565b9284019260809290920191600101615109565b600080600080600080600060a0888a03121561514a57600080fd5b61515388614e34565b9650602088013561516381614d2d565b955060408801356001600160401b038082111561517f57600080fd5b61518b8b838c01614f10565b909750955085915061519f60608b01614e48565b945060808a01359150808211156151b557600080fd5b506151c28a828b0161503b565b989b979a50959850939692959293505050565b6000602082840312156151e757600080fd5b6115fc82614e48565b80356001600160501b0381168114611dca57600080fd5b803562ffffff81168114611dca57600080fd5b600080600080600080600060e0888a03121561523557600080fd5b87359650615245602089016151f0565b955061525360408901614e34565b94506060880135935061526860808901615207565b925061527660a08901614e48565b915061528460c08901614e48565b905092959891949750929550565b6020808252825182820181905260009190848201906040850190845b81811015612285578351835292840192918401916001016152ae565b600080602083850312156152dd57600080fd5b82356001600160401b03808211156152f457600080fd5b818501915085601f83011261530857600080fd5b81358181111561531757600080fd5b86602060c08302850101111561532c57600080fd5b60209290920196919550909350505050565b60008060006060848603121561535357600080fd5b833561535e81614d2d565b95602085013595506040909401359392505050565b6000806040838503121561538657600080fd5b823561539181614d2d565b915061503260208401614ee5565b6000806000604084860312156153b457600080fd5b83356001600160401b038111156153ca57600080fd5b6153d686828701614f10565b9094509250614e9b905060208501614ee5565b600080604083850312156153fc57600080fd5b61540583614e34565b9150602083013561541581614d2d565b809150509250929050565b634e487b7160e01b600052604160045260246000fd5b600082601f83011261544757600080fd5b81356001600160401b038082111561546157615461615420565b604051601f8301601f19908116603f0116810190828211818310171561548957615489615420565b816040528381528660208588010111156154a257600080fd5b836020870160208301376000602085830101528094505050505092915050565b600080600080608085870312156154d857600080fd5b84356154e381614d2d565b93506154f160208601614e34565b92506154ff60408601614e48565b915060608501356001600160401b0381111561551a57600080fd5b61552687828801615436565b91505092959194509250565b6000806000806080858703121561554857600080fd5b843561555381614d2d565b9350602085013561556381614d2d565b92506040850135915060608501356001600160401b0381111561551a57600080fd5b608081016110f582846150b1565b6000602082840312156155a557600080fd5b6115fc82614e34565b600080604083850312156155c157600080fd5b823561540581614d2d565b600080604083850312156155df57600080fd5b50508035926020909101359150565b600081518084526020808501945080840160005b838110156156275781516001600160a01b031687529582019590820190600101615602565b509495945050505050565b60608082528451828201819052600091906020906080850190828901855b828110156156985761568884835180516001600160d81b0316825260208082015163ffffffff16908301526040908101511515910152565b9285019290840190600101615650565b505050848103828601526156ac81886155ee565b9350505050826040830152949350505050565b600080600080600080608087890312156156d857600080fd5b6156e187614e34565b955060208701356001600160401b03808211156156fd57600080fd5b6157098a838b01614f10565b909750955085915061571d60408a01614e48565b9450606089013591508082111561573357600080fd5b5061574089828a0161503b565b979a9699509497509295939492505050565b6020815260006115fc60208301846155ee565b81516001600160d81b0316815260208083015163ffffffff1690820152604080830151151590820152606081016110f5565b600181811c908216806157ab57607f821691505b6020821081036157cb57634e487b7160e01b600052602260045260246000fd5b50919050565b634e487b7160e01b600052601260045260246000fd5b634e487b7160e01b600052601160045260246000fd5b60008261580c5761580c6157d1565b500490565b600060208083526000845461582581615797565b8084870152604060018084166000811461584657600181146158605761588e565b60ff1985168984015283151560051b89018301955061588e565b896000528660002060005b858110156158865781548b820186015290830190880161586b565b8a0184019650505b509398975050505050505050565b6020808252601f908201527f5265656e7472616e637947756172643a207265656e7472616e742063616c6c00604082015260600190565b634e487b7160e01b600052603260045260246000fd5b63ffffffff828116828216039080821115615906576159066157e7565b5092915050565b63ffffffff818116838216019080821115615906576159066157e7565b60006001820161593c5761593c6157e7565b5060010190565b601f82111561164b57600081815260208120601f850160051c8101602086101561596a5750805b601f850160051c820191505b8181101561304f57828155600101615976565b6001600160401b038311156159a0576159a0615420565b6159b4836159ae8354615797565b83615943565b6000601f8411600181146159e857600085156159d05750838201355b600019600387901b1c1916600186901b1783556136a5565b600083815260209020601f19861690835b82811015615a1957868501358255602094850194600190920191016159f9565b5086821015615a365760001960f88860031b161c19848701351681555b505060018560011b0183555050505050565b60208152816020820152818360408301376000818301604090810191909152601f909201601f19160101919050565b818103818111156110f5576110f56157e7565b6001600160401b03818116838216019080821115615906576159066157e7565b9687526001600160501b0395909516602087015263ffffffff939093166040860152606085019190915262ffffff1660808401526001600160401b0390811660a08401521660c082015260e00190565b634e487b7160e01b600052603160045260246000fd5b600060208284031215615b2257600080fd5b6115fc826151f0565b600060208284031215615b3d57600080fd5b6115fc82615207565b602080825282518282018190526000919060409081850190868401855b82811015614ffb578151805163ffffffff908116865287820151168786015285015161ffff168585015260609093019290850190600101615b63565b60208082528181018390526000908460408401835b86811015615bdb5761ffff615bc884614e07565b1682529183019190830190600101615bb4565b509695505050505050565b808201808211156110f5576110f56157e7565b600082615c0857615c086157d1565b500690565b600084516020615c208285838a01614d8b565b855191840191615c338184848a01614d8b565b8554920191600090615c4481615797565b60018281168015615c5c5760018114615c7157615c9d565b60ff1984168752821515830287019450615c9d565b896000528560002060005b84811015615c9557815489820152908301908701615c7c565b505082870194505b50929a9950505050505050505050565b6001600160501b038181168382160280821691908281146118f5576118f56157e7565b634e487b7160e01b600052602160045260246000fd5b8281526040602082015260006115f96040830184614daf565b60008251615d11818460208701614d8b565b9190910192915050565b600060208284031215615d2d57600080fd5b5051919050565b6001600160a01b0385811682528416602082015260408101839052608060608201819052600090615d6790830184614daf565b9695505050505050565b600060208284031215615d8357600080fd5b81516115fc81614cfa56fea2646970667358221220d3a897bb69d35d2b22fcb2f7d53d1a4bf23dd747d70fff6c7d19a0336a9adcac64736f6c63430008110033",
  "devdoc": {
    "kind": "dev",
    "methods": {
      "amountPurchased(address)": {
        "params": {
          "user": "user's address to query."
        }
      },
      "approve(address,uint256)": {
        "details": "Gives permission to `to` to transfer `tokenId` token to another account. The approval is cleared when the token is transferred. Only a single account can be approved at a time, so approving the zero address clears previous approvals. Requirements: - The caller must own the token or be an approved operator. - `tokenId` must exist. Emits an {Approval} event."
      },
      "balanceOf(address)": {
        "details": "Returns the number of tokens in `owner`'s account."
      },
      "explicitOwnershipOf(uint256)": {
        "details": "Returns the `TokenOwnership` struct at `tokenId` without reverting. If the `tokenId` is out of bounds: - `addr = address(0)` - `startTimestamp = 0` - `burned = false` - `extraData = 0` If the `tokenId` is burned: - `addr = <Address of owner before token was burned>` - `startTimestamp = <Timestamp when token was burned>` - `burned = true` - `extraData = <Extra data when token was burned>` Otherwise: - `addr = <Address of owner>` - `startTimestamp = <Timestamp of start of ownership>` - `burned = false` - `extraData = <Extra data at start of ownership>`"
      },
      "explicitOwnershipsOf(uint256[])": {
        "details": "Returns an array of `TokenOwnership` structs at `tokenIds` in order. See {ERC721AQueryable-explicitOwnershipOf}"
      },
      "getApproved(uint256)": {
        "details": "Returns the account approved for `tokenId` token. Requirements: - `tokenId` must exist."
      },
      "isApprovedForAll(address,address)": {
        "details": "Returns if the `operator` is allowed to manage all of the assets of `owner`. See {setApprovalForAll}."
      },
      "name()": {
        "details": "Returns the token collection name."
      },
      "owner()": {
        "details": "Returns the address of the current owner."
      },
      "refundAmount(address)": {
        "params": {
          "user": "user's address to query."
        }
      },
      "renounceOwnership()": {
        "details": "Leaves the contract without owner. It will not be possible to call `onlyOwner` functions anymore. Can only be called by the current owner. NOTE: Renouncing ownership will leave the contract without an owner, thereby removing any functionality that is only available to the owner."
      },
      "safeTransferFrom(address,address,uint256)": {
        "details": "Equivalent to `safeTransferFrom(from, to, tokenId, '')`."
      },
      "safeTransferFrom(address,address,uint256,bytes)": {
        "details": "Safely transfers `tokenId` token from `from` to `to`. Requirements: - `from` cannot be the zero address. - `to` cannot be the zero address. - `tokenId` token must exist and be owned by `from`. - If the caller is not `from`, it must be approved to move this token by either {approve} or {setApprovalForAll}. - If `to` refers to a smart contract, it must implement {IERC721Receiver-onERC721Received}, which is called upon a safe transfer. Emits a {Transfer} event."
      },
      "sendAllTokens(address)": {
        "details": "if some tokens have already been sent, the remainder must be sent   using sendTokens().",
        "params": {
          "to": "address to send tokens to."
        }
      },
      "sendRefund(address)": {
        "details": "can only be called after the clearing price has been set.",
        "params": {
          "to": "the address to refund."
        }
      },
      "sendRefundBatch(address[])": {
        "params": {
          "addresses": "array of addresses to refund."
        }
      },
      "sendTokens(address,uint256)": {
        "details": "purchased amount for an address can be sent in multiple calls.   Can only be called after clearing price has been set.",
        "params": {
          "amount": "number of tokens to send.",
          "to": "address to send tokens to."
        }
      },
      "sendTokensAndRefund(address)": {
        "details": "can only be called after the clearing price has been set.",
        "params": {
          "to": "the address to refund."
        }
      },
      "sendTokensAndRefundBatch(address[])": {
        "params": {
          "addresses": "array of addresses to send tokens to."
        }
      },
      "sendTokensBatch(address[])": {
        "params": {
          "addresses": "array of addresses to send tokens to."
        }
      },
      "setApprovalForAll(address,bool)": {
        "details": "Approve or remove `operator` as an operator for the caller. Operators can call {transferFrom} or {safeTransferFrom} for any token owned by the caller. Requirements: - The `operator` cannot be the caller. Emits an {ApprovalForAll} event."
      },
      "setMinimumContribution(uint256)": {
        "details": "set this price in wei, not eth!",
        "params": {
          "minimumContributionInWei": "new price, set in wei"
        }
      },
      "setPrice(uint256)": {
        "details": "set this price in wei, not eth!",
        "params": {
          "priceInWei": "new price, set in wei"
        }
      },
      "setStartAndEndTimeUnixSeconds(uint64,uint64)": {
        "details": "cannot be reactivated after price has been set.",
        "params": {
          "endTime": "set to unix timestamp for the auction end time.",
          "startTime": "set to unix timestamp for the auction start time."
        }
      },
      "supportsInterface(bytes4)": {
        "details": "Returns true if this contract implements the interface defined by `interfaceId`. See the corresponding [EIP section](https://eips.ethereum.org/EIPS/eip-165#how-interfaces-are-identified) to learn more about how these ids are created. This function call must use less than 30000 gas."
      },
      "symbol()": {
        "details": "Returns the token collection symbol."
      },
      "tokensOfOwner(address)": {
        "details": "Returns an array of token IDs owned by `owner`. This function scans the ownership mapping and is O(`totalSupply`) in complexity. It is meant to be called off-chain. See {ERC721AQueryable-tokensOfOwnerIn} for splitting the scan into multiple smaller scans if the collection is large enough to cause an out-of-gas error (10K collections should be fine)."
      },
      "tokensOfOwnerIn(address,uint256,uint256)": {
        "details": "Returns an array of token IDs owned by `owner`, in the range [`start`, `stop`) (i.e. `start <= tokenId < stop`). This function allows for tokens to be queried if the collection grows too big for a single call of {ERC721AQueryable-tokensOfOwner}. Requirements: - `start < stop`"
      },
      "totalSupply()": {
        "details": "Returns the total number of tokens in existence. Burned tokens will reduce the count. To get the total number of tokens minted, please see {_totalMinted}."
      },
      "transferOwnership(address)": {
        "details": "Transfers ownership of the contract to a new account (`newOwner`). Can only be called by the current owner."
      }
    },
    "version": 1
  },
  "userdoc": {
    "errors": {
      "ApprovalCallerNotOwnerNorApproved()": [
        {
          "notice": "The caller must own the token or be an approved operator."
        }
      ],
      "ApprovalQueryForNonexistentToken()": [
        {
          "notice": "The token does not exist."
        }
      ],
      "BalanceQueryForZeroAddress()": [
        {
          "notice": "Cannot query the balance for the zero address."
        }
      ],
      "InvalidQueryRange()": [
        {
          "notice": "Invalid query range (`start` >= `stop`)."
        }
      ],
      "MintERC2309QuantityExceedsLimit()": [
        {
          "notice": "The `quantity` minted with ERC2309 exceeds the safety limit."
        }
      ],
      "MintToZeroAddress()": [
        {
          "notice": "Cannot mint to the zero address."
        }
      ],
      "MintZeroQuantity()": [
        {
          "notice": "The quantity of tokens minted must be more than zero."
        }
      ],
      "OwnerQueryForNonexistentToken()": [
        {
          "notice": "The token does not exist."
        }
      ],
      "OwnershipNotInitializedForExtraData()": [
        {
          "notice": "The `extraData` cannot be set on an unintialized ownership slot."
        }
      ],
      "TransferCallerNotOwnerNorApproved()": [
        {
          "notice": "The caller must own the token or be an approved operator."
        }
      ],
      "TransferFromIncorrectOwner()": [
        {
          "notice": "The token must be owned by `from`."
        }
      ],
      "TransferToNonERC721ReceiverImplementer()": [
        {
          "notice": "Cannot safely transfer to a contract that does not implement the ERC721Receiver interface."
        }
      ],
      "TransferToZeroAddress()": [
        {
          "notice": "Cannot transfer to the zero address."
        }
      ],
      "URIQueryForNonexistentToken()": [
        {
          "notice": "The token does not exist."
        }
      ]
    },
    "kind": "user",
    "methods": {
      "amountPurchased(address)": {
        "notice": "get the number of tokens purchased by an address, after the   clearing price has been set."
      },
      "bid()": {
        "notice": "place a bid in ETH or add to your existing bid. Calling this   multiple times will increase your bid amount. All bids placed are final   and cannot be reversed."
      },
      "refundAmount(address)": {
        "notice": "get the refund amount for an account, after the clearing price   has been set."
      },
      "sendAllTokens(address)": {
        "notice": "send all of an address's purchased tokens."
      },
      "sendRefund(address)": {
        "notice": "send refund to an address. Refunds are unsuccessful bids or   an address's remaining eth after all their tokens have been paid for."
      },
      "sendRefundBatch(address[])": {
        "notice": "send refunds to a batch of addresses."
      },
      "sendTokens(address,uint256)": {
        "notice": "mint tokens to an address."
      },
      "sendTokensAndRefund(address)": {
        "notice": "send refunds and tokens to an address."
      },
      "sendTokensAndRefundBatch(address[])": {
        "notice": "send refunds and tokens to a batch of addresses."
      },
      "sendTokensBatch(address[])": {
        "notice": "send tokens to a batch of addresses."
      },
      "setMinimumContribution(uint256)": {
        "notice": "set the minimum contribution required to place a bid"
      },
      "setPrice(uint256)": {
        "notice": "set the clearing price after all bids have been placed."
      },
      "setStartAndEndTimeUnixSeconds(uint64,uint64)": {
        "notice": "set the start and end times in unix seconds for the bucket auction."
      }
    },
    "version": 1
  },
  "storageLayout": {
    "storage": [
      {
        "astId": 6101,
        "contract": "contracts/StakedBucketAuction.sol:StakedBucketAuction",
        "label": "_currentIndex",
        "offset": 0,
        "slot": "0",
        "type": "t_uint256"
      },
      {
        "astId": 6103,
        "contract": "contracts/StakedBucketAuction.sol:StakedBucketAuction",
        "label": "_burnCounter",
        "offset": 0,
        "slot": "1",
        "type": "t_uint256"
      },
      {
        "astId": 6105,
        "contract": "contracts/StakedBucketAuction.sol:StakedBucketAuction",
        "label": "_name",
        "offset": 0,
        "slot": "2",
        "type": "t_string_storage"
      },
      {
        "astId": 6107,
        "contract": "contracts/StakedBucketAuction.sol:StakedBucketAuction",
        "label": "_symbol",
        "offset": 0,
        "slot": "3",
        "type": "t_string_storage"
      },
      {
        "astId": 6111,
        "contract": "contracts/StakedBucketAuction.sol:StakedBucketAuction",
        "label": "_packedOwnerships",
        "offset": 0,
        "slot": "4",
        "type": "t_mapping(t_uint256,t_uint256)"
      },
      {
        "astId": 6115,
        "contract": "contracts/StakedBucketAuction.sol:StakedBucketAuction",
        "label": "_packedAddressData",
        "offset": 0,
        "slot": "5",
        "type": "t_mapping(t_address,t_uint256)"
      },
      {
        "astId": 6120,
        "contract": "contracts/StakedBucketAuction.sol:StakedBucketAuction",
        "label": "_tokenApprovals",
        "offset": 0,
        "slot": "6",
        "type": "t_mapping(t_uint256,t_struct(TokenApprovalRef)6033_storage)"
      },
      {
        "astId": 6126,
        "contract": "contracts/StakedBucketAuction.sol:StakedBucketAuction",
        "label": "_operatorApprovals",
        "offset": 0,
        "slot": "7",
        "type": "t_mapping(t_address,t_mapping(t_address,t_bool))"
      },
      {
        "astId": 400,
        "contract": "contracts/StakedBucketAuction.sol:StakedBucketAuction",
        "label": "_owner",
        "offset": 0,
        "slot": "8",
        "type": "t_address"
      },
      {
        "astId": 549,
        "contract": "contracts/StakedBucketAuction.sol:StakedBucketAuction",
        "label": "_status",
        "offset": 0,
        "slot": "9",
        "type": "t_uint256"
      },
      {
        "astId": 3875,
        "contract": "contracts/StakedBucketAuction.sol:StakedBucketAuction",
        "label": "_mintable",
        "offset": 0,
        "slot": "10",
        "type": "t_bool"
      },
      {
        "astId": 3877,
        "contract": "contracts/StakedBucketAuction.sol:StakedBucketAuction",
        "label": "_currentBaseURI",
        "offset": 0,
        "slot": "11",
        "type": "t_string_storage"
      },
      {
        "astId": 3879,
        "contract": "contracts/StakedBucketAuction.sol:StakedBucketAuction",
        "label": "_activeStage",
        "offset": 0,
        "slot": "12",
        "type": "t_uint256"
      },
      {
        "astId": 3881,
        "contract": "contracts/StakedBucketAuction.sol:StakedBucketAuction",
        "label": "_maxMintableSupply",
        "offset": 0,
        "slot": "13",
        "type": "t_uint256"
      },
      {
        "astId": 3883,
        "contract": "contracts/StakedBucketAuction.sol:StakedBucketAuction",
        "label": "_globalWalletLimit",
        "offset": 0,
        "slot": "14",
        "type": "t_uint256"
      },
      {
        "astId": 3885,
        "contract": "contracts/StakedBucketAuction.sol:StakedBucketAuction",
        "label": "_tokenURISuffix",
        "offset": 0,
        "slot": "15",
        "type": "t_string_storage"
      },
      {
        "astId": 3887,
        "contract": "contracts/StakedBucketAuction.sol:StakedBucketAuction",
        "label": "_baseURIPermanent",
        "offset": 0,
        "slot": "16",
        "type": "t_bool"
      },
      {
        "astId": 3889,
        "contract": "contracts/StakedBucketAuction.sol:StakedBucketAuction",
        "label": "_cosigner",
        "offset": 1,
        "slot": "16",
        "type": "t_address"
      },
      {
        "astId": 3891,
        "contract": "contracts/StakedBucketAuction.sol:StakedBucketAuction",
        "label": "_crossmintAddress",
        "offset": 0,
        "slot": "17",
        "type": "t_address"
      },
      {
        "astId": 3895,
        "contract": "contracts/StakedBucketAuction.sol:StakedBucketAuction",
        "label": "_mintStages",
        "offset": 0,
        "slot": "18",
        "type": "t_array(t_struct(MintStageInfo)5810_storage)dyn_storage"
      },
      {
        "astId": 3901,
        "contract": "contracts/StakedBucketAuction.sol:StakedBucketAuction",
        "label": "_stageMintedCountsPerWallet",
        "offset": 0,
        "slot": "19",
        "type": "t_mapping(t_uint256,t_mapping(t_address,t_uint32))"
      },
      {
        "astId": 3905,
        "contract": "contracts/StakedBucketAuction.sol:StakedBucketAuction",
        "label": "_stageMintedCounts",
        "offset": 0,
        "slot": "20",
        "type": "t_mapping(t_uint256,t_uint256)"
      },
      {
        "astId": 2946,
        "contract": "contracts/StakedBucketAuction.sol:StakedBucketAuction",
        "label": "_claimable",
        "offset": 0,
        "slot": "21",
        "type": "t_bool"
      },
      {
        "astId": 2948,
        "contract": "contracts/StakedBucketAuction.sol:StakedBucketAuction",
        "label": "_firstTokenSent",
        "offset": 1,
        "slot": "21",
        "type": "t_bool"
      },
      {
        "astId": 2950,
        "contract": "contracts/StakedBucketAuction.sol:StakedBucketAuction",
        "label": "_startTimeUnixSeconds",
        "offset": 2,
        "slot": "21",
        "type": "t_uint64"
      },
      {
        "astId": 2952,
        "contract": "contracts/StakedBucketAuction.sol:StakedBucketAuction",
        "label": "_endTimeUnixSeconds",
        "offset": 10,
        "slot": "21",
        "type": "t_uint64"
      },
      {
        "astId": 2954,
        "contract": "contracts/StakedBucketAuction.sol:StakedBucketAuction",
        "label": "_minimumContributionInWei",
        "offset": 0,
        "slot": "22",
        "type": "t_uint256"
      },
      {
        "astId": 2956,
        "contract": "contracts/StakedBucketAuction.sol:StakedBucketAuction",
        "label": "_price",
        "offset": 0,
        "slot": "23",
        "type": "t_uint256"
      },
      {
        "astId": 2961,
        "contract": "contracts/StakedBucketAuction.sol:StakedBucketAuction",
        "label": "_userData",
        "offset": 0,
        "slot": "24",
        "type": "t_mapping(t_address,t_struct(User)5729_storage)"
      },
      {
        "astId": 2964,
        "contract": "contracts/StakedBucketAuction.sol:StakedBucketAuction",
        "label": "_users",
        "offset": 0,
        "slot": "25",
        "type": "t_struct(AddressSet)2640_storage"
      },
      {
        "astId": 5084,
        "contract": "contracts/StakedBucketAuction.sol:StakedBucketAuction",
        "label": "baseAward",
        "offset": 0,
        "slot": "27",
        "type": "t_uint32"
      },
      {
        "astId": 5086,
        "contract": "contracts/StakedBucketAuction.sol:StakedBucketAuction",
        "label": "isStakeable",
        "offset": 4,
        "slot": "27",
        "type": "t_bool"
      },
      {
        "astId": 5089,
        "contract": "contracts/StakedBucketAuction.sol:StakedBucketAuction",
        "label": "rewardHandler",
        "offset": 5,
        "slot": "27",
        "type": "t_contract(IGakkoRewards)5963"
      },
      {
        "astId": 5094,
        "contract": "contracts/StakedBucketAuction.sol:StakedBucketAuction",
        "label": "stakes",
        "offset": 0,
        "slot": "28",
        "type": "t_mapping(t_uint16,t_struct(StakeData)5082_storage)"
      }
    ],
    "types": {
      "t_address": {
        "encoding": "inplace",
        "label": "address",
        "numberOfBytes": "20"
      },
      "t_array(t_bytes32)dyn_storage": {
        "base": "t_bytes32",
        "encoding": "dynamic_array",
        "label": "bytes32[]",
        "numberOfBytes": "32"
      },
      "t_array(t_struct(MintStageInfo)5810_storage)dyn_storage": {
        "base": "t_struct(MintStageInfo)5810_storage",
        "encoding": "dynamic_array",
        "label": "struct IERC721I.MintStageInfo[]",
        "numberOfBytes": "32"
      },
      "t_bool": {
        "encoding": "inplace",
        "label": "bool",
        "numberOfBytes": "1"
      },
      "t_bytes32": {
        "encoding": "inplace",
        "label": "bytes32",
        "numberOfBytes": "32"
      },
      "t_contract(IGakkoRewards)5963": {
        "encoding": "inplace",
        "label": "contract IGakkoRewards",
        "numberOfBytes": "20"
      },
      "t_mapping(t_address,t_bool)": {
        "encoding": "mapping",
        "key": "t_address",
        "label": "mapping(address => bool)",
        "numberOfBytes": "32",
        "value": "t_bool"
      },
      "t_mapping(t_address,t_mapping(t_address,t_bool))": {
        "encoding": "mapping",
        "key": "t_address",
        "label": "mapping(address => mapping(address => bool))",
        "numberOfBytes": "32",
        "value": "t_mapping(t_address,t_bool)"
      },
      "t_mapping(t_address,t_struct(User)5729_storage)": {
        "encoding": "mapping",
        "key": "t_address",
        "label": "mapping(address => struct IBucketAuction.User)",
        "numberOfBytes": "32",
        "value": "t_struct(User)5729_storage"
      },
      "t_mapping(t_address,t_uint256)": {
        "encoding": "mapping",
        "key": "t_address",
        "label": "mapping(address => uint256)",
        "numberOfBytes": "32",
        "value": "t_uint256"
      },
      "t_mapping(t_address,t_uint32)": {
        "encoding": "mapping",
        "key": "t_address",
        "label": "mapping(address => uint32)",
        "numberOfBytes": "32",
        "value": "t_uint32"
      },
      "t_mapping(t_bytes32,t_uint256)": {
        "encoding": "mapping",
        "key": "t_bytes32",
        "label": "mapping(bytes32 => uint256)",
        "numberOfBytes": "32",
        "value": "t_uint256"
      },
      "t_mapping(t_uint16,t_struct(StakeData)5082_storage)": {
        "encoding": "mapping",
        "key": "t_uint16",
        "label": "mapping(uint16 => struct StakedBucketAuction.StakeData)",
        "numberOfBytes": "32",
        "value": "t_struct(StakeData)5082_storage"
      },
      "t_mapping(t_uint256,t_mapping(t_address,t_uint32))": {
        "encoding": "mapping",
        "key": "t_uint256",
        "label": "mapping(uint256 => mapping(address => uint32))",
        "numberOfBytes": "32",
        "value": "t_mapping(t_address,t_uint32)"
      },
      "t_mapping(t_uint256,t_struct(TokenApprovalRef)6033_storage)": {
        "encoding": "mapping",
        "key": "t_uint256",
        "label": "mapping(uint256 => struct ERC721A.TokenApprovalRef)",
        "numberOfBytes": "32",
        "value": "t_struct(TokenApprovalRef)6033_storage"
      },
      "t_mapping(t_uint256,t_uint256)": {
        "encoding": "mapping",
        "key": "t_uint256",
        "label": "mapping(uint256 => uint256)",
        "numberOfBytes": "32",
        "value": "t_uint256"
      },
      "t_string_storage": {
        "encoding": "bytes",
        "label": "string",
        "numberOfBytes": "32"
      },
      "t_struct(AddressSet)2640_storage": {
        "encoding": "inplace",
        "label": "struct EnumerableSet.AddressSet",
        "members": [
          {
            "astId": 2639,
            "contract": "contracts/StakedBucketAuction.sol:StakedBucketAuction",
            "label": "_inner",
            "offset": 0,
            "slot": "0",
            "type": "t_struct(Set)2339_storage"
          }
        ],
        "numberOfBytes": "64"
      },
      "t_struct(MintStageInfo)5810_storage": {
        "encoding": "inplace",
        "label": "struct IERC721I.MintStageInfo",
        "members": [
          {
            "astId": 5799,
            "contract": "contracts/StakedBucketAuction.sol:StakedBucketAuction",
            "label": "price",
            "offset": 0,
            "slot": "0",
            "type": "t_uint80"
          },
          {
            "astId": 5801,
            "contract": "contracts/StakedBucketAuction.sol:StakedBucketAuction",
            "label": "walletLimit",
            "offset": 10,
            "slot": "0",
            "type": "t_uint32"
          },
          {
            "astId": 5803,
            "contract": "contracts/StakedBucketAuction.sol:StakedBucketAuction",
            "label": "merkleRoot",
            "offset": 0,
            "slot": "1",
            "type": "t_bytes32"
          },
          {
            "astId": 5805,
            "contract": "contracts/StakedBucketAuction.sol:StakedBucketAuction",
            "label": "maxStageSupply",
            "offset": 0,
            "slot": "2",
            "type": "t_uint24"
          },
          {
            "astId": 5807,
            "contract": "contracts/StakedBucketAuction.sol:StakedBucketAuction",
            "label": "startTimeUnixSeconds",
            "offset": 3,
            "slot": "2",
            "type": "t_uint64"
          },
          {
            "astId": 5809,
            "contract": "contracts/StakedBucketAuction.sol:StakedBucketAuction",
            "label": "endTimeUnixSeconds",
            "offset": 11,
            "slot": "2",
            "type": "t_uint64"
          }
        ],
        "numberOfBytes": "96"
      },
      "t_struct(Set)2339_storage": {
        "encoding": "inplace",
        "label": "struct EnumerableSet.Set",
        "members": [
          {
            "astId": 2334,
            "contract": "contracts/StakedBucketAuction.sol:StakedBucketAuction",
            "label": "_values",
            "offset": 0,
            "slot": "0",
            "type": "t_array(t_bytes32)dyn_storage"
          },
          {
            "astId": 2338,
            "contract": "contracts/StakedBucketAuction.sol:StakedBucketAuction",
            "label": "_indexes",
            "offset": 0,
            "slot": "1",
            "type": "t_mapping(t_bytes32,t_uint256)"
          }
        ],
        "numberOfBytes": "64"
      },
      "t_struct(StakeData)5082_storage": {
        "encoding": "inplace",
        "label": "struct StakedBucketAuction.StakeData",
        "members": [
          {
            "astId": 5079,
            "contract": "contracts/StakedBucketAuction.sol:StakedBucketAuction",
            "label": "started",
            "offset": 0,
            "slot": "0",
            "type": "t_uint32"
          },
          {
            "astId": 5081,
            "contract": "contracts/StakedBucketAuction.sol:StakedBucketAuction",
            "label": "total",
            "offset": 4,
            "slot": "0",
            "type": "t_uint32"
          }
        ],
        "numberOfBytes": "32"
      },
      "t_struct(TokenApprovalRef)6033_storage": {
        "encoding": "inplace",
        "label": "struct ERC721A.TokenApprovalRef",
        "members": [
          {
            "astId": 6032,
            "contract": "contracts/StakedBucketAuction.sol:StakedBucketAuction",
            "label": "value",
            "offset": 0,
            "slot": "0",
            "type": "t_address"
          }
        ],
        "numberOfBytes": "32"
      },
      "t_struct(User)5729_storage": {
        "encoding": "inplace",
        "label": "struct IBucketAuction.User",
        "members": [
          {
            "astId": 5724,
            "contract": "contracts/StakedBucketAuction.sol:StakedBucketAuction",
            "label": "contribution",
            "offset": 0,
            "slot": "0",
            "type": "t_uint216"
          },
          {
            "astId": 5726,
            "contract": "contracts/StakedBucketAuction.sol:StakedBucketAuction",
            "label": "tokensClaimed",
            "offset": 27,
            "slot": "0",
            "type": "t_uint32"
          },
          {
            "astId": 5728,
            "contract": "contracts/StakedBucketAuction.sol:StakedBucketAuction",
            "label": "refundClaimed",
            "offset": 31,
            "slot": "0",
            "type": "t_bool"
          }
        ],
        "numberOfBytes": "32"
      },
      "t_uint16": {
        "encoding": "inplace",
        "label": "uint16",
        "numberOfBytes": "2"
      },
      "t_uint216": {
        "encoding": "inplace",
        "label": "uint216",
        "numberOfBytes": "27"
      },
      "t_uint24": {
        "encoding": "inplace",
        "label": "uint24",
        "numberOfBytes": "3"
      },
      "t_uint256": {
        "encoding": "inplace",
        "label": "uint256",
        "numberOfBytes": "32"
      },
      "t_uint32": {
        "encoding": "inplace",
        "label": "uint32",
        "numberOfBytes": "4"
      },
      "t_uint64": {
        "encoding": "inplace",
        "label": "uint64",
        "numberOfBytes": "8"
      },
      "t_uint80": {
        "encoding": "inplace",
        "label": "uint80",
        "numberOfBytes": "10"
      }
    }
  }
}